:020000040800F2
:1000000000000220C1790008BF790008BD7900080E
:10001000BD790008BD790008BD7900080000000026
:10002000000000000000000000000000BF79000890
:10003000BF79000800000000BF790008314B0008BC
:10004000BD790008BD790008BD790008BD790008B8
:10005000BD790008BD790008BD790008BD790008A8
:10006000BD790008BD790008BD790008BD79000898
:10007000BD790008BD790008BD790008BD79000888
:10008000BD790008BD790008BD790008BD79000878
:10009000BD790008BD790008BD790008BD79000868
:1000A000BD790008BD790008BD790008BD79000858
:1000B000BD79000835680008BD790008BD790008E1
:1000C000BD790008BD790008BD790008BD79000838
:1000D000BD790008BD790008BD790008216C0008D1
:1000E000BD790008BD790008BD790008BD79000818
:1000F000BD790008BD790008BD790008BD79000808
:10010000BD790008BD790008BD790008BD790008F7
:10011000BD790008BD790008BD790008BD790008E7
:10012000BD790008BD790008BD790008BD790008D7
:10013000BD790008BD790008BD790008BD790008C7
:10014000BD790008BD790008BD7900082D67000859
:10015000BD790008BD790008BD790008BD790008A7
:10016000BD790008BD790008BD790008BD79000897
:10017000BD790008BD790008BD790008BD79000887
:10018000BD79000808B5D0F88430586841698847BF
:1001900008BD00BF0368591C016070470368591C03
:1001A000016070470368591E016001B1704707F094
:1001B0003BBF00BF036810B50446581E206000B165
:1001C00010BD6068FFF7EEFFE06908B1216A88475B
:1001D0002046BDE8104007F027BF00BF10B582B031
:1001E0000B460092846901210022A04702B010BD95
:1001F00070B582B000240B460094012105460A46E2
:100200008669B0470094AE692846214601220C2336
:10021000B04702B070BD00BFF0B50446406894F826
:1002200008E0C36801F0F00783B00D4616460821C8
:1002300047EA0E62984760680096846901210022AF
:100240002B46A04703B0F0BD8B0770B5154648BFDD
:100250001504826904460E4642F011020021FFF7A0
:10026000DBFF204604213246FFF7D6FF20460C2153
:100270002A46BDE87040FFF7CFBF00BF836970B565
:1002800004460E461546002143F01202FFF7C4FF54
:10029000204604213246FFF7BFFF20460C212A46A4
:1002A000BDE87040FFF7B8BF2DE9F043D0F8847087
:1002B000BD690C4683B000219046384645F01002D7
:1002C0009946FFF7A9FF78680094042301210022D2
:1002D0008569A144A847C4EB0903DA072646C4EBA5
:1002E00008080AD518F80420786804F00301CC0047
:1002F00002FA04F50095741C22E004F003014FEAB1
:10030000C10C651C012100220C234C4537D018F884
:100310000440786804FA0CF400948469A04785EAE4
:10032000060020F47F7323F00302FAB918F80510D1
:10033000786805F00304E30001FA03F200926C1CF4
:1003400000220C2385690121A84784EA060020F4D5
:100350007F7323F00302002ACFD078680094866967
:10036000012100220423B0472646C6E7786800959D
:100370008669012100220423B0472E46D6E71046A5
:1003800003B0BDE8F08300BF2DE9F04FD0F88460E2
:1003900085B0B46903911746002144F0100230463D
:1003A0009B46FFF739FF7068009701210022042364
:1003B0008569A847002570680095012107F1FF3A7B
:1003C0000A460C238469DA44A047C7EB0A03039A60
:1003D000D9073C46A846C7EB020916D570680095B8
:1003E00001210A4685690C23A8477C1C07F00301FC
:1003F00084EA0703CA0023F47F7520FA02F025F08F
:10040000030109F80700002967D101210C23544595
:100410000A4604EB010570684CD0CDF80080D0F896
:1004200018C0E04785EA070104F00302D20021F476
:100430007F7320FA02F023F0030109F8040041BBA6
:100440007068CDF8008001210A4684690C23A0471A
:100450006C1C05F0030284EA0703D10023F47F73C8
:1004600020FA01F023F0030209F80500002ACCD09D
:10047000706800940121002204238769B8477068DE
:10048000CDF80080012185690A460C23A84727463C
:10049000BBE7706800950121002204238769B847F3
:1004A0007068CDF80080012184690A460C23A047BA
:1004B0002F46C5E70025009586692946B04704F018
:1004C00003040BF1FF3BE400039B20FA04F003F864
:1004D0000B00284605B0BDE8F08F7068009401213C
:1004E0004246C9E72DE9F043D0F88480D8F8184097
:1004F0000F4683B000219146404644F012021E464A
:10050000FFF78AFED8F80400009701210022042397
:100510008569B610A847F0073C46C7EB090912D514
:1005200059F80730D8F804000093012100228569AA
:100530000C233C1DA84784EA070020F47F7121F0BA
:1005400003024ABB013E251D012100220C23002E7F
:1005500036D059F80440D8F804000094D0F818C0F8
:10056000E04785EA070323F47F7020F003012C1D88
:10057000E1B959F80550D8F80400009500220C2381
:1005800085690121A84784EA070222F47F7323F0DA
:100590000300013E0028D5D0D8F8040000948769F4
:1005A000012100220423B8472746CBE7D8F80400EE
:1005B00000958769012100220423B8472F46D8E718
:1005C000304603B0BDE8F0832DE9F04FD0F88460E9
:1005D00085B0B46903911746002144F012023046F9
:1005E0004FEAA30BFFF718FE706800970121002265
:1005F00004238569A84700257068009501210C2314
:1006000084690A46A0470BF1FF3E039B1EF0010FD1
:10061000D9463C46A846C7EB030A12D0706800953D
:1006200001210A460C2385693C1DF146A84784EA4E
:10063000070121F47F7222F003034AF80700002B20
:100640005BD10121251D0C23B9F101090A4670680F
:1006500045D0CDF80080D0F818C0E04785EA070201
:1006600022F47F7323F003014AF8040031BB706861
:10067000CDF8008001210A460C232C1DD0F818C0AB
:10068000E04784EA070222F47F7323F003014AF86B
:10069000050009F1FF390029D3D0706800940121C9
:1006A000002204238769B8477068CDF800800121D3
:1006B00085690A460C23A8472746C2E7706800955B
:1006C0000121002204238469A0477068CDF80080CE
:1006D000012187690A460C23B8472F46C7E7CDF8A2
:1006E000009049468469A0470BF1FF3B039941F80C
:1006F0002B00484605B0BDE8F08F706800940121DA
:100700004246CEE770B504464068267AC36801F0D9
:10071000F0020D4642EA06620821984760682946C1
:10072000BDE87040FFF764BD826938B542F0110240
:1007300004460D460021FFF76FFD042120462A469E
:10074000FFF76AFD0C212046FFF7DCFFAB0701D461
:1007500080B238BD000C38BD826938B542F0120253
:1007600004460D460021FFF757FD204604212A4686
:10077000FFF752FD20460C21BDE83840FFF7C2BF0D
:100780002DE9F04F026803690132042102608DB047
:1007900007469847FB6840F0A04204213846984736
:1007A00004213A693846904700F02040B0F1204FCC
:1007B000F6D1DFF8DCB0DFF8DCA0DFF8DC900197E1
:1007C0004FF0000843E007F027FC03AD06460FCDCD
:1007D00034460FC40FCD0FC401982A680368013353
:1007E0000360F42122603046FFF78CFFF82130616E
:1007F0003046FFF787FF394670613046FFF782FFCA
:1008000020F037078C20B76105F0B8FD326840F260
:10081000C957531CC0F60007336040F2E542076138
:1008200040F28933194FC0F88460C0F60002C0F668
:100830000003C0F888B0C0F874A0C0F80C90426102
:100840008361C76101F064FDB8F5807F17D0019B1B
:100850000027FC2103A8059703978DF814800697BD
:100860000797089709970A970B970493FFF74AFF92
:10087000014608F10108242006910029A3D1019F17
:100880003846FFF78FFC0DB0BDE8F08FA9020008D5
:10089000B50100089CDF0008850100082DE9F04142
:1008A00084B05B08DDF828E003F006040025521B45
:1008B0004FEACE06E4B218BF01224FEA5E778046C7
:1008C00034431443C06900290CBF0A210B213D4366
:1008D000CDE9004503F0FCF802A96A462323D8F8C5
:1008E0001C0003F041F9029A039902F0070340F259
:1008F000E73426E0232302A96A46D8F81C0003F057
:1009000033F9029A039902F00703012B1BD1232329
:1009100002A96A46D8F81C0003F026F9029A039946
:1009200002F00703012B0ED1232302A96A46D8F84F
:100930001C0003F019F9029A0399033C02F0070323
:1009400009D0012BD6D0022B0DD1D20842EA41703A
:1009500004B0BDE8F08198F808000028F3D0012B1E
:10096000F1D12046F4E70C4D2E787EB10B480321DF
:1009700002F018FD00272F7005F00EFD0848012138
:1009800004F03CF90748012107F058FF064803210D
:1009900002F008FDEEE700BFF4110020B0DF000810
:1009A000B8DF000898110020B4DF000830B583B02C
:1009B000002421460122042300940546FFF76EFF20
:1009C0003223CFF200030093214628462246042317
:1009D000FFF764FF00F0320003B030BD30B583B0E4
:1009E00000240B460546214601220094FFF756FFDE
:1009F00000942846214601220C23FFF74FFF03B045
:100A000030BD00BF00B583B00B46002100920A46FE
:100A1000FFF744FF03B000BD10B5202104460120BC
:100A200007F0AAFAA268C461426040F6052140F6C8
:100A3000DD12C0F60001C0F60002C160026140F69E
:100A4000AD1140F69D02C0F60001C0F60002416102
:100A50008261BDE81040FFF793BE00BFF0B50646C7
:100A600083B01746002949D0027F002A4FD1A32422
:100A7000002F4ED103F00C03042B44EA430050D066
:100A8000082B4ED0C4B20821204605F075FB032088
:100A900005F084FA40F2E735C1B21DE00821204696
:100AA00005F06AFB032005F079FAC1B2022915D1DD
:100AB0000821204605F060FB032005F06FFAC1B263
:100AC00002290BD10821204605F056FB032005F032
:100AD00065FA033DC1B215D00229DFD004293CD00C
:100AE000012927D107BB0898202105F0B1FB002080
:100AF000082105F041FB019803B0F0BD8124002FCF
:100B0000B8D006E0327A002AE8D00229E6D10020E7
:100B1000F2E703F00C0384F02404042B44EA4300BE
:100B2000AED180F02000ADE701A8202105F090FAB9
:100B30000028DCD00D4D2E789EB10D48032102F027
:100B400031FC00272F7005F027FC0A48012104F032
:100B500055F80948012107F071FE01233377002081
:100B6000CAE70648032102F01DFCEAE7F411002061
:100B7000B0DF0008B8DF000898110020B4DF0008DB
:100B800000B583B00B46002100910122FFF766FFFC
:100B900003B000BD00B583B00B46002100920A46A9
:100BA000FFF75CFF03B000BD38B504210446FFF732
:100BB000E7FF10F0020F0CBF00221022C30648BF4F
:100BC00042F00202810648BF42F00402030648BF19
:100BD00042F0080200F0B20500212046FFF7DAFFDC
:100BE00000232377284638BDF8B505F0D5FB202132
:100BF000012007F0C1F9044605F01AFB204B1878D4
:100C0000002829D1A520082105F0B6FA032005F017
:100C1000C5F9C7B2012F23D1201D202105F018FAF4
:100C20000546E8B91749184A184BE1601849194EAA
:100C3000226120466361A161FFF7B6FF2046FFF7FE
:100C40009FFD3068B0B12846294603F0D7FF3268CF
:100C5000101C18BF0120F8BD012002F0B5FFD1E73C
:100C600001210D4803F0CAFF204607F0DDF94FF0DF
:100C7000FF30F8BD0848394603F0C0FFE7E700BF82
:100C8000F5110020950B0008810B0008A90B000846
:100C90005D0A0008480F0020C8DF0008704700BF49
:100CA00030B583B002AD044605F8011DD0F88C00C4
:100CB000022102F00DFFD4F88C0000212A46042303
:100CC00002F052FFD4F88C000C2102F001FF03B0B7
:100CD00030BD00BF2DE9F041804682B00F460025AF
:100CE00001211E461446FFF7DBFFD8F88C00009761
:100CF00029466A462123019502F036FF002E42D094
:100D00002368D8F88C0000932F4669466A46212351
:100D1000751E019702F028FF00982E4644F8040B38
:100D200005F00105002E2ED075B12168D8F88C0091
:100D300000916A4621236946019702F015FF009A47
:100D4000013E44F8042B1ED02368D8F88C00009391
:100D5000694621236A462546019702F005FF00995E
:100D6000D8F88C0045F8041B6468212369466A465C
:100D70008DE89000013E02F0F7FE2C460098013EFF
:100D800044F8040BE0D102B0BDE8F08108B5034699
:100D900000F190001A6A07F0FDFB002008BD00BFBB
:100DA00008B5034608461A6A03F1900107F0F2FB02
:100DB000002008BD38B5C36B04460025984703E002
:100DC0000220013D03F0ACFE216C2046884700283C
:100DD000F6D0281C18BF012038BD00BFF0B507466B
:100DE00083B000240125022102AE66E90245FFF727
:100DF00057FF00212623D7F88C006A4602F0B4FE84
:100E0000262369466A46D7F88C0002F0ADFEDDE97C
:100E100000230124002522402B4052EA030102D185
:100E2000104603B0F0BD4FF6FF713846CEF6800194
:100E300007F190021023FFF74DFF0120F1E700BFFB
:100E4000F0B54FF6FF7183B0064600F19002102313
:100E5000CEF69001FFF73EFF002420253046022108
:100E600002AF67E90245FFF71BFF00216A46262310
:100E7000D6F88C0002F078FE002211461346304668
:100E8000CEF2A011FFF726FF002430460121FFF724
:100E900007FFCEF2A01400216A462123D6F88C0069
:100EA0000125CDE9004502F05FFE00224FF6F87102
:100EB0003046CEF6FF211346FFF70CFFD6F88C0024
:100EC000042102F005FE03B0F0BD00BF70B582B092
:100ED000022402AE202566E9024504460221FFF7FE
:100EE000DFFED4F88C0000216A46262302F03CFE87
:100EF00002B070BD10B50446D02005F03FFA4DF6A3
:100F0000D471C0F6000140F6B553C0F60003416746
:100F1000402140F69D424360016240F6A15340F6F5
:100F20008D51C0F60002C0F60003C0F600018260D9
:100F3000C260026142618261C2618362C1624263D6
:100F4000826340F6DD5340F6CD6240F64161C0F663
:100F50000002C0F60003C0F60001C0F88C40C26376
:100F60000364416410BD00BF08B505F0E7FB4EF215
:100F70004C0041F2FC21C0F60000C2F20001052243
:100F8000852302F001FB012008BD00BF08B5044B1A
:100F9000196811B1034802F0F7FA012008BD00BF3B
:100FA00090110020B4E1000870B5114C2568064688
:100FB000C5B1104802F0C4FA0F4802F0C1FA246823
:100FC00074B101252946B44214BF20222A22636F3E
:100FD0000A4802F0D9FAD4F880400135002CF1D14A
:100FE000012070BD064802F0ABFA284670BD00BF74
:100FF000480F002078E000088CE000089CE0000822
:101000005CE0000838B505461148124C02F098FA29
:101010001149A268114802F0B7FA54F80C1F0029D0
:10102000F7D19DB1AD6F8DB129680D4802F0ACFAD2
:101030006C68216839B1A268084802F0A5FA54F832
:101040000C1F0029F7D1AD68002DEDD1012038BD6E
:10105000B4E00008E0DF0008ACE00008C8E00008E9
:10106000D4E000084EF2EC0008B5C0F6000002F033
:1010700067FA4EF22010C0F6000002F061FA4EF25C
:101080005410C0F6000002F05BFA012008BD00BF5A
:1010900008B503F0C9FD0146084802F075FAFFF7EC
:1010A000A3FD002804DB0020FFF77EFF012008BD20
:1010B000034802F045FA002008BD00BFA4E1000883
:1010C000B8E100082DE9F04782B002AF8946144626
:1010D00003F0AAFD0146364802F056FAB9F1010FB5
:1010E0005ADD09F10E0323F00700ADEB000D02AE4F
:1010F000A9F1020154F8040F06EB010801F0010AFE
:1011000006F032FF46453546307019D0BAF1000F6F
:1011100008D054F8040F06F027FF354605F8010FF4
:1011200045450DD054F8040F06F01EFF687054F8C2
:10113000040F06F019FF6A1C023545455070F1D1C5
:10114000B144002409F8014C304602F005FB041EAE
:1011500029DB23D0174E184802F016FA3368002B0B
:1011600010DD164C0025D4F80A102278D4F8063089
:1011700013480091294602F007FA3068013514340B
:10118000A842F0DC0F4802F0DBF90020FFF70CFF6B
:101190000120BD46BDE8F0870026D5E70A4802F0E9
:1011A000CFF92046F5E7094802F0CAF90020F0E738
:1011B000A4E100081411002008E200081A11002020
:1011C00034E20008E4E10008E8E10008CCE10008AE
:1011D000012908B50BD050680B4907F0D9FB0B4B20
:1011E000D0F1010038BF00201870012008BD074968
:1011F000074B084A0978084800290CBF11461946D0
:1012000002F0C2F9012008BD7CE20008F5110020BF
:1012100048E2000850E200085CE200082DE9F84FBF
:101220000B7800AF06467BB10A46002404E0092B88
:1012300004D012F8013F33B1202BF8D112F8013F4E
:101240000134002BF8D1A3000E3323F00700ADEBDF
:10125000000D0846294907F0D1FDE8460090002816
:1012600049D06C4600250020244907F0C7FD013510
:1012700044F8040F0028F6D1D8F80040204607F0C3
:1012800075FCDFF880A01E49814602E05AF80C1F69
:1012900089B120464A4607F099FC0028F6D1DAF8D1
:1012A0000430294630464246984780F00101C8B2D2
:1012B000BD46BDE8F88FDEB1D6F878A0BAF1000FD0
:1012C00016D0DAF80420116869B1934602E05BF8A1
:1012D0000C1F41B120464A4607F078FC0028F6D1A1
:1012E000DBF80430DDE7DAF808A0BAF1000FE8D146
:1012F0004FF0FF30DCE704460546BFE784E2000814
:10130000ACE00008E0DF000810B4D0F8840003224D
:1013100043684EF6F0510024CEF20001CAF25F029B
:101320001C7210BCFEF7AABF10B5D0F884400A4664
:101330004EF6F8512046CEF20001FEF79FFF0F2235
:101340004EF6F4512046CEF20001C0F20102FEF743
:1013500095FF002010BD00BFF8B5D0F88460F76994
:101360003B6C73B142F20804CEF200040025214622
:1013700030460022FEF782FF386C01350434A84263
:10138000F5D8796A71B141F22804CEF20004002543
:10139000002221463046FEF771FF7A6A013510348B
:1013A000AA42F5D800224EF6F0513046CEF20001A6
:1013B000CAF25F02BDE8F840FEF760BFD0F88400D3
:1013C000022B2DE9F843C56960D0042B57D0012BBF
:1013D00003D04FF0FF30BDE8F8834FF00008032939
:1013E00051D0042955D00229F3D14FF0060C6F6A71
:1013F000002F40D069687C1E0023914204F0010454
:101400004AD001230821BB4235D09CB16E187468C4
:10141000944259D001330831BB420BD12BE0D9F8AB
:101420000410013391421E4618D0731CBB4204F1D4
:10143000080120D001F10804691805EB04094E6881
:101440009642ECD10E7A6645E9D1497A414529D0D8
:10145000D9F80410013391421E46E6D199F80810DC
:101460006145E2D199F8091041451BD0731CBB427C
:1014700004F10801DED16FF00100BDE8F883032913
:101480004FF00308ADD14FF0050CB0E74FF0010865
:10149000A5E74FF0070CAAE7297A6145B1D1697A2F
:1014A0004145AED1BB42E6D005EBC30541F228026F
:1014B00000241B01CEF2000299182C722246FEF77E
:1014C000DDFE2046BDE8F883347A6445A2D1747A03
:1014D00044459FD1E6E700BFD0F8840070B5C669E7
:1014E000356C7DB3B36A23F001028A422DD000230C
:1014F000EC07324621D4F46A24F001040123321DA2
:101500008C421AD103F1605101F6020291000A33B4
:10151000002446F823402246FEF7B0FE204670BD68
:10152000D26A22F001028A4204F10402EAD0E46A9B
:1015300024F0010401338C42E4D00133AB4202F1C8
:101540000404EDD14FF0FF3070BD42F20801CEF23D
:1015500000010023DBE700BFD0F88400F8B5C769BD
:1015600021F0604222F0030211F0020F3E6C0CBF2A
:101570004FF080434FF0004342F001021A4356B34C
:10158000BC6A14F0010329D00023F5073C461DD4A2
:10159000FD6A01233C1DED0718D403F1605404F6E5
:1015A0000205AD000A3341F0010447F82340294603
:1015B000FEF764FE0020F8BDE46A14F0010F05F1A7
:1015C0000404EAD0ED6A0133ED07E6D50133B342F6
:1015D00004F10405F0D14FF0FF30F8BD42F20805E8
:1015E000CEF20005DEE700BF2DE9F04FD0F8840011
:1015F000444E97B08B46069015460FCE0BAC0FC4E9
:101600000FCE0FC496E80700069BBBF1020FDF69FF
:1016100084E8070005DD69680A780892643A012ABF
:101620007AD9394801F08CFF384801F089FF0B99CD
:1016300011B17A6CD20738D40C9911B1786C830748
:101640005BD40D9911B17B6C580752D40E9911B12E
:101650007A6C120749D40F9911B1786CC30640D443
:10166000109911B17B6C980637D4119911B17A6C2D
:1016700052062ED4129911B1786C030625D4139911
:1016800011B17B6CD8051CD4149911B17A6C9205F8
:1016900013D4159911B1786C43050AD41C4801F094
:1016A0004FFF012017B0BDE8F08F1A4801F06CFF22
:1016B000C2E7184801F068FFF0E7164801F064FF40
:1016C000E7E7144801F060FFDEE7124801F05CFF35
:1016D000D5E7104801F058FFCCE70E4801F054FF61
:1016E000C3E70C4801F050FFBAE70A4801F04CFF8D
:1016F000B1E7084801F048FFA8E7064801F044FFB9
:101700009FE700BFD0E30008DCEF000830F00008DE
:10171000E4E1000844F000080E9E0F980096019046
:10172000139E109B1199129A1498DDF854C0DDF89D
:101730002CA0DDF83090DDF8348005964FEA8B0B55
:101740000024CDF81CB00997029303910492264619
:1017500067468346BAF1000F06D05046295907F074
:1017600017F908B946F00106B9F1000F06D048464E
:10177000295907F00DF908B946F00206B8F1000F33
:1017800006D04046295907F003F908B946F0040687
:10179000009B33B11846295907F0FAF808B946F00A
:1017A0000806019931B10846295907F0F1F808B93E
:1017B00046F01006029A32B11046295907F0E8F8AF
:1017C00008B946F02006039828B1295907F0E0F837
:1017D00008B946F04006049B33B11846295907F072
:1017E000D7F808B946F08006059931B1084629595D
:1017F00007F0CEF808B946F48076BBF1000F06D0AA
:101800005846295907F0C4F808B946F4007637B1AC
:101810003846295907F0BCF808B946F48066079A9B
:101820000434944296D10898099F65280BD07A6CAD
:1018300022EA06027A644EF6FC510698CEF20001C6
:10184000FEF71CFDF0E67B6C46EA03027A64F2E7E1
:101850002DE9F041D0F88470FE69736A884643B37D
:1018600041F22805CEF20005002404E001341035D1
:10187000A342194610D906EBC402107A0028F5D00D
:1018800029463846FEF768FFC1010FD4736A013458
:101890001035A3421946EED8A1420AD006EBC40483
:1018A00001206268C8F80020BDE8F081716AA14299
:1018B000F4D10020BDE8F0812DE9F84FD0F8846024
:1018C000022B07469046D6F81CB063D0042B68D094
:1018D000012B03D04FF0FF30BDE8F88F4FF0000927
:1018E00003295BD004295FD00229F3D14FF0060A07
:1018F000DBF82430002B5DD041F22805CEF2000544
:10190000002404E001341035A342194611D90BEB31
:10191000C402107A0028F5D130462946FEF71CFF94
:10192000000744D0DBF8243001341035A3421946B7
:10193000EDD88C423ED00BEBC40B04F1606202F593
:1019400081731901304642468BF808A0CBF8048019
:101950008BF80990FEF792FC41F224012401CEF2AB
:101960000001304661184A46FEF788FCF86D41F2E6
:10197000280310F0010F0CBF4FF400620022CEF2DA
:1019800000033046E11842EA0A02FEF777FC002025
:10199000BDE8F88F03294FF00109A3D14FF0050AE4
:1019A000A6E74FF003099BE74FF0070AA0E7DBF833
:1019B0002410BEE76FF00100BDE8F88F2DE9F84371
:1019C0008846016AD0F88450836AEE6989000A313A
:1019D00021F0070500AFADEB050D694691460446C1
:1019E0009847B06C421F012A6D4607D901280BD1D8
:1019F000B8F1FF3F08D008F1010106E0B8F1000F8F
:101A000002DD336DC8EB030841462960E26A2046D7
:101A100029469047C6F84C90BD46BDE8F88300BF04
:101A20002DE9F04F91B04EF6F051D0F8844002AF5E
:101A30000546CEF200012046D4F81C80FEF78CFE4D
:101A400010F4003004D107F13C07BD46BDE8F08F2B
:101A5000636800224EF630511A72CEF20001204621
:101A6000FEF77AFE4EF630510646CEF200012046D1
:101A70003246FEF703FC330712D4C6F3400088F861
:101A8000010000286ED116F0060F01D00520DAE71C
:101A9000F307FBD598F800000028F7D10220D2E721
:101AA000D5F884904EF62C51CEF200014846FEF750
:101AB00053FE4EF628510446CEF200014846FEF78A
:101AC0004BFE4EF62C518246CEF20001484622468D
:101AD000FEF7D4FB4EF628514846CEF2000152469E
:101AE000FEF7CCFB600002D4BAF1000FC5D02E6A1D
:101AF000AA6A002EB8BF033626F003040A3424F085
:101B00000703E846ADEB030D02AC2146284690479B
:101B10002023D4F838A0626B2E6907F118012846FB
:101B2000B047F96A386B7A6BA1631AF0100F0CBFDB
:101B300020236823E0639105606B48BF0433C3181A
:101B40004EF60C5102224846CEF20001C0F2FA5283
:101B50006363FEF793FBEA6A2846214690470B2011
:101B6000C54670E7D5F884404EF6F4510F22204662
:101B7000CEF20001FEF782FB4EF6F8512046CEF27F
:101B80000001FEF7E9FDB91C02230246AC692846B4
:101B9000A04779884BF6AB6399427FF474AF2A6A09
:101BA000D5F88400AC6AD0F81CB091000A3121F05D
:101BB0000703E946ADEB030D0DF1080A514628462F
:101BC000A047DAF804202C69284607F10801102301
:101BD000A047DAF80020501ECBF84820122800F267
:101BE0008B80DFE800F0605A898950468989403847
:101BF000893489322589891A0A00DBF84C10EB6A8E
:101C0000CAF800102846514698472846CD466A6CC7
:101C100098F800109047002015E74348BA68FB6821
:101C2000511E5A1C01F074FC4FF0FF30CD460AE7FC
:101C300007F1080494E80E007C693C4801340094E4
:101C40000139013201F064FCEEE73948E6E7002093
:101C5000CBF84C00D9E7B9683648FA680139002357
:101C600001F056FCE0E7BA683348511E01F050FC21
:101C7000DAE73B69B968CBF850303048FA68013987
:101C800001F046FCD0E73B69B968CBF850302C48EE
:101C9000FA68013901F03CFCC6E7BB682948591EC7
:101CA00001F036FCC0E7284C0FCC07F118060FC630
:101CB00094E80300FA6886E80300530807F1380047
:101CC00000EB8304391D54F8206CBA68AC692846CF
:101CD0000423A047381D1D4906F05AFEC0B96EB94D
:101CE000CAF80060DAF80020EB6A511CCAF800104C
:101CF00028465146984788E7CD46C4E6720503D585
:101D00000120CAF80000EDE70223CAF80030E9E735
:101D10003A690F484FF4D2710091B96801323346E5
:101D200001F0F6FB80E700BFF0F00008C8F0000803
:101D3000E0F00008B0F00008A0F0000870F0000823
:101D400088F0000864F00008FCE3000848F0000890
:101D50004CF0000810B5D0F88440012001F034FFA9
:101D6000002001F031FF4EF6F051CEF20001204686
:101D7000FEF7F2FC4EF60C5104222046CEF2000192
:101D8000C0F2FA52FEF77AFA4EF6F0512046CEF241
:101D90000001FEF7E1FC8201F6D44EF630512046F8
:101DA000CEF200011F22BDE81040FEF767BA00BF67
:101DB0002DE9F043D0F884405D4EA26983B0884697
:101DC00042F01202002181462046FEF725FA4EF627
:101DD000F0536068CEF200030093474604230121CC
:101DE00000228569A8472046182157F84C2BFEF79A
:101DF00013FA60684FF480310091454601210022BA
:101E00001423D0F818C0E04755F8042F60680092FA
:101E1000012100221823D0F818C0E04756F8043FEB
:101E2000606843F480310091D0F818C0012100228D
:101E30001423E04755F8042F606800920121002226
:101E40001823D0F818C0E04756F8043F606843F400
:101E500080310091002201211423D0F818C0E047FE
:101E600055F8042F60680092012100221823D0F851
:101E700018C0E04756F8043F606843F48031009191
:101E8000002201211423D0F818C0E047BD42D1D16F
:101E9000D9F85C00810708F1500544D5254E08F1BA
:101EA000D4082F46606857F8042B009201210022C5
:101EB0001823D0F81890C8477368606843F48031DD
:101EC0000091002201211423D0F818C0E0476A686D
:101ED00060680092012100221823D0F818C0E04762
:101EE000B368606843F4803100910022012114231B
:101EF000D0F818C0E0477F68606800970121002291
:101F000018238769B84706F1040956F80C2F606852
:101F100042F4803300930121002214230C35876999
:101F2000B8474545BDD1002003B0BDE8F08300BFF0
:101F300014E4000860E400082DE9F043D0F8844080
:101F4000484EA26983B00F4642F01202002181463A
:101F50002046FEF761F94EF6F0536068CEF20003BA
:101F600000930121042300228569A847002220460E
:101F70001421FEF751F918216068FEF739F935464A
:101F8000386055F8041F6068009100220121142375
:101F9000D0F818C0E04760681821FEF729F906F16B
:101FA0004C083E4646F8040F55F8042F606800922E
:101FB000142300220121D0F818C0E04718216068DE
:101FC000FEF716F946F8040F55F8043F60680093D1
:101FD000012100221423D0F818C0E04718216068BE
:101FE000FEF706F9454546F8040FDDD1D9F85C0047
:101FF000800707F1500531D51B4E07F1D4087768EB
:10200000606800970022142301218769B8471821CE
:102010006068FEF7EDF82F46002247F8040BB16820
:102020006068009114230121D0F818C0E0471821FE
:102030006068FEF7DDF8686056F80C2F6068009263
:10204000012100221423D0F818C0E047182160684D
:10205000FEF7CEF80C3545457860D0D1002003B0AE
:10206000BDE8F08314E4000860E400082DE9F84FAF
:102070000446D0F88470C368DFF8F491FD6998478E
:102080002046E16B884799F8000000286BD1226C4C
:1020900020469047002866D1022002F041FD99F8C1
:1020A0000030002B5FD1216C2046884700285AD190
:1020B000022002F035FD99F80000002853D1226C6F
:1020C0002046904700284ED1022002F029FD99F8C1
:1020D0000030002B47D1216C20468847002842D190
:1020E000022002F01DFD99F8000000283BD1226C6F
:1020F00020469047002836D1022002F011FD99F8C1
:1021000000304E46002B2ED1216C2046884750BB14
:10211000022002F005FD99F8000020BB226C204649
:10212000904700BB022002F0FBFC99F80030D3B9C5
:10213000216C20468847B0B9022002F0F1FC99F8E2
:10214000000080B9226C2046904760B9022002F05E
:10215000E7FC99F8003033B9216C2046884710B964
:102160000020BDE8F88F4EF6FC51CEF200016A6CFB
:102170003846FEF783F84EF630511F223846CEF22D
:102180000001FEF77BF806204FF400512864CEF2E0
:1021900000013846FEF7E0FA2A6CC0F303139342BD
:1021A00059D304204FF480516862CEF200013846C2
:1021B000FEF7D2FA696A2B6C020F8A4288BF6A6204
:1021C000BBB142F2080A4FF00008CEF2000A2E46D8
:1021D000C5EB0A0AC3460AEB060138460022FEF7A1
:1021E0004DF8C6F828B0286C08F1010804364045BF
:1021F000F1D8696AA1B141F228080026CEF20008A0
:10220000B246002241463846FEF738F805EBC602D2
:10221000013682F808A06B6AB34208F11008F0D8C2
:102220004FF400513846CEF200010322FEF726F8A3
:102230000A490B4AA164E2640A4B0B490B4A99F81C
:10224000000023656165A26510B1002001F0BCFCAF
:102250000120BDE8F88F2B64A3E700BF59150008E3
:10226000D9140008B9180008BD1300085118000857
:10227000F51100202DE9F041D0F88440E5690D22E8
:10228000012380462878CAF25F02CAF25F03002960
:1022900014BF17461F4688420E4609D04EF6F0512D
:1022A0002046CEF2000147F00202FDF7E7FF2E7054
:1022B000697861B94EF6F0512046CEF200013A46F7
:1022C000FDF7DCFF636801201872BDE8F081D8F8E3
:1022D00084504EF6F4510F222846CEF20001FDF74D
:1022E000CDFF4EF6F8512846CEF20001FEF734FA43
:1022F000054629462046FEF717FA00F47F42B2F55C
:102300003E4FD7D14046A91CFFF70EF8D2E700BFD9
:10231000F8B5464D464B8560464F474D4360474BA9
:1023200087624563464F474DC362474B474A8763C1
:102330000564474E474F484DC3630446502303622C
:1023400042674764056706F57471466204F04AF80F
:10235000D4F884504EF68851CEF200012846FEF79C
:10236000FBF94EF6885140F47007CEF20001284682
:102370003A46FDF783FF4EF688512846CEF200011B
:10238000FEF7EAF9B84246D00120542105F0F4FDE9
:1023900040F201420346E8613048C0F20012286270
:1023A00020465A6403F06EF908B10120F8BDE168D7
:1023B00020468847204603F003FC0028F5D1E36857
:1023C00020469847204603F071FD0028EDD1E268D1
:1023D00020469047204602F03FF80028E5D1E1680A
:1023E00020468847204602F007FB0028DDD1E3683D
:1023F00020469847204602F0C1FE0028D5D1E26869
:1024000020469047204601F0CFFE0028CDD1E1685C
:1024100020468847C9E7E26D206A42F00201843015
:1024200006F57A76E16520626662ADE75913000829
:102430006D200008391F000829130008B11D00088D
:10244000551D0008211A000809130008000000208B
:10245000E8E4000875220008BD190008298000087A
:1024600043F208032DE9F043C4F2020316461A684A
:10247000032E42F001041C6083B004460D4649DD82
:102480004FF44058043E01A92A4604230769C4F2C8
:102490000208C6F38009B847002835D101980435F1
:1024A00001BA032EC8F8001034DDB9F1000F1DD0B9
:1024B0002769204601A92A460423B84720BB019B6F
:1024C000043E1ABA0435032EC8F800200EDC21E0C1
:1024D0000198276900BAC8F800002046B84798B9A3
:1024E0000199032E0BBAC8F8003013DD2F1D2A46C0
:1024F00001A9042325692046A847042301A93A46D7
:10250000083EFD180028E3D04FF0FF37384603B0EF
:10251000BDE8F0834FF44052C4F20202F30717689B
:1025200006EB050854D44545F0D02A460123A66998
:10253000204601A9ED18B0470028E5D1019E97EA91
:10254000066271D45100002977DB4A00002A7DDB46
:1025500051000029C0F284804A00002AC0F28A801B
:102560005600002EC0F290807200002AC0F29680C1
:102570005600002EC0F29C807700A669204601A973
:102580002A460123B0470028BED1019A97EA02608B
:1025900000F19F804700002FC0F2A5807A00002A3A
:1025A000C0F2AB8051000029C0F2B1804800002881
:1025B000C0F2B7804300002BC0F2BD805800002855
:1025C000C0F2C3804200002A7ADB57000135AAE737
:1025D0002A460123A669204601A9ED18B047002824
:1025E00092D1019897EA006700F1B780790000293D
:1025F000C0F2BD8048000028C0F2C3804300002B19
:10260000C0F2C98058000028C0F2CF804700002FD8
:10261000C0F2D58078000028C0F2DB804200002A9A
:10262000C0F2E18057007EE741F6B7505700C0F294
:10263000C14087EA0001002987DA41F6B7564B000E
:10264000C0F2C14683EA0602002A81DA41F6B75099
:102650005700C0F2C14087EA00010029BFF67CAFF5
:1026600041F6B7564B00C0F2C14683EA0602002A83
:10267000BFF676AF41F6B7505700C0F2C14087EAC7
:102680000006002EBFF670AF41F6B7517300C0F2DE
:10269000C14183EA0102002ABFF66AAF41F6B75092
:1026A0005700C0F2C14087EA0006002EBFF664AFB3
:1026B00041F6B7517300C0F2C14183EA01075CE7FC
:1026C00041F6B7515300C0F2C14183EA0107013519
:1026D00029E741F6B7514300C0F2C14183EA01073F
:1026E000002FBFF65BAF41F6B7507F00C0F2C1408C
:1026F00087EA0002002ABFF655AF41F6B7535200F1
:10270000C0F2C14382EA03010029BFF64FAF41F690
:10271000B7574900C0F2C14781EA07000028BFF659
:1027200049AF41F6B7574200C0F2C14782EA0703FA
:10273000002BBFF643AF41F6B7515B00C0F2C14179
:1027400083EA01000028BFF63DAF41F6B7574000CD
:10275000C0F2C14780EA070235E741F6B7537A0075
:10276000C0F2C14382EA03010029BFF643AF41F63C
:10277000B7574900C0F2C14781EA07000028BFF6F9
:102780003DAF41F6B7574200C0F2C14782EA0703A6
:10279000002BBFF637AF41F6B7515B00C0F2C14125
:1027A00083EA01000028BFF631AF41F6B75142007D
:1027B000C0F2C14182EA0107002FBFF62BAF41F6FC
:1027C000B7517B00C0F2C14183EA01000028BFF687
:1027D00025AF41F6B7574000C0F2C14780EA070273
:1027E000002ABFF61FAF41F6B7515300C0F2C141F6
:1027F00083EA010797E600BF70B5114C2368E21821
:1028000001331071236011B9402B00D070BD03F06B
:10281000EDFE012802D00021216070BD03F0ECFE26
:102820000028F8D0074E064D3068238801212A1D64
:1028300004F014FD0028F6D000202860E6E700BF71
:1028400034090020F811002038B501210B4C0A464C
:10285000054604F01BFD04F14402284601214023F3
:1028600004F002FD0246C4F8840000B138BD2846D9
:102870000121BDE8384004F009BD00BF3409002043
:102880002DE9F8431E4DDFF880902F464FF00008E9
:10289000D5F8CC30D5F8C8201949934224D303F099
:1028A000ABFE48B303F0A2FE01280446FAD1D5F8E6
:1028B0008460002EECD013483246A0F1440105F0AC
:1028C00069FE00222146D9F80000C7F8C860C7F8A1
:1028D0008480C7F8CC8004F0D9FCD5F8CC30D5F88A
:1028E000C82007499342DAD2C818013390F888000B
:1028F000C1F8CC30BDE8F8830420BDE8F88300BF00
:1029000034090020BC090020F81100202DE9F0470F
:10291000254D264FD5F8CC10D5F8C82048F21F53C6
:10292000C5F2EB1383FB0043C017C0EB6314914265
:102930003C6003D2BDE8F047FFF7A2BFDFF874A008
:10294000A8464FF0000903F057FE18B303F04EFEFF
:1029500001280446FAD1D5F8846046B93968D5F81B
:10296000CC20D1B1D5F8C8008242ECD2E2E71048C1
:102970003246A0F1440105F00DFEDAF80000C8F877
:10298000C86021460022C8F88490C8F8CC9004F0B2
:102990007DFCE3E70420BDE8F087D5F8C8309A4213
:1029A000C8D3FF20BDE8F08734090020941100202F
:1029B000BC090020F8110020074B1A68824207D09A
:1029C0005B68834200D07047034A00205060704724
:1029D00000211960F4E700BF040A0020F0B583B0BD
:1029E00000AF3B1D04463A4608461C4905F056FF19
:1029F000022806D1204606F0B9F83B68984208D86C
:102A000027D01748032100F0CDFC07F10C07BD4685
:102A1000F0BD7D6805F1090222F007006E46ADEBBE
:102A2000000D6846E4186D212A4600F8011B214676
:102A300006F05CF9204606F099F803469D4288BFEF
:102A40001D46684688BF7B60691C00F0ABFCB5463C
:102A5000DBE70448012100F0A5FCD6E794F200086A
:102A600058F100085CF100082DE9F0434C4C4D4949
:102A700083B0064600AF062204F1080006F0A6F86F
:102A8000054650B304F1080047490A2206F09EF8B3
:102A9000002845D004F108004449172206F096F8B2
:102AA00048B92068002871D0406E00285DD04049A8
:102AB000FFF794FF39E004F108003E491F2206F0B9
:102AC00085F800283BD12068002846D0406A0028BD
:102AD0004BD03949FFF782FF27E0063E06EBD67060
:102AE000461006F10F0323F00701ADEB010D6A4616
:102AF0004FEAD2094FEAC90804F10E0132464046B6
:102B000000F0A0FD06F8395020684146FEF786FB2C
:102B100000281DDB0ED12948022100F043FC04E00F
:102B200027484FF4806100F0F3FC07F10C07BD4625
:102B3000BDE8F0832348012100F034FCF5E73B1D9C
:102B400004F1080020493A4605F0A8FE022811D0F9
:102B50001E48002100F026FCE7E7606828B11C4908
:102B600003F05AFC20600028B0D11A48032100F07D
:102B700019FCDAE720680028F7D097E80600FFF78D
:102B80006FFC0146144800F0C3FCCEE760680028E3
:102B9000EBD00F4903F040FC2060002884D1E4E72B
:102BA000040A002060F1000870F10008B8F1000884
:102BB000230A0020D0F100082B0A002068F1000849
:102BC0007CF100086CF10008F0F1000804E2000854
:102BD000B929000858F1000804F200082DE9F04F67
:102BE0008BB0964C02AF002240F61845FA60BA60EE
:102BF000C4F202054FF40058A346C5F8008090487F
:102C0000C5F800804FF4806100F07AFB4FF000536C
:102C10002B608C4E2B6094F808E0814606F1010A87
:102C2000AEF10400762800F2D780DFE810F0F6005D
:102C3000D500D500D500D500D500D500D500D500EC
:102C4000D500D500D500D500D500D500D500D500DC
:102C5000D500D500D500D500D500D500D500D500CC
:102C6000D500D500D500D500D000D500D500D500C1
:102C7000D500D500D500D500D500D500D500D500AC
:102C8000D500D500D500D500D500D500D500D5009C
:102C9000D500D500D500D500D500D500D500D5008C
:102CA000D500D5008900D500D500D500D500F600A7
:102CB000D50030027601D500D500D500D500D5006D
:102CC0004001D500D500D500D5003901D500D5008B
:102CD000D500D500D5000902D500D601D500D50014
:102CE000D500D500D500D500D500D5007900D50098
:102CF000D500D5001B01D500D500D500BF01D500FA
:102D00009001D500D500D500D20139017700D5005A
:102D1000D500DA00D500D500D500D6010126BE6069
:102D20002068002800F02D8241F2F419B968466C41
:102D3000C2F20009B0470120002189F80000B96003
:102D40002068002800F06C829BF80860FE6007E0B5
:102D5000FFF7DCFD0338C6B2012E206840F2BC81CB
:102D6000026C9047061EF3D041F2F411C2F200014A
:102D70004FF000030B70FFF640AF2068826D2AB160
:102D800007F11C019047002840F0B8812E483146D9
:102D900000F0BEFB31E72A482C4907F1140207F185
:102DA0001C0305F07BFD022840F07182DBF8000077
:102DB000002800F0B9819BF80814002900F08182F6
:102DC000866E7969FA69B047002840F0AD812048E5
:102DD000022100F0E7FA10E71E48002100F0E2FAB5
:102DE0000BE717481C4907F1140205F057FD0128AD
:102DF00000F0DC811248194905F0CAFD0028CAD14B
:102E0000DBF80010002900F0278208468B6B9847FA
:102E10001348032100F0C6FAEFE62068002800F00E
:102E2000888182689047DBF80010616000260848BE
:102E30002660022100F0B6FADFE600BF040A002097
:102E40000C0A00200D0A002044F2000888F2000855
:102E500068F1000804E200086CF2000880F2000843
:102E60007CF200082068E946002800F04281016AEF
:102E7000826ACE1D26F00703ADEB030D02AE31468C
:102E80009047DBF80010AC480A6A314600F092FB2C
:102E9000DBF80020136A590000F084FACD46ACE656
:102EA0002068002800F06081826B9047A5E62068CA
:102EB000E946002800F01D8107F1180300939F499F
:102EC0009D4807F1140207F11C0305F0E7FCFA69BD
:102ED000BB69DFF864C2D11D21F00706ADEB060D1A
:102EE00002AE0CEB0301304600F0ACFB7969FB69E4
:102EF000880702D19A0700F0988120683246D0F8FE
:102F00001CA0D0472068C2689047002840F0EC80A1
:102F10008B48022100F046FAC0E72068E946002805
:102F200000F0E780026A8749D61D26F00703ADEB63
:102F3000030D02AE304600F085FBDBF800003146A1
:102F4000C26A90477E48022100F02CFAA6E7226868
:102F5000E946002A00F0CD807B49774807F114024A
:102F600007F11C0305F09AFCFB697A69D91D21F071
:102F70000700ADEB000D900702AE02D1990700F0FB
:102F8000648120683146D0F818C0E0472068C368E3
:102F90009847002840F0A8803146FA69664800F05A
:102FA00009FBFA69510000F0FDF977E72168002973
:102FB0003FF423AE08468E6BB047DBF80000836811
:102FC0009847DBF800000022CBF80400CBF8002083
:102FD00013E64846FFF748FD0FE62268002A00F096
:102FE000A3809BF8096059485949303EBEF15A0EFA
:102FF000DEF1000C07F11C0207F118035CEB0E0A6E
:1030000005F04CFC012E00F0C180FFF6E5AE042E69
:103010003FF7E2AEDBF80000D0F85090B9F1000FB6
:103020003FF4DAAEBAF1000F00F02281F1B2FA6992
:103030003B7EC84730BB4248022100F0B3F9DCE5D3
:103040002068002870D007F11801009107F11C03D7
:103050004049394807F1140205F020FC7969FB6901
:10306000880702D19A0700F0E7802068BA69DFF884
:10307000C8E0C6697244B0472068C3689847002812
:103080003FF4A5AE3448032100F08CF9B5E5607A31
:10309000324907F11C03009307F110022D2814BFD9
:1030A0003046504607F1180305F0F8FB627A39699B
:1030B0002D2A844600F0B1802068BA69036FC7F8F2
:1030C00004C09847D7F804C0BCF1030F00F09C80FF
:1030D000F86820728646A3E5C36B4FF073099847E2
:1030E0002068C7F80C903BE61B48032100F05AF912
:1030F000D4E61B48032100F055F9CFE61948FA69D8
:10310000314600F005FA78E5BA69DBF80000C2EB59
:103110000903FB6140B1DFF820E0C66E79697244B3
:10312000B04700283FF453AE0D48032100F03AF9B0
:1031300063E5014679E600BF0C0A00201CF2000896
:1031400068F100080D0A00200CF200080E0A0020A9
:10315000C4F200085CF2000858F100084CF20008C4
:10316000B4DF000830F20008DBF8040000283FF468
:1031700044AD5B4903F050F9CBF80000866BB047D3
:103180003BE55848032100F00DF936E5DBF8000077
:10319000836C002B3FF420AEBAF1000F00D1C36C5A
:1031A000F969984700287FF46DAF44E740F648700E
:1031B000C2F200000068002800F08B807E69012EBA
:1031C0001AD0D0F8800006F001020221002859D060
:1031D000B14211D022B1D0F88000032150B951E0A2
:1031E000D0F880004B1C00284CD0D0F88000591C2F
:1031F000002847D0B142F3D1394903F00DF92060DE
:1032000000287FF405AE3DE7397F43297FF460AFA6
:103210003548614600F0C6F8EFE4494239614BE7B2
:103220003248032100F0BEF8E7E4DBF80000324644
:10323000D0F814C0E04765E6DBF80000BA69DFF8B3
:10324000B0A046695244B04716E7DBF800003146AB
:10325000D0F810A0D04799E6DBF8040000283FF42E
:1032600011AF1F4903F0D8F80146CBF80000CDE5B7
:10327000D0F854C0FA693B7EF1B2E04700287FF4F1
:1032800001AFD8E6206800287FF4C2ADFAE61848FE
:10329000184907F1140207F1180305F0FFFA012895
:1032A0003FF432AF1248144905F072FB064600287D
:1032B0007FF492AD1148022100F074F88BF8086495
:1032C0009BE4836B98470122DBF800008BF808240D
:1032D00076E5DBF8000000287FF49AADD2E600BF67
:1032E000B9290008B0DF000858F200082CF20008E5
:1032F0000C0A0020A0F20008B8F2000868F10008EB
:103300002DE9F043054683B00F464FF00008FFF764
:10331000B7FA2428287006D00428F8D101242046C2
:1033200003B0BDE8F08300242646FFF7A9FA23285E
:103330000DD0BC420BD02428F5D07D281FD02855B5
:103340003618FFF79DFA01342328F6B2F1D1FFF7C2
:1033500097FA8DF80400FFF793FA4FF000098DF803
:1033600005001022494601A88DF8068005F01AFED6
:1033700086420FD02D200121FFF73EFAC7E7FFF765
:103380007FFA7D3650FA86F180F020002855CEB2C3
:103390000134CAE72B200121FFF72EFA05F804902B
:1033A000BDE700BF2DE9F04F804683B08A464FF05D
:1033B0000409471824200021FFF71EFABAF1000F74
:1033C00040F3A28044466FEA080514F8016BA6F1A9
:1033D0002303E819012B00F0010579D97D2E77D060
:1033E00030460021FFF708FAF6B2BC4235D085B16D
:1033F00098F80150A5F123010134012975D97D2DDB
:1034000073D028460021FFF7F7F9AA19D6B2BC42BB
:1034100023D014F8015BA5F123037D200021012BAB
:1034200085F0200B48D9854246D028460021FFF779
:10343000E3F9A8195FFA80FB14F8016BA6F12302E7
:103440000021012A28D97D2E26D03046FFF7D4F955
:1034500006EB0B01BC42CEB2DBD100212320FFF7EB
:10346000CBF93246294901A805F0F0F900219DF871
:103470000400FFF7C1F901219DF80500FFF7BCF931
:103480004FF4FA60FFF742FA2B2802D0B9F1010994
:1034900090D103B0BDE8F08F86F020067D2000219A
:1034A000FFF7AAF90BF17D0B30460021FFF7A4F9D5
:1034B00056FA8BF3DEB2AAE77D36FFF79DF95BFA89
:1034C00086F658460021FFF797F95FFA86FBB3E7C7
:1034D0007D20002186F02006FFF78EF9304600217E
:1034E0007D36FFF789F9F6B27FE77D20002185F070
:1034F00020057D36FFF780F92846002155FA86F52C
:10350000FFF77AF9EEB282E70026A6E7D0F20008CC
:103510000FB400B583B004AB01A853F8041B1A46DE
:10352000009307F075FC01460198FFF73BFF0198F7
:1035300004F07AFD03B05DF804EB04B0704700BFFF
:103540002DE9F04100AF054605F010FB410001F107
:10355000100323F00700ADEB000D6C464F22284608
:1035600004F8012B01F1010805F000FB2946024691
:10357000204600F01FF8684641466E46FFF712FFEE
:10358000BD46BDE8F08100BF0FB400B583B004AB09
:1035900001A853F8041B1A46009307F039FC019860
:1035A000FFF7CEFF019804F03FFD03B05DF804EB98
:1035B00004B07047F0B4002A3FD00B78204C1D09AE
:1035C00000EB4202665D067011F8013B03F00F0646
:1035D000151AA65D831C023D9A424670C5F340054C
:1035E00027D065B10D782D09655D1D7011F8015B5F
:1035F00005F00F05655D5D7002339A4219D00F78B2
:103600003E090D46A75D1F7015F8016B06F00F0708
:103610009E1CE75D5F7049780F092946E55D9D7046
:1036200011F8015B05F00F050433655D9A42757072
:10363000E5D100231370F0BC70470246F9E700BFE4
:10364000D8F2000870B4002A7BD011F8024BA4F124
:103650003003C6438218DBB29519092B05F0010629
:1036600007D9A4F13703DBB2102B84BFA4F15703B1
:10367000DBB21C01E5B200F8015B11F8014CA4F1CA
:103680003003DBB2092B5ED82B430231904200F8A5
:10369000013C55D0FEB111F8025CA5F13004E4B252
:1036A000092C44D82501ECB200F8014B11F8015C5B
:1036B000A5F13003DBB2092B07D9A5F13703DBB243
:1036C000102B84BFA5F15703DBB223430231904294
:1036D00000F8013C34D011F8024CA4F13005EDB2F1
:1036E000092D07D9A4F13703DDB2102D84BFA4F151
:1036F0005705EDB22C01E4B200F8014B11F8015C62
:10370000A5F13003DBB2092B07D9A5F13703DBB2F2
:10371000102B84BFA5F15703DBB2234300F8013C13
:1037200011F8025BA5F13004E4B2092CBAD9A5F175
:103730003703DCB2102C84BFA5F15704E4B2B1E723
:10374000104670BC7047A4F13703DBB2102B84BF66
:10375000A4F15703DBB297E72DE9F04FB74FB84E0E
:1037600083B00025044602F017FE29467822384629
:10377000356004F0B1FF00F0F3FA00F0CBFA002C52
:1037800000F042810421032000F052FA316805293B
:1037900038DC01EB810207EB82008378102B31D8F3
:1037A0002378002B2ED00134B8461BE0336814F880
:1037B000010C03EB830107EB810207F82130D57080
:1037C0009070013314F8010C336003EB8301052B77
:1037D00008EB8102054415DC9078102812D814F803
:1037E000013B7BB1002101A8964A00F0FBFA019948
:1037F000CB07DBD44FF0FF3003B0BDE8F08F0529D5
:1038000000F3FE800120014600F0E0F901200221D2
:1038100000F00EFA0120032100F00AFA8A4D00247C
:1038200007E09C4200F3EC80581E011B05F8141CB5
:1038300001340020012100F0C9F914353368002853
:10384000EFD09C4240F0DC80012001467C4C00F02F
:10385000BDF90120022100F0EBF92468002C00F0F2
:103860002981012C31D004EB840107EB81027748D8
:1038700012F8103C12F8124C111AE418A2F11403B9
:103880001439834202F8244CC1F380011DD051B198
:1038900013F8124C13F8101C611803F8241CA2F141
:1038A0002803834211D013F8124C13F8101C61182E
:1038B00013F8264C03F8241CA3F11402283B54FAF5
:1038C00081F1834202F8241CEDD100F023FA01209B
:1038D000032100F0ADF9306800283DDDDFF85C9190
:1038E0004FF0000A4FF0010B0020012100F06EF9AB
:1038F00058B300200121C9F808B000F067F928B1D9
:10390000D9F8085045F00203C9F8083004251E24F0
:103910000121002000F05AF9012105FA01F8013CCB
:1039200028B1D9F8082042EA0500C9F808000020AB
:1039300000F04CF928B1D9F8081041EA0805C9F897
:103940000850013C4FEA4805E2D133680AF1010A08
:10395000534509F11409C7DC0120014600F036F98E
:103960000120022100F064F93268002A26DD40F2CD
:10397000774BDFF8C890DFF8CC804FF0000AC0F634
:10398000A03B4FF0FF35D9F808E02EF0F020584565
:103990001ED02F4B002104E060690EEA0000824235
:1039A00017D01A691C4601311033002AF4D131684E
:1039B0000AF1010A514509F11409E4DC254B1A68A2
:1039C000002A7DD00020014601F018F9306813E785
:1039D000002108EB0111C9F810504B698A69C9F838
:1039E0000C30002AE3D00AEB8A0007EB80009047F6
:1039F00031680AF1010A514509F11409C3DCDDE718
:103A00004FF0FF303060F7E60421032000F010F99A
:103A10002046012100F0DAF80028F1D033680124B3
:103A2000052BBC70ECDC03EB830007EB80018A788C
:103A3000102AE5D8A146B0463D462CE018110020DA
:103A400014110020ECF20008191100202C110020A4
:103A5000F8F20008480F0020316801EB810307EB02
:103A600083024B1C90789A00012802EB03003FF47C
:103A7000C6AE05EB800105F82030C8F8003081F8AB
:103A80000290CC70D2180134052B07EB8200B7DC12
:103A90008378102BB4D80121002000F097F800287B
:103AA000DAD133689A00D01807EB800188780130AA
:103AB0008870E7E70548012101F0A0F820469BE661
:103AC0000248012101F09AF880E700BFC8DF000832
:103AD00070B5036982B08B4204460E4601913AD01C
:103AE0001E48016800291ADD1D4D01EB810205EB1E
:103AF0008200411B05F1140314394FF0FF32834259
:103B00002A61C1F380010AD021B11A6105F12803AD
:103B1000834204D01A615A6228338342FAD10320C7
:103B20000421266100F084F80020E2780D4900F0BD
:103B300027FA2079A278D0F1010038BF002001A92E
:103B400000F01EFA01200749227900F019FA01203D
:103B5000022100F06DF802B070BD00BF141100200A
:103B600018110020ECF20008F8B504460D460120BB
:103B7000032116461F4600F05BF800201149227809
:103B800000F0FEF9A5B16178D1F10101284638BFF6
:103B9000002132463B4600F025F9012009496278B0
:103BA00000F0EEF901200221BDE8F84000F040B835
:103BB0006078D0F10100314638BF00203A4600F06D
:103BC000DFF9EAE7ECF20008704700BF40F618039F
:103BD000C4F20203F0B110201860186040F6180318
:103BE000C4F2020301BB4FF480211960196040F652
:103BF0001803C4F202034FF401602021C4F2020052
:103C00001960196000684FF400121A60C0F3801048
:103C10001A6070474FF480121A601A6040F6180359
:103C2000C4F202030029DED004221A601A60DEE723
:103C30002DE9F0034D1E002964D040F618034FF41F
:103C4000016604242021C707C4F202034FF0100CC0
:103C50004FF48018C4F202064FF4001205F0010977
:103C600053D4C3F80080C3F800801C601C60196046
:103C7000196037681A6040081A606F1E002D41D025
:103C8000B9F1000F24D0C5074BBFC3F800C0C3F87B
:103C90000080C3F800C0C3F80080013F1C604008EA
:103CA0001C60B7F1FF3F1960196035681A601A602F
:103CB0000ED127E0C3F800C0C3F800C01C601C6030
:103CC0001960196037681A6040081A606F1ECDB11C
:103CD000C5074BBFC3F800C0C3F80080C3F800C0DD
:103CE000C3F800801C6040081C60196019603568CA
:103CF0001A607D1EC7071A60DCD4C3F80080C3F8C1
:103D00000080DBE7BDE8F0037047C3F800C0C3F8EC
:103D100000C0AAE700B540F6180383B0C4F202035E
:103D20004FF4003200201A601A600190019942F2AB
:103D30000F72914206DC00BF019B581C0190019953
:103D40009142F8DD40F61803C4F2020302221A6021
:103D50001F201A600621FFF76BFF03B000BD00BFF4
:103D60004FF40060F8B5C4F20200012100221023D4
:103D700003F0A0F840F618034FF401603326C4F2B4
:103D8000020310254FF480242021C4F202004FF4D6
:103D900000121D601D601C601C60196019600768BE
:103DA0001A601A601D601D601C601C60196019603B
:103DB00007681A60033E1A601D601D601C601C606D
:103DC0001960196007681A601A60E2D110214EF27A
:103DD0003C70FFF72DFF1F200621FFF729FF30461B
:103DE000F8BD00BF2DE9F00F82B040F618044FF483
:103DF000016C019120250121DF07C4F202044FF478
:103E000080194FF0100A4FF480284FF0040BC4F2D1
:103E1000020C4FF4001621D51178013B01F001018D
:103E200000F09880C4F80090C4F80090002940F099
:103E30009C80C4F80080C4F8008025602560DCF810
:103E40000010266001F04007B9B22660002940F05A
:103E50009180077807F0FE01017002215F1E002BA0
:103E600050D013780B400093002F67D1019B002B9B
:103E700064D0009BC4F800A0C4F800A0002B64D15B
:103E8000C4F80080C4F8008025602560DCF80030AC
:103E9000266003F040039BB22660002B49D00378D4
:103EA0000B430370490011F0FF0102D101320130D0
:103EB00001217B1E177807EA010700972AD0009F8F
:103EC000C4F80090C4F80090002F2DD1C4F80080F1
:103ED000C4F8008025602560DCF80070266007F0DB
:103EE0004007BFB226608FB9077827EA010707703D
:103EF000490011F0FF01B1D10132013001215F1EF3
:103F0000002BAED102B0BDE8F00F704707780F4329
:103F10000770EDE7019F002FD1D0009FC4F800A0EB
:103F2000C4F800A0002FD1D0C4F800B0C4F800B08D
:103F3000D0E7037823EA01030370B3E7009BC4F8DA
:103F40000090C4F80090002B9AD0C4F800B0C4F8D8
:103F500000B099E7019F002F3FF464AFC4F800A0C0
:103F6000C4F800A000293FF464AFC4F800B0C4F85E
:103F700000B062E7077847F00101017002216DE7A8
:103F80002DE9F00F40F618034FF4016C01272025AE
:103F9000D6078246C4F202034FF480184FF010098E
:103FA0004FF480204FF0040BC4F2020C4FF40014C5
:103FB00013D50E78013A06F0010763D0C3F80080EC
:103FC000C3F80080002F66D1186018601D601D6066
:103FD000DCF800601C6002271C60561E002A35D0E9
:103FE0000A783A40002E42D1BAF1000F3FD0C3F810
:103FF0000090C3F80090002A3FD1186018607F003D
:104000001D6017F0FF071D60DCF800201C601C60BD
:1040100001D101310127721E0E7806EA070618D079
:10402000C3F80080C3F80080E6B9186018607F000C
:104030001D6017F0FF071D60DCF800601C601C604D
:10404000CBD101310127561E002AC9D1BDE8F00F9E
:104050007047BAF1000FE3D0C3F80090C3F80090A6
:10406000002EE2D0C3F800B0C3F800B0DFE7C3F819
:104070000080C3F80080002ABFD0C3F800B0C3F8A6
:1040800000B0BCE7BAF1000F98D0C3F80090C3F8B5
:104090000090002F98D0C3F800B0C3F800B095E7A7
:1040A0002DE9F04198464FEAA3039C00123424F016
:1040B000070500AFADEB050D0446009102A81146BF
:1040C0004246019304F066FA4FF000510F4A6669C8
:1040D00030232046B047302108F10803C2F2000126
:1040E0006A4665692046A8474FF00051626B20463A
:1040F0009047636C204600219847216C20468847F2
:104100000028FAD00020BD46BDE8F0811000002054
:104110002DE9F043D0F8845022F47F77522283B007
:1041200021F47F7828460021CAF20022FCF774F8B7
:104130004FF450436868C4F20F03009327F003075D
:10414000846901210022042328F00308A04737B323
:104150004FF00209CAF24249002628461021424681
:10416000FCF75AF86868CDF8009001210022082376
:104170008469A04768680096012184690A4608237B
:10418000A047686800960121082384690A46A04771
:104190008307F6D4B7F5806708F58068DDD1002085
:1041A00003B0BDE8F08300BF4EF2040110B5C4F2C5
:1041B0000F010446D0F88400FCF7CEFA41F249031F
:1041C000B3EB104F01D0002010BD05480549064A49
:1041D000606718306066A166E266012010BD00BF0E
:1041E00000F6000811410008A1400008026A2DE90C
:1041F000F041002AB8BF03320B4622F00301044607
:104200000A31234866694FF43E4E21F007054FF00E
:10421000000800AF0246ADEB050DA0F800E04FF03E
:104220008051A0F802802046B0476946A36A204624
:10423000984718264FF0040C4FF4FC60012241F619
:10424000F173C1F20002C1F2000CC1F20000C1F62C
:10425000FF73C1F20006694611900E92CDF800C0BE
:1042600001960F93E56A2046A847626C20464146B6
:104270009047216C204688470028FAD025690449D8
:1042800020464FF080522823A847BD46BDE8F08164
:10429000100E00202DE9F843114C254600234E1E38
:1042A00045F8103BB218120B0E0B2B606361A36133
:1042B000E36123626362282132236360A660E260C7
:1042C000FFF794FFA06904F1140904F1180804F140
:1042D0002407002814BF4FF0FF300020BDE8F8830A
:1042E000100E00202DE9F04F9B464B1E03EB0B05F3
:1042F0000C0A85B02D0AC9B2AC4202940746924618
:10430000019179D82820029CDFF8F4903A46C1F256
:1043100000002F464FEA0428039015462FE051462F
:1043200036484FF4807204F035F9ABF5807B0AF51E
:10433000807A41464FF480722846FFF7ABFF013484
:104340004FF49471002852D1039BC9F8088033229E
:104350002846C9F80420C9F80C304FF4807242F6A0
:10436000E063C9F81020C9F81430FFF73FFFD9F80F
:10437000180008F58078002839D1A7423CD3029B69
:104380009C4201D0BC42CAD1FF214FF480721B482D
:1043900004F0A2F90199C1F5807608465E45A8BFF0
:1043A0005E46283051463246484404F0F3F8C6EBE6
:1043B0000B0BB244C4B9D9F82810D9F82C60D9F83D
:1043C0003030D9F83400D9F83C2001948E19F31814
:1043D000D9F8381018184318D9F840009A1811184D
:1043E0004B42C9F84430A4E700220192A1E74FF004
:1043F000FF3005B0BDE8F08F0020FAE7380E00204E
:10440000100E0020F8B50B051B0D0D46064617468D
:10441000EBB9FFF73FFFD0B9681E0E4CC719282132
:10442000342242F6E0633F0B2D0B30466260A560FC
:10443000E7602361FFF7DAFEA16941B93046352212
:1044400028216260FFF7D2FEA06900B9F8BD4FF0E5
:10445000FF30F8BD100E002048F2F43110B5C4F260
:1044600004010446D0F88400FCF776F941F22B03EE
:10447000C1F2314398421AD023D949F22B03C2F238
:104480002453984213D049F22B0136D9C2F232514B
:1044900088420CD067D941F22B01C2F240518842C8
:1044A00005D049F22B02C2F24052904223D1384843
:1044B000384B3949394A60676366A166E266012074
:1044C00010BD45F22B01C0F234418842EFD026D90D
:1044D00049F22B02C0F640229042E8D041F22B0371
:1044E00031D8C0F244439842E1D045F22B01C0F2EA
:1044F00044418842DBD0002010BDC1F640218842F3
:10450000D5D03DD949F22B03C2F216539842CED0F2
:104510004DF22B01C2F216518842ECD1C7E745F2A9
:104520002B02C0F21E429042C1D045F22B0315D996
:10453000C0F225439842BAD041F22B01C0F2344177
:104540008842D8D1B3E7C1F221439842AFD041F2BB
:104550002B02C1F230429042CDD1A8E7C0F21643FF
:104560009842C8D1A3E74DF22B02C2F224529042E6
:104570009DD041F22B03C2F232539842BBD196E751
:1045800041F22B02C1F240429042B4D18FE700BF0A
:10459000D0F70008F0F6000805440008E5420008DE
:1045A0004FF6FF7200F16643C0F20702934203D94F
:1045B00000F16543934209D8B3F5803F04D3A3F5D6
:1045C0008030000C08307047580B70474FF0FF30B8
:1045D000704700BF2DE9F04383B08846016A002987
:1045E000B8BF0331044621F003000A3000AF16467D
:1045F00020F007034FF48072ADEB030D391DC1F2BB
:104600004002042325692046A8474FF0000933469D
:104610004FF440414FF43E464246C2F20001A8F832
:104620000060A8F8029066692046B0476946A26A11
:10463000204690474CF21C067968E56A0F914CF2CF
:10464000040248464CF20103C2F20002C2F2010029
:10465000C2F20003C2F2000669468DE844001190E0
:104660000E932046A847626C204649469047216C2D
:10467000204688470028FAD04FF44042256920465A
:104680004146C2F200023023A84707F10C07BD469D
:10469000BDE8F08300B5ADF5815D85B031230193B0
:1046A0006946002330220793FFF794FF07980028FC
:1046B00014BF4FF0FF3000200DB00DF5805D00BD40
:1046C0002DE9F043ADF5815D85B005463226FFF753
:1046D000E1FF0E240023284669463022029304930A
:1046E000079301960394FFF775FF079B002B37D1C3
:1046F0004FF0340842F6E0672846694630220293BC
:104700000593CDF8048003940497FFF763FF079B9C
:10471000002B25D14FF0010928466946302202932B
:1047200001960394CDF81090FFF754FF079BBBB997
:10473000284669463022CDF80480029303940497FA
:10474000CDF814900793FFF745FF079840B9054847
:10475000FEF71AFF48460DB00DF5805DBDE8F08309
:104760000020F8E7ACFA000870B5ADF5815D84B0C3
:104770003223054608460C4616460193FFF710FF04
:1047800002903019FFF70CFF4FF6FF7104F16642FB
:10479000C0F207018A42039018D904F165448C42A3
:1047A0008CBF4FF0FF330123284604936946002352
:1047B00030220793FFF70EFF0798002814BF4FF031
:1047C000FF3000200CB00DF5805D70BD0023EBE7DD
:1047D0002DE9F043CB04ADF5815D0C46D90C85B0D5
:1047E0000546164600295AD1FFF754FF002856D136
:1047F000284621463246FFF7B7FF814600284ED1B2
:10480000342220460192FFF7CBFE0746301902976B
:10481000FFF7C6FE80464FF6FF7004F16646C0F211
:10482000070042F6E0638642CDF80C80049332D94B
:1048300004F1654981458CBF4FF0FF3301233022DD
:1048400005932846002369460793FFF7C3FE079A9E
:10485000002A24D14FF6FF70C0F2070035218642AE
:1048600001910297CDF80C8017D904F16544844278
:104870008CBF4FF0FF330123284604936946002381
:1048800030220793FFF7A6FE079840B90DB00DF54B
:10489000805DBDE8F0834B46D1E71346ECE74FF06F
:1048A000FF30F3E72DE9F04FADF5825D85B09A4614
:1048B0004B1E03EB0A060F054FEA113B0691310B25
:1048C0003F0D8B45039106469146049700F2928076
:1048D0004CF230004FF6FF72C2F20000C0F2070245
:1048E0004FEA0B385D4608AC0590079205E0039F40
:1048F0000135AF4208F580587CD35D4562D0039FF7
:10490000BD425FD0494614A84FF4805203F042FEE6
:10491000AAF5805A09F58059304641464FF4805235
:10492000FFF722FF8446002845D14CF23001C2F245
:10493000000114AA4FF48053CDF804C077693046C3
:10494000B84733236360059FC4F808804FF4805351
:10495000236103F5F7536361E760DDF804C0304677
:10496000214641F23002C4F81CC0FFF733FEE36970
:104970000BBB5D45BBD10699079F01F166403C2208
:10498000B842626008D9069F07F16543079FBB42A2
:104990008CBF4FF0FF330123A36042F6E063214652
:1049A000E3603046002341F23002E361FFF712FE7C
:1049B000E16900299BD04FF0FF3015B00DF5805D07
:1049C000BDE8F08FFF214FF4805214A803F084FE5D
:1049D000049BC3F580575745A8BF57463033494617
:1049E0003A46E018C7EB0A0AB944002703F0D2FDA3
:1049F000049791E70020E0E74FF4485138B5C4F23E
:104A000004010446D0F88400FBF7A6FE4FF46D4184
:104A10000546CEF20001D4F88400FBF79DFE2B235F
:104A2000C5F606139D421FD02B21C6F606118D42F6
:104A30001AD02B22C4F60612954201D0002038BDB0
:104A400020F47F014FF4424321F00F02C4F200131F
:104A50009A421ED04CF24021C4F200118A421FD06B
:104A60001B4B0120636738BD20F47F024FF44241A5
:104A700022F00F00C4F2001188420AD04CF2402309
:104A8000C4F2001398424FF0010006D0104A62674A
:104A900038BD104B0120636738BD0F49616738BDD1
:104AA0004CF24121C4F20F110B4A8842626701D0D7
:104AB000012038BD094B0A490A486166A066E366D1
:104AC000204601F52F71084A01F08CFC012038BD09
:104AD000E8FA0008D4FA0008B8FA0008A548000867
:104AE000D8F70008D1470008CCFA000808B500F054
:104AF000D1F848B941F29810C2F2000003F098FED4
:104B0000FEF76CF8002008BD0248034A034B2C2135
:104B100003F00AFA2CFB000824FB000834FB000811
:104B2000024A10601368002BFCD1704794110020DA
:104B300008B52D4B1878002846D12C490A6812B1C7
:104B40000B68581E08602A4B196800292CD01A7966
:104B5000002A2AD11A6812F8011B1A6049B9197A79
:104B600000293ED0234802681A60186810F8011B1B
:104B700018604139C9B219292FD81F4A02EB8100A8
:104B800032F82110807801F001021871490892B1C1
:104B900040F61842C4F202024FF4804010601060E8
:104BA0001A79D980511E197108BDD88800F0010208
:104BB0004108002AECD140F61842C4F202024FF03C
:104BC000804010601060EBE74FF44060C4F20200D8
:104BD0004FF4005102F06AF9AFE704221A71002184
:104BE000E9E7196008BD00BFF4110020941100200E
:104BF000380F0020901100204CFB000830B440F624
:104C0000387341F2901440F61842C2F20003C4F225
:104C10000202C2F200044FF0804518602060197251
:104C20001560156030BC70474FF6B430C0F6000018
:104C3000704700BF43F6300008B5C4F202000821F7
:104C400002F0A6F84FF44060C4F2020001210022F5
:104C50004FF4004302F02EF940F61843C4F2020369
:104C60004FF4004243F644001A60C4F202001A6096
:104C70004FF4804102F08CF84FF46050C4F2010010
:104C8000016821F003030360026842F00101016042
:104C900008BD00BF43F6300070B50121C4F2020028
:104CA00002F076F81023C4F202031C6814F0010429
:104CB0007AD13F4802F0B2F843F634008021C4F2C2
:104CC000020002F065F843F630000421C4F202004D
:104CD00002F05EF843F630000821C4F2020002F050
:104CE00057F843F63000C4F202004FF4805102F04E
:104CF0004FF800204FF4D05302212246C4F20200A4
:104D000040F6080502F0D6F8C4F2020500200A2198
:104D1000C4F202004FF4D05202F0EFF8296821F4F7
:104D200073622A602E684FF4006046F42266012107
:104D300022463423C4F202002E6002F0BBF84FF486
:104D40000060214622464023C4F2020002F0B2F87D
:104D50004FF44060012122464FF47043C4F2020038
:104D600002F0A8F8204602F07BFE4FF43260C0F259
:104D7000200002F06DFE4EF62350CEF200000378C4
:104D800003F00F010170027842F0E003037002F0BB
:104D900071FE02F077FE01F035FE01F033FC204693
:104DA000FEF7DAFC204670BDFFF744FF02F072FE0A
:104DB000F808010870B5D0F8845042F0B4420E46AD
:104DC00004460431284642EA0322FBF757FA083624
:104DD00031462846FBF7C0FC10F0010F204606D1F3
:104DE000E36898470028F3D04FF0FF3070BD2846A5
:104DF0003146FBF7B1FC00F0060070BD70B505460A
:104E00000E46406F1F49144603F0C2FDA0B92B6E39
:104E100003F47060B0F5106F17D0B0F5206F28D094
:104E2000B0F5E06F1DD0FCB1A6F500264FF4206070
:104E30002660C4F20E0070BDB4B1A6F580064FF432
:104E400020602660C4F20E0070BD4FF420218E4217
:104E5000E9D98CB1761A4FF460602660C4F20E0076
:104E600070BD4FF41021F2E74FF42060C4F20E0041
:104E700070BD4FF44021EAE74FF46060C4F20E00C9
:104E800070BD00BF10FE0008002170B50A4605463F
:104E9000D0F88460FFF7B2FF04460D2200232146BC
:104EA0002846FFF787FF04F10C013046FBF754FC5E
:104EB00001464FF61C60C0F60000FEF765FB0120BE
:104EC00070BD00BFF8B50C46002116460A460546DF
:104ED000FFF794FF032C074604D00D48FEF730FB84
:104EE0000020F8BD706803F043F80446B06803F092
:104EF0003FF8394600280CBF0C220B22A3B22846EB
:104F0000FFF758FF2846FFF7BFFF0120F8BD00BF9D
:104F10002CFE00082DE9F043C3B0174601AA054650
:104F20008946FFF76BFF019CFF214FF4807280469A
:104F300002A803F0D1FB6E692846494602AA4FF445
:104F40008073240AB047002F32D0A7F58077284617
:104F500041460322A3B2C7F30026FFF72BFF20BB75
:104F600001342FB396B1284641460322A3B2FFF77E
:104F700021FFD0B90134B7F5807707D118E0284672
:104F8000FFF718FF88B9B7F5807711D0A3B2414673
:104F900003222846FFF70EFF661C41460322B3B2E8
:104FA000A7F5807702340028E9D04FF0FF3000E009
:104FB000002043B0BDE8F0832DE9F04FC5B017469F
:104FC00003AA99460D460446FFF718FF039B5E1E91
:104FD000834606EB0900DAB24FEA132A060AAD1A35
:104FE000B2450392009500F2B180CAEB060505F0C8
:104FF0000103FF214FF4807204A8019303F06CFBBE
:105000000398C0F58078C145B8BFC84604AD424694
:105010003946281803F0BEFA002104AA4FF4807321
:105020000391656900992046A84720465946012208
:105030001FFA8AF3C8EB0909B844FFF7BBFE002842
:1050400040F088800AF10105AE427FD3019F07B38B
:10505000554500F08280B5427FD0414604A84FF408
:10506000807203F097FAA9F5807908F5807804AA90
:105070004FF48073009967692046B8472046594627
:105080000122ABB2FFF796FE002863D10135AE4294
:105090005CD355452AD0B54228D0414604A84FF4E8
:1050A000807203F077FAA9F5807908F5807804AA70
:1050B0004FF48073009967692046B84720465946E7
:1050C0000122ABB2FFF776FE002843D101355545EA
:1050D00024D0B54222D0414604A84FF4807203F098
:1050E00059FAA9F5807908F58078C0E7FF214FF4D7
:1050F000807204A803F0F0FA0399C1F58077B945EE
:10510000B8BF4F4604AA501841463A4603F042FA47
:105110000023C7EB0909B8440393C8E7FF214FF404
:10512000807204A803F0D8FA039804A9C0F5807728
:10513000B945B8BF4F46081841463A4603F02AFA27
:105140000020C7EB0909B844039090E7002045B060
:10515000BDE8F08F4FF0FF30F9E7FF214FF4807288
:1051600004A803F0B9FA039A04ABC2F58077B945F5
:10517000B8BF4F4641469818DFE700BF38B5D0F8B2
:1051800084504FF414610446C4F20E012846FBF724
:10519000E3FAE0236022C0F6F0730340C0F6500249
:1051A0009342206635D06020C0F66000834230D044
:1051B0006021C0F640018B422BD04FF4E8612846B5
:1051C000C4F20E01FBF7C8FAE0236022C0F6F073C8
:1051D0000340C0F64012934220660BD06020C0F618
:1051E0005010834206D06021C0F630118B4201D0AE
:1051F000002038BD0F4B1049104A11486166A26665
:10520000E0666367204624390E4A01F0EBF801207E
:1052100038BD0D4B0D49094A09486166A266E06632
:105220006367204601F58C71094A01F0DBF8012023
:1052300038BD00BF5CFE0008F8FC0008154F0008F0
:10524000B94F000868FE000810FE0008BCFB00080B
:1052500054FE000838B542F20404C4F2020440F2DD
:1052600023122146C4F267520546FBF707F848F6B9
:10527000AB1228462146CCF6EF52BDE83840FAF78B
:10528000FDBF00BF38B5D0F8845004462846FFF76C
:10529000E1FF42F210012846C4F202010422FAF7AB
:1052A000EDFF42F210012846C4F202014422FAF74F
:1052B000E5FF42F20C01C4F202012846FBF74CFA6A
:1052C00010F0010F204605D0E26890470028F0D08A
:1052D000002038BD42F20C012846C4F20201FBF75F
:1052E0003BFA00F03400B0F12003594251EB0300C7
:1052F00038BD00BF2DE9F843D0F88460C3F1000544
:10530000044605EA02073046984605EA0109FFF718
:10531000A1FF77B342F210013046C4F2020102222B
:10532000FAF7ACFF42F2140130464A46C4F20201D9
:10533000FAF7A4FF42F210013046C4F20201422201
:10534000FAF79CFF42F20C01C4F202013046FBF76F
:1053500003FA10F0010F204607D0E568A84700289F
:10536000F0D04FF0FF30BDE8F883B7EB0807C14439
:10537000D0D142F20C013046C4F20201FBF7ECF945
:1053800000F034002028ECD10020BDE8F88300BFF5
:105390004FF40063FFF7AEBF4FF48063FFF7AABF7F
:1053A000F8B5D0F884500F4642F210011646C4F208
:1053B00002014FF4047204462846FAF75FFF2846BC
:1053C00039463246FAF740FF42F20C01C4F20201BC
:1053D0002846FBF7C1F910F0010F204605D0E3681D
:1053E00098470028F0D00020F8BD0120F8BD00BF8C
:1053F000036E2DE9F0410546D0F88440A3F2224027
:105400001E280E46174608D8012101FA00F3C4F2FF
:1054100001011940002940F0888045F6A528204662
:10542000FFF718FF42F2080140F223122046C4F2AF
:105430000201C4F26752FAF721FF42F2080148F66E
:10544000AB122046C4F20201CCF6EF52FAF716FF77
:10545000022E7ED0032E6BD05748FEF771F85748C6
:10546000FEF76EF84FF478412046C1F6FF71FBF766
:1054700073F94FF47841054682B2C1F6FF71504886
:10548000FEF782F84FF602012A0CC1F6FF714C4874
:10549000FEF77AF84FF604012046C1F6FF71FBF7DC
:1054A0005BF94FF60401054682B2C1F6FF7144482C
:1054B000FEF76AF84FF606012A0CC1F6FF71404864
:1054C000FEF762F84FF608012046C1F6FF71FBF7C0
:1054D00043F94FF60801054682B2C1F6FF7138481C
:1054E000FEF752F84FF60A012A0CC1F6FF71344854
:1054F000FEF74AF84FF60C012046C1F6FF71FBF7A4
:105500002BF94FF60C01044682B2C1F6FF712C480C
:10551000FEF73AF84FF60E012948C1F6FF71220C4A
:10552000FEF732F80120BDE8F08145F2AA5876E78F
:1055300000210A46786803F035FD002106460A4638
:10554000B86803F02FFD314682B22846FFF728FFE6
:1055500088E778681B4903F01BFA00287FF47CAFCA
:10556000D5F8846042F210013046C4F202014FF4D3
:105570000872FAF783FE42F210013046C4F20201CB
:105580004FF41872FAF77AFE42F20C01C4F20201EB
:105590003046FBF7E1F810F0010F284603D0E96828
:1055A00088470028F0D04FF478412846C1F6FF71B3
:1055B0004246FFF7F5FE55E7E8000108080101083B
:1055C000D8000108D00001082DE9F84301F00306D6
:1055D0009846F31C8E4603EB08018B089C0012349E
:1055E00024F0070500AFADEB050D044603F1010CF7
:1055F00002A8C6EB0E0E11464FEA830942464FF051
:10560000FF338019CDF800E0CDF804900293D4F870
:1056100084904DF82C3002F0BDFF4FF00051184A35
:1056200066692C232046B0472C2108F108036A46FE
:10563000C2F2000165692046A8474FF00051626B35
:1056400020469047E168204688470146A0B9636C30
:1056500020469847226C204690470028FAD042F214
:105660000C014846C4F20201FBF776F810F0140072
:1056700002D1BD46BDE8F8834FF0FF30F9E700BF27
:10568000400000204FF4005110B5CEF20401044652
:10569000D0F88400FBF760F80005010DA1F58263E6
:1056A0002166222B44D8DFE803F0334333432343FE
:1056B000434323434343434343433343124343431B
:1056C0004343234343434343434343431200294A51
:1056D000294B2A496267A2F1E0006066A166204674
:1056E000A2F58E71E366264A00F07CFE012010BD13
:1056F0002449214B2148616701F118026266A066C6
:10570000E36620462439204A00F06CFE012010BDDB
:105710001E49194B1E48616701F118026266A066B6
:10572000E3662046F4311B4A00F05CFE012010BD08
:105730004FF4B041C4F20101D4F88400FBF70CF837
:1057400001050A0DB2F5886F226601D0002010BD58
:1057500011490F4B084A6167A1F501706066E26666
:105760002046A366A1F594710C4A00F03BFE01208F
:1057700010BD00BFB8000108C955000891530008CA
:1057800048010108C0FF00083C010108A8FE00080C
:105790009953000830010108C400010850010108B4
:1057A00070B5D0F884500E4642F63B2243F60841CD
:1057B000C4F20201C0F6190204462846FAF75EFD5B
:1057C00043F6084146F67F622846C4F20201C4F659
:1057D0005D42FAF753FD43F60C41C4F2020128463C
:1057E000FAF7BAFF10F4803F204605D0E1688847F9
:1057F0000028F0D0012070BD26F0704626F0130678
:1058000043F6144132462846C4F20201FAF736FD47
:1058100043F614412846C4F2020146F00202FAF7A8
:105820002DFD43F60C41C4F202012846FAF794FF1D
:1058300010F4803F204605D0E36898470028F0D058
:10584000002070BD43F614412846C4F2020146F020
:105850000102FAF713FD012070BD00BF022970B5E7
:1058600005461646D0F884402DD0032905D150684E
:10587000214903F08DF8002833D02048FDF760FE61
:105880001F48FDF75DFE4FF44041C1F6FF71204611
:10589000FAF762FF4FF4404182B2C1F6FF71194836
:1058A000FDF772FE4CF208012046C1F6FF71FAF7CF
:1058B00053FF4CF2080182B2C1F6FF711148FDF7A7
:1058C00063FE012070BD50680F4903F061F80028A5
:1058D000D3D14AF6ED212846C0F6FF71FFF760FFED
:1058E000D1E701460A46B06803F012FC014628469B
:1058F000FFF756FFC7E700BF10050108E8000108E1
:1059000018050108D8000108D00001082DE9F0476A
:1059100001F0030606F1030E8C460EEB03014FEA7D
:10592000910E0EF102084FEA8808994608F10A0321
:1059300023F0070400AFADEB040D0EF1010A04469D
:1059400002A8C6EB0C0C4FEA8E0E4FF0FF33114647
:1059500080194A468DE800500293D4F884904DF89F
:105960002A3002F017FE4FF00051174A66693023C3
:105970002046B047302143466A46C2F200016569BD
:105980002046A8474FF00051626B20469047E168DF
:10599000204688470146A0B9636C20469847226C90
:1059A000204690470028FAD043F60C414846C4F2FE
:1059B0000201FAF7D1FE10F0F20002D1BD46BDE8B7
:1059C000F0874FF0FF30F9E76C00002043F61041FC
:1059D00010B5C4F202010446FAF7BEFE002800DB4F
:1059E00010BD43F6044140F223122046C4F20201E6
:1059F000C4F26752FAF742FC43F6044148F6AB1290
:105A00002046C4F20201CCF6EF52BDE81040FAF78E
:105A100035BC00BF70B52A4B054693E8030082B041
:105A2000D5F88460009027488DF80410FDF788FDB4
:105A30003046FFF7CBFF43F610413046C4F2020177
:105A40000422FAF71BFC43F6104104223046C4F24C
:105A50000201C0F20102FAF711FC002443F60C41E6
:105A6000C4F202013046FAF777FE04F0030102AAFD
:105A700010F4803F02EB0103134804F101040ED03F
:105A800013F8081CFDF780FDEB68284698470028AE
:105A9000E4D00E48FDF754FD002002B070BD0B4865
:105AA000FDF74EFD43F60C41C4F202013046FAF711
:105AB00053FE00F0F300411E4A4252EB0100ECE7B6
:105AC000740501084005010870050108E4E10008BB
:105AD0002DE9F84FD0F884504FF44046044617465D
