:020000040800F2
:10200000005000202DA300082BA3000829A30008DE
:1020100029A3000829A3000829A300080000000044
:102020000000000000000000000000002BA30008DA
:102030002BA30008000000002BA300084D6E000831
:1020400029A3000829A3000829A3000829A3000840
:1020500029A3000829A3000829A3000829A3000830
:1020600029A3000829A3000829A3000829A3000820
:1020700029A3000829A3000829A3000829A3000810
:1020800029A3000829A3000829A3000829A3000800
:10209000C989000829A3000829A3000829A300086A
:1020A00029A3000829A3000829A3000829A30008E0
:1020B00029A30008D18A000829A3000829A3000841
:1020C00029A3000829A3000829A3000829A30008C0
:1020D00029A30008D58E000829A3000829A3000819
:1020E0002970000829A3000829A3000829A30008D3
:1020F00029A3000829A3000829A3000829A3000890
:1021000029A3000829A3000829A3000829A300087F
:1021100029A3000829A3000829A3000829A300086F
:1021200029A3000829A3000829A3000829A300085F
:1021300029A3000829A3000829A3000829A300084F
:1021400029A3000829A3000829A3000829A300083F
:1021500008B5D0F8843058684169884708BD00BF89
:102160000368591C016070470368591C016070477F
:102170000368591E016001B1704708F0EBB900BF58
:10218000036810B50446581E206000B110BD606899
:10219000FFF7EEFFE06908B1216A88472046BDE8F5
:1021A000104008F0D7B900BF10B582B000920B46BE
:1021B000846901210022A04702B010BD70B500243F
:1021C00082B00B46009401210A4686690546B04755
:1021D0000094AE692846214601220C23B04702B084
:1021E00070BD00BFF0B5436890F808E001F0F0075B
:1021F00083B004460D4616461846082147EA0E628B
:10220000DB689847606800968469012100222B46AC
:10221000A04703B0F0BD00BF8B0770B5154648BF9F
:102220001504826904460E4642F011020021FFF7B0
:10223000D9FF204604213246FFF7D4FF20460C2167
:102240002A46BDE87040FFF7CDBF00BF836970B577
:1022500004460E461546002143F01202FFF7C2FF66
:10226000204604213246FFF7BDFF20460C212A46B6
:10227000BDE87040FFF7B6BF2DE9F041D0F88460AB
:102280000C46B56982B000211746304645F0100271
:102290009846FFF7A7FF70680094042301210022ED
:1022A000D0F818C0A044E047C4EB0803DA0725467D
:1022B000C4EB070709D504F003003A5DC10002FA38
:1022C00001F4706800946C1C21E004F00301CB0061
:1022D000444537D03A5D706802FA03F1009100225C
:1022E0000C230134D0F818C00121E04784EA05002E
:1022F00020F47F7323F00302002A27D1395D04F014
:102300000300C30001FA03F2706801340092002256
:102310000C23D0F818C00121E04784EA050323F418
:102320007F7222F003000028CFD070680094012152
:10233000042385690022A84704F00301CB0044452B
:102340002546C7D1002002B0BDE8F0817068009436
:102350008569012100220423A8472546CEE700BF56
:102360002DE9F04FD0F884501646AA6985B0039144
:102370002846002142F010029B46FFF733FF6868B1
:1023800000960121002204238469A0470027686881
:102390000121009706F1FF390C2384690A46D944CC
:1023A000A047C6EB09030398D9073446C6EB0008DB
:1023B00016D56868012100970A4684690C23A04756
:1023C00006F00301CA0020FA02F0741C84EA060336
:1023D00023F47F7121F0030208F80600002A6BD174
:1023E00001210C234C450A46686841D00097D0F87B
:1023F00018C0E04704F00301CA0020FA02F004F11B
:10240000010A8AEA060323F47F7121F0030208F827
:102410000400002A3FD16868012100970A468469B8
:102420000C23A0470AF00303D90020FA01F00AF1B7
:10243000010484EA060222F47F7323F0030108F802
:102440000A000029CCD068680121009400220423EE
:102450008669B0476868012100970A460C2386699F
:10246000B04701210C234C4526460A466868BDD179
:102470000025009586692946B04704F00304E4006E
:1024800020FA04F0039B0BF1FF3B03F80B002846F6
:1024900005B0BDE8F08F6868CDF800A001210022EA
:1024A00004238669B04768680121009784690A4659
:1024B0000C23A0475646AEE76868012100943A46CF
:1024C000C5E700BF2DE9F043D0F884800F46D8F867
:1024D000184083B000219146404644F012021E4647
:1024E000FFF780FED8F804000097012100220423A2
:1024F0008569B610A847F0073C46C7EB090912D515
:1025000059F80730D8F804000093012100228569AA
:102510000C233C1DA84784EA070020F47F7121F0BA
:1025200003024ABB013E251D012100220C23002E7F
:1025300036D059F80440D8F804000094D0F818C0F8
:10254000E04785EA070323F47F7020F003012C1D88
:10255000E1B959F80550D8F80400009500220C2381
:1025600085690121A84784EA070222F47F7323F0DA
:102570000300013E0028D5D0D8F8040000948769F4
:10258000012100220423B8472746CBE7D8F80400EE
:1025900000958769012100220423B8472F46D8E718
:1025A000304603B0BDE8F0832DE9F04FD0F88450F9
:1025B0001646AA6985B003912846002142F012020E
:1025C0004FEAA30AFFF70EFE686800960121002279
:1025D00004238469A04700276868012100970C2321
:1025E00084690A46A0470AF1FF3E039B1EF0010FD3
:1025F000D0463446C6EB030912D068680121009723
:102600000A4684690C23F046A047341D84EA06017B
:1026100021F47F7222F0030349F80600002B59D100
:1026200001210C23B8F101080A46686844D00097DC
:10263000D0F818C0E04704F1040B8BEA060222F43C
:102640007F7323F0030149F8040021BB686801216E
:1026500000970A4684690C23A0470BF1040484EA1E
:10266000060222F47F7323F0030149F80B0008F1FE
:10267000FF380029D4D06868012100940022042387
:102680008669B04768680121009786690A460C236D
:10269000B0472646C4E76868CDF800B001210022A3
:1026A00004238469A04768680121009786690A4667
:1026B0000C23B0475E46C9E7CDF8008041468469E7
:1026C000A04703990AF1FF3A41F82A00404605B0B5
:1026D000BDE8F08F6868012100943A46CFE700BF5B
:1026E00070B54368067A01F0F00204460D461846BC
:1026F0000821DB6842EA0662984760682946BDE81F
:102700007040FFF75BBD00BF826938B542F011022F
:1027100004460D460021FFF765FD042120462A46A8
:10272000FFF760FD0C212046FFF7DAFFAB0701D46D
:1027300080B238BD000C38BD826938B542F0120253
:1027400004460D460021FFF74DFD204604212A4690
:10275000FFF748FD20460C21BDE83840FFF7C0BF19
:102760002DE9F04F036804215A1C026003698DB003
:1027700007469847FB6840F0A04204213846984736
:1027800004213A693846904700F02040B0F1204FCC
:10279000F6D1DFF8DCB0DFF8DCA0DFF8DC904FF03A
:1027A0000008019743E007F0CDFE03AD044606465E
:1027B0000FCD0FC40FCD0FC401982A680368F42110
:1027C0000133036022603046FFF78AFFF821306151
:1027D0003046FFF785FF394670613046FFF780FFCE
:1027E00020F037078C20B76105F014FF326842F201
:1027F000A957531CC0F60007336042F2C542076177
:1028000042F26133194FC0F60002C0F60003C0F86F
:102810008460C0F888B0C0F874A0C0F80C90426121
:102820008361C76101F064FDB8F5807F17D0019B1B
:102830000027FC2103A8059703978DF814800697BD
:102840000797089709970A970B970493FFF748FF94
:10285000014608F10108242006910029A3D1019F17
:102860003846FFF785FC0DB0BDE8F08F79220008EF
:102870008121000864050108512100082DE9F0417B
:1028800084B0DDF828E05B0803F006040025521B45
:102890004FEACE06E4B218BF01224FEA5E77344316
:1028A0001443804600290CBF0A210B21C0693D4317
:1028B000CDE9004503F0E8F802A96A462323D8F8D9
:1028C0001C0003F02DF9029A039902F0070340F26D
:1028D000E73426E0232302A96A46D8F81C0003F057
:1028E0001FF9029A039902F00703012B1BD123233E
:1028F00002A96A46D8F81C0003F012F9029A03995B
:1029000002F00703012B0ED1232302A96A46D8F84F
:102910001C0003F005F9029A033C039902F0070337
:1029200009D0012BD6D0022B0DD1D20842EA41703A
:1029300004B0BDE8F08198F808000028F3D0012B1E
:10294000F1D12046F4E70C4D2E787EB10B480321DF
:1029500002F00CFD00272F7005F06AFE08480121E7
:1029600004F0DAFA0748012108F0F4F906480321D7
:1029700002F0FCFCEEE700BF04120020780501081D
:1029800080050108A81100207C05010830B500244D
:1029900083B021460122042300940546FFF76EFF11
:1029A0003223CFF200030093214628462246042317
:1029B000FFF764FF00F0320003B030BD30B50024F3
:1029C00083B00B460546214601220094FFF756FFCF
:1029D00000942846214601220C23FFF74FFF03B045
:1029E00030BD00BF00B50B4683B0002100920A46FF
:1029F000FFF744FF03B000BD10B5202104460120BD
:102A000007F04EFDA26842F6E511426042F6BD12A3
:102A1000C0F60001C0F60002C160026142F68D11ED
:102A200042F67D02C0F60001C0F60002C4614161B9
:102A30008261BDE81040FFF793BE00BFF0B50646C7
:102A400083B01746002949D0027F002A4FD1A32422
:102A5000002F4ED103F00C03042B44EA430050D066
:102A6000082B4ED0C4B20821204605F0FDFC0320FF
:102A700005F010FC40F2E735C1B21DE00821204608
:102A800005F0F2FC032005F005FCC1B2022915D1C6
:102A90000821204605F0E8FC032005F0FBFBC1B24D
:102AA00002290BD10821204605F0DEFC032005F0A9
:102AB000F1FB033DC1B215D00229DFD004293CD07F
:102AC000012927D107BB0898202105F027FD002008
:102AD000082105F0C9FC019803B0F0BD8124002F46
:102AE000B8D006E0327A002AE8D00229E6D10020E8
:102AF000F2E703F00C0384F02404042B44EA4300BF
:102B0000AED180F02000ADE701A8202105F01AFC2D
:102B10000028DCD00D4D2E789EB10D48032102F027
:102B200025FC00272F7005F083FD0A48012104F0E1
:102B3000F3F90948012108F00DF90123337700204A
:102B4000CAE70648032102F011FCEAE7041200205C
:102B50007805010880050108A81100207C050108FE
:102B600000B50B4683B0002100910122FFF766FFFC
:102B700003B000BD00B50B4683B0002100920A46A9
:102B8000FFF75CFF03B000BD38B504210446FFF732
:102B9000E7FF10F0020F0CBF00221022C30648BF4F
:102BA00042F00202810648BF42F00402030648BF19
:102BB00042F0080200F0B20500212046FFF7DAFFDC
:102BC00000232377284638BDF8B505F031FD2021D4
:102BD000012007F065FC044605F090FC204B1878B6
:102BE000002829D1A520082105F03EFC032005F08E
:102BF00051FBC7B2012F23D1201D202105F0A2FBDC
:102C00000546E8B91749184A184BE16018492046AB
:102C1000184E22616361A161FFF7B6FF2046FFF7FE
:102C20009FFD3068B0B12846294604F075F9326836
:102C3000101C18BF0120F8BD012003F0D1F8D1E726
:102C400001210D4804F068F9204607F083FC4FF09D
:102C5000FF30F8BD0848394604F05EF9E7E700BFE9
:102C600005120020752B0008612B0008892B000835
:102C70003D2A0008500F002090050108704700BF52
:102C800030B583B002AD044605F8011DD0F88C00C4
:102C9000022102F0F9FED4F88C0000212A46042318
:102CA00002F03EFFD4F88C000C2102F0EDFE03B0E0
:102CB00030BD00BF2DE9F043074683B00E46002526
:102CC00001211C469146FFF7DBFFD7F88C0029460F
:102CD0006A4621230096019502F022FF002C43D082
:102CE000D9F80060A8462123D7F88C0069466A46C7
:102CF000651E8DE8400102F013FF009B4C462E46F6
:102D000044F8043B05F0010576B375B12568D7F8A2
:102D10008C00212369466A468DE8200102F000FFFD
:102D20000098013E44F8040B1ED025682123D7F8F3
:102D30008C0069466A468DE8200102F0F1FE009998
:102D4000254645F8041B64686A462123D7F88C00A1
:102D500069468DE81001013E02F0E2FE009A2C4621
:102D6000013E44F8042BE0D103B0BDE8F08300BF7E
:102D700008B503461A6A00F1900007F08BFE0020A8
:102D800008BD00BF08B50346026A084603F190017A
:102D900007F080FE002008BD38B5C36B044600254F
:102DA000984703E00220013D04F048F8216C2046DA
:102DB00088470028F6D0281C18BF012038BD00BF66
:102DC000F0B583B0002401250746022102AE66E972
:102DD0000245FFF755FF00212623D7F88C006A46ED
:102DE00002F09EFE0124262369466A460025D7F894
:102DF0008C0002F095FEDDE9002322402B4052EAD0
:102E0000030102D1104603B0F0BD4FF6FF71384602
:102E1000CEF6800107F190021023FFF74BFF01204F
:102E2000F1E700BFF0B54FF6FF7183B0064600F141
:102E300090021023CEF69001FFF73CFF00242025DE
:102E40003046022102AF67E90245FFF719FF002172
:102E50006A462623D6F88C0002F062FE0022114654
:102E600013463046CEF2A011FFF724FF002430466F
:102E70000121FFF705FFCEF2A01400216A462123AD
:102E8000D6F88C000125CDE9004502F049FE00226C
:102E90004FF6F8713046CEF6FF211346FFF70AFFD2
:102EA000D6F88C00042102F0EFFD03B0F0BD00BFA6
:102EB00070B582B0022402AE202566E902450221E7
:102EC0000446FFF7DDFED4F88C0000216A46262375
:102ED00002F026FE02B070BD10B50446D02005F009
:102EE00099FB40F29C51C0F6010142F69953C0F69D
:102EF00000034167402142F67D424360016242F691
:102F0000855342F67151C0F60002C0F60003C0F6C8
:102F100000018260C260026142618261C2618362BB
:102F2000C1624263826342F6C15342F6B16242F625
:102F30002561C0F60002C0F60003C0F60001C0F82B
:102F40008C40C2630364416410BD00BF08B505F046
:102F500043FD40F2146041F20C31C0F60100C2F2B0
:102F600000010522852302F0EFFA012008BD00BF11
:102F700008B5044B196811B1034802F0E5FA0120C5
:102F800008BD00BFA01100207C07010870B5114CDE
:102F900006462568C5B1104802F0B2FA0F4802F0A3
:102FA000AFFA246874B101252946B44214BF202227
:102FB0002A22636F0A4802F0C7FAD4F8804001352C
:102FC000002CF1D1012070BD064802F099FA284684
:102FD00070BD00BF500F00204006010854060108D4
:102FE000640601082406010838B50546114802F0B8
:102FF00087FA114C1149A268114802F0A5FA54F859
:103000000C1F0029F7D19DB1AD6F8DB129680D4816
:1030100002F09AFA6C68216839B1A268084802F097
:1030200093FA54F80C1F0029F7D1AD68002DEDD1AB
:10303000012038BD7C060108A805010874060108B6
:10304000900601089C06010840F2B46008B5C0F67D
:10305000010002F055FA40F2E860C0F6010002F00B
:103060004FFA40F21C70C0F6010002F049FA01204C
:1030700008BD00BF08B503F065FF0146084802F02F
:1030800063FAFFF7A1FD002804DB0020FFF77EFFB5
:10309000012008BD034802F033FA002008BD00BF3C
:1030A0006C070108800701082DE9F04782B002AFE4
:1030B0008946144603F046FF0146364802F044FABA
:1030C000B9F1010F5ADD09F10E0323F00700ADEB52
:1030D000000D02AEA9F1020154F8040F06EB01083D
:1030E00001F0010A07F0D4F946453546307019D091
:1030F000BAF1000F08D054F8040F07F0C9F93546AB
:1031000005F8010F45450DD054F8040F07F0C0F93C
:10311000687054F8040F07F0BBF96A1C0235454586
:103120005070F1D1B144002409F8014C304602F04E
:10313000F3FA041E29DB23D0174E184802F004FAD4
:103140003368002B10DD164C0025D4F80A002278D5
:10315000D4F8063029460090124802F0F5F931689B
:1031600001351434A942F0DC0F4802F0C9F90020FF
:10317000FFF70CFF0120BD46BDE8F0870026D5E72C
:103180000A4802F0BDF92046F5E7094802F0B8F90F
:103190000020F0E76C07010824110020D007010887
:1031A0002A110020FC070108AC070108B00701083C
:1031B00094070108012908B50BD050680B4907F0A6
:1031C00073FE0B4BD0F1010038BF002018700120B6
:1031D00008BD0749074B084A0978084800290CBF71
:1031E0001146194602F0B0F9012008BD4408010853
:1031F0000512002010080108180801082408010819
:103200002DE9F84F0B7800AF06467BB10A46002443
:1032100004E0092B04D012F8013F33B1202BF8D180
:1032200012F8013F0134002BF8D1A3000E3323F034
:103230000700ADEB000D0846294908F069F8E8469B
:103240000090002849D06C4600250020244908F051
:103250005FF8013544F8040F0028F6D1D8F8004093
:10326000204607F00FFFDFF880A081461D4902E0ED
:103270005AF80C1F89B120464A4607F033FF002850
:10328000F6D1DAF80430294630464246984780F0B5
:103290000101C8B2BD46BDE8F88FDEB1D6F878A00E
:1032A000BAF1000F16D0DAF80420116869B193461C
:1032B00002E05BF80C1F41B120464A4607F012FFBE
:1032C0000028F6D1DBF80430DDE7DAF808A0BAF11F
:1032D000000FE8D14FF0FF30DCE704460546BFE7BA
:1032E0004C08010874060108A805010810B4D0F8BC
:1032F0008400032243684EF6F0510024CEF2000110
:10330000CAF25F021C7210BCFEF7A0BF10B5D0F865
:1033100084400A464EF6F8512046CEF20001FEF7F0
:1033200095FF0F224EF6F4512046CEF20001C0F276
:103330000102FEF78BFF002010BD00BFF8B5D0F8EA
:103340008460F7693B6C73B142F20804CEF200046A
:103350000025214630460022FEF778FF386C013503
:103360000434A842F5D8796A71B141F22804CEF24A
:1033700000040025002221463046FEF767FF7A6AE6
:1033800001351034AA42F5D800224EF6F0513046ED
:10339000CEF20001CAF25F02BDE8F840FEF756BF68
:1033A000D0F88400022B2DE9F843C56960D0042BC6
:1033B00057D0012B03D04FF0FF30BDE8F8834FF01A
:1033C0000008032951D0042955D00229F3D14FF028
:1033D000060C6F6A002F40D069687C1E0023914262
:1033E00004F001044AD001230821BB4235D09CB12E
:1033F0006E187468944259D001330831BB420BD126
:103400002BE0D9F80410013391421E4618D0731CEA
:10341000BB4204F1080120D001F1080469184E688C
:1034200005EB04099642ECD10E7A6645E9D1497A5A
:10343000414529D0D9F80410013391421E46E6D106
:1034400099F808106145E2D199F8091041451BD05F
:10345000731CBB4204F10801DED16FF00100BDE82E
:10346000F88303294FF00308ADD14FF0050CB0E706
:103470004FF00108A5E74FF0070CAAE7297A61454C
:10348000B1D1697A4145AED1BB42E6D041F22802C2
:10349000002405EBC305CEF200021B0199182C7223
:1034A0002246FEF7D3FE2046BDE8F883347A644511
:1034B000A2D1747A44459FD1E6E700BFD0F88400DA
:1034C000F8B5C7693E6C76B3BB6A23F001028A4245
:1034D0002CD00023F4073A4620D4FC6A012324F0C0
:1034E00001043A1D8C4219D103F1605101F6020228
:1034F000910000240A3347F823402246FEF7A6FE37
:103500002046F8BDD56A221D25F001058D42EBD07D
:10351000E46A013324F001048C42E5D00133B34264
:1035200002F10404EED14FF0FF30F8BD42F2080181
:10353000CEF200010023DCE7D0F8840021F06042E5
:10354000D0F81CC0F8B522F0030211F0020FDCF82D
:1035500040700CBF4FF080434FF0004342F0010237
:103560001A4367B3DCF8284014F001032AD0002383
:10357000FD0764461ED4DCF82C500123ED070CF146
:10358000040417D403F1605404F60205AD000A33B5
:1035900041F001044CF823402946FEF757FE002075
:1035A000F8BDE66A2C1D16F0010FEBD0ED6A013371
:1035B000ED07E7D50133BB4204F10405F1D14FF02B
:1035C000FF30F8BD42F20805CEF20005DFE700BF8C
:1035D0002DE9F04FD0F8840097B0444E0BAC069024
:1035E0008B4615460FCE0FC40FCE0FC496E80700CA
:1035F000069BBBF1020FDF6984E8070005DD6968FF
:103600000A780892643A012A7AD9394801F078FF99
:10361000384801F075FF0B9911B17A6CD20738D494
:103620000C9911B1786C83075BD40D9911B17B6C47
:10363000580752D40E9911B17A6C120749D40F99D8
:1036400011B1786CC30640D4109911B17B6C980607
:1036500037D4119911B17A6C52062ED4129911B146
:10366000786C030625D4139911B17B6CD8051CD452
:10367000149911B17A6C920513D4159911B1786C23
:1036800043050AD41C4801F03BFF012017B0BDE8F8
:10369000F08F1A4801F058FFC2E7184801F054FFB4
:1036A000F0E7164801F050FFE7E7144801F04CFF3F
:1036B000DEE7124801F048FFD5E7104801F044FF6B
:1036C000CCE70E4801F040FFC3E70C4801F03CFF97
:1036D000BAE70A4801F038FFB1E7084801F034FFC3
:1036E000A8E7064801F030FF9FE700BF98090108EE
:1036F000A4150108F8150108AC0701080C1601080B
:103700000E9E0F9800960190139E109B1199129A8D
:103710001498DDF854C04FEA8B0B0024DDF82CA080
:10372000DDF83090DDF83480CDF81CB005960997AF
:10373000029303910492264667468346BAF1000F2E
:1037400006D05046295907F0AFFB08B946F00106EC
:10375000B9F1000F06D04846295907F0A5FB08B972
:1037600046F00206B8F1000F06D04046295907F08E
:103770009BFB08B946F00406009B33B11846295953
:1037800007F092FB08B946F00806019931B10846E6
:10379000295907F089FB08B946F01006029A32B1A0
:1037A0001046295907F080FB08B946F02006039817
:1037B00028B1295907F078FB08B946F04006049B68
:1037C00033B11846295907F06FFB08B946F0800657
:1037D000059931B10846295907F066FB08B946F446
:1037E0008076BBF1000F06D05846295907F05CFBE4
:1037F00008B946F4007637B13846295907F054FB2A
:1038000008B946F48066079A0434944296D1089821
:10381000099F65280BD07A6C22EA06027A644EF67C
:10382000FC510698CEF20001FEF710FDF0E67B6C2D
:1038300046EA03027A64F2E72DE9F041D0F8847099
:103840008846FE69736A43B341F22805CEF200054B
:10385000002404E001341035A342194610D906EBC8
:10386000C402107A0028F5D029463846FEF764FFD6
:10387000C1010FD4736A01341035A3421946EED842
:10388000A1420AD006EBC40462680120C8F80020F7
:10389000BDE8F081716AA142F4D10020BDE8F08159
:1038A0002DE9F84FD0F88460022B07469046D6F8F1
:1038B0001CB063D0042B68D0012B03D04FF0FF3035
:1038C000BDE8F88F4FF0000903295BD004295FD0D1
:1038D0000229F3D14FF0060ADBF82430002B5DD02B
:1038E00041F22805CEF20005002404E00134103531
:1038F000A342194611D90BEBC402107A0028F5D166
:1039000030462946FEF718FF000744D0DBF8243084
:1039100001341035A3421946EDD88C423ED004F153
:1039200060620BEBC40B02F581731901304642460D
:103930008BF808A0CBF804808BF80990FEF786FC82
:1039400041F224012401CEF20001304661184A46BA
:10395000FEF77CFCF86D41F2280310F0010F0CBF5C
:103960004FF400620022CEF200033046E11842EA32
:103970000A02FEF76BFC0020BDE8F88F03294FF028
:103980000109A3D14FF0050AA6E74FF003099BE711
:103990004FF0070AA0E7DBF82410BEE76FF0010044
:1039A000BDE8F88F2DE9F843056AD0F88430AE0001
:1039B0000A3626F0070500AFDE69ADEB050D884637
:1039C000836A6946914604469847B06C6D46421F2B
:1039D000012A07D901280BD1B8F1FF3F08D008F11F
:1039E000010306E0B8F1000F02DD316DC8EB0108FC
:1039F00043462B60E26A204629469047C6F84C9021
:103A0000BD46BDE8F88300BF2DE9F04F91B0D0F876
:103A100084404EF6F05102AF0546CEF2000120463A
:103A2000D4F81C80FEF788FE10F4003004D107F1B2
:103A30003C07BD46BDE8F08F636800224EF630516A
:103A40001A72CEF200012046FEF776FE4EF6305195
:103A50000646CEF2000120463246FEF7F7FB33075A
:103A600012D4C6F3400088F8010000286ED116F089
:103A7000060F01D00520DAE7F307FBD598F8001010
:103A80000029F7D10220D2E7D5F884904EF62C51C8
:103A9000CEF200014846FEF74FFE4EF6285104468E
:103AA000CEF200014846FEF747FE4EF62C51824604
:103AB000CEF2000148462246FEF7C8FB4EF62851DA
:103AC0004846CEF200015246FEF7C0FB600002D429
:103AD000BAF1000FC5D02C6AE846002CB8BF0334F9
:103AE00024F003060A3626F00703ADEB030D02AC03
:103AF0002146AA6A284690472023D4F838A007F127
:103B00001801626B28462E69B047396BF86A7A6BE8
:103B10001AF0100FE1630CBF20236823A063910506
:103B2000606B48BF0433C3184EF60C51022248465E
:103B3000CEF20001C0F2FA526363FEF787FBEA6A35
:103B40002846214690470B20C54670E7D5F88440AB
:103B50004EF6F4510F222046CEF20001FEF776FB1E
:103B60004EF6F8512046CEF20001FEF7E5FDB91CF5
:103B700002230246AC692846A04779884BF6AB631E
:103B800099427FF474AF2A6AE94690000A3020F027
:103B90000704ADEB040D0DF1080AD5F88420514659
:103BA000AB6A2846D2F81CB0984707F108012846AE
:103BB000DAF8042010232C69A047DAF80010481E18
:103BC000CBF84810122800F28A80DFE800F05F5935
:103BD00088884F4588883F37883388312588881AF8
:103BE0000A00DBF84C20EB6A2846CAF80020514650
:103BF00098472846CD466A6C98F8001090470020F8
:103C000015E74248BA68FB68511E5A1C01F060FC77
:103C10004FF0FF30CD460AE7786907F1080101301F
:103C20000EC9009001393A48013201F051FCEFE72A
:103C30003848E7E70021CBF84C10DAE7BA68364895
:103C4000511E0023FA6801F043FCE1E7BB683348EA
:103C5000591E01F03DFCDBE73B69B968CBF85030F9
:103C60002F480139FA6801F033FCD1E7BA683B69A3
:103C7000511ECBF850302B48FA6801F029FCC7E7F9
:103C8000BB682948591E01F023FCC1E7274E07F104
:103C900018040FCE0FC496E8030084E80300F86808
:103CA00007F13802410802EB8106AC69391D28464C
:103CB000BA68042356F8206CA047381D1C4907F049
:103CC000F3F8C0B96EB9CAF80060DAF80020EB6A00
:103CD000501CCAF8000051462846984789E7CD464F
:103CE000C5E6720503D50121CAF80010EDE70220F0
:103CF000CAF80000E9E73A694FF4D27300930D481F
:103D0000B9680132334601F0E3FB81E7B8160108D8
:103D100090160108A816010878160108681601080F
:103D200038160108501601082C160108C4090108AC
:103D3000101601081416010810B5D0F884400120AF
:103D400002F04EF8002002F04BF84EF6F051CEF2A1
:103D500000012046FEF7F0FC4EF60C5104222046EE
:103D6000CEF20001C0F2FA52FEF770FA4EF6F051B0
:103D70002046CEF20001FEF7DFFC8201F6D44EF6BB
:103D800030512046CEF200011F22BDE81040FEF760
:103D90005DBA00BF2DE9F043D0F8844083B0A2693A
:103DA000884642F01202002181462046FEF71AFAA8
:103DB0004EF6F0536068CEF2000300930121042315
:103DC000002285694746A8472046182157F84C2B02
:103DD000FEF708FA60684FF480310091002201215B
:103DE000142386694546B04755F8042F6068484E4D
:103DF0000092012100221823D0F818C0E04756F89D
:103E0000043F606843F480310091D0F818C001216C
:103E100000221423E04755F8042F60680092012126
:103E200000221823D0F818C0E04756F8043F606815
:103E300043F480310091002201211423D0F818C0EE
:103E4000E04755F8042F60680092012100221823F2
:103E5000D0F818C0E04756F8043F606843F480315A
:103E60000091002201211423D0F818C0E047BD4280
:103E7000D1D1D9F85C0008F15005810744D5254E11
:103E800008F1D4082F4657F8042B606800920121EE
:103E900000221823D0F81890C8477368606843F46C
:103EA00080310091002201211423D0F818C0E0478E
:103EB0006A6860680092012100221823D0F818C0B7
:103EC000E047B368606843F480310091002201212B
:103ED0001423D0F818C0E0477F686068009701217C
:103EE000002218238769B84706F1040956F80C2FF9
:103EF000606842F4803300930121002214230C35C2
:103F00008769B8474545BDD1002003B0BDE8F083BF
:103F1000DC090108280A01082DE9F043D0F88440A3
:103F200083B0A2690F4642F012020021814620466A
:103F3000FEF758F94EF6F0536068CEF20003009396
:103F40000121042300228569A8470022204614216C
:103F5000FEF748F918216068FEF730F9394E3860ED
:103F6000354655F8041F6068009100220121142392
:103F7000D0F818C0E04760681821FEF71FF906F175
:103F80004C083E4646F8040F55F8042F606800922E
:103F9000142300220121D0F818C0E04718216068DE
:103FA000FEF70CF946F8040F55F8043F60680093DB
:103FB000012100221423D0F818C0E04718216068BE
:103FC000FEF7FCF8454546F8040FDDD1D9F85C0052
:103FD00007F15005800731D51B4E07F1D4087768EB
:103FE000606800970022142301218769B8471821CF
:103FF0006068FEF7E3F82F4647F8040BB168606885
:104000000091002214230121D0F818C0E0471821A4
:104010006068FEF7D3F8686056F80C2F606800926D
:10402000012100221423D0F818C0E047182160684D
:10403000FEF7C4F80C3545457860D0D1002003B0B8
:10404000BDE8F083DC090108280A01082DE9F84FD2
:10405000D0F884700446C368DFF8F491FD6998478E
:104060002046E16B884799F8000000286BD1226C4C
:1040700020469047002866D1022002F0DFFE99F822
:104080000030002B5FD1216C2046884700285AD190
:10409000022002F0D3FE99F80000002853D1226CD0
:1040A0002046904700284ED1022002F0C7FE99F822
:1040B0000030002B47D1216C20468847002842D190
:1040C000022002F0BBFE99F8000000283BD1226CD0
:1040D00020469047002836D1022002F0AFFE99F822
:1040E00000304E46002B2ED1216C2046884750BB15
:1040F000022002F0A3FE99F8000020BB226C2046AB
:10410000904700BB022002F099FE99F80030D3B925
:10411000216C20468847B0B9022002F08FFE99F842
:10412000000080B9226C2046904760B9022002F05E
:1041300085FE99F8003033B9216C2046884710B9C4
:104140000020BDE8F88F4EF6FC51CEF200016A6CFB
:104150003846FEF77BF84EF630511F223846CEF235
:104160000001FEF773F806204FF400512864CEF2E8
:1041700000013846FEF7E0FA2A6CC0F303139342BD
:1041800059D304204FF480516862CEF200013846C2
:10419000FEF7D2FA696A020F2B6C8A4288BF6A6204
:1041A000BBB142F2080A4FF00008CEF2000A2E46D8
:1041B000C5EB0A0AC3460AEB060138460022FEF7A1
:1041C00045F8C6F828B0286C08F1010804364045C7
:1041D000F1D8696AA1B141F228080026CEF20008A0
:1041E000B246002241463846FEF730F805EBC602DB
:1041F00082F808A06B6A0136B34208F11008F0D8C3
:104200004FF400513846CEF200010322FEF71EF8AB
:104210000A490B4AA164E2640A4B0B490B4A99F81C
:10422000000023656165A26510B1002001F0D8FD92
:104230000120BDE8F88F2B64A3E700BF39350008E3
:10424000BD340008A1380008A1330008393800083F
:10425000051200202DE9F041D0F884400D22E569D7
:10426000012380462878CAF25F02CAF25F03002960
:1042700014BF17461F4688420E4609D04EF6F0512D
:104280002046CEF2000147F00202FDF7DFFF2E705C
:10429000697861B94EF6F0512046CEF200013A46F7
:1042A000FDF7D4FF636801201872BDE8F081D8F8EB
:1042B00084504EF6F4510F222846CEF20001FDF74D
:1042C000C5FF4EF6F8512846CEF20001FEF734FA4B
:1042D000054629462046FEF717FA00F47F42B2F55C
:1042E0003E4FD7D14046A91CFFF710F8D2E700BFD8
:1042F000F8B5474B474F484D1A4643678760474BD1
:10430000474F4560474D83624763474B474FC56200
:10431000474D83630764474B474E484FC56350255D
:10432000436404460562076706F57471466204F04B
:10433000A5F9D4F884504EF68851CEF200012846F3
:10434000FEF7FAF94EF6885140F47007CEF20001FC
:1043500028463A46FDF77AFF4EF688512846CEF2B7
:104360000001FEF7E9F9B84246D00120542106F0D9
:1043700097F840F201420346E8613148C0F200126A
:10438000286220465A6403F0F7FA08B10120F8BD0C
:10439000E16820468847204603F090FD0028F5D1CB
:1043A000E36820469847204603F0FEFE0028EDD142
:1043B000E26820469047204602F08EF80028E5D1BA
:1043C000E16820468847204602F056FB0028DDD1F0
:1043D000E36820469847204603F046F80028D5D1E8
:1043E000E26820469047204601F022FF0028CDD108
:1043F000E16820468847C9E7E26D206A42F0020181
:10440000843006F57A76E16520626662ADE700BF2A
:10441000000000203D3300084D400008193F00080F
:104420000D330008953D0008393D0008093A0008A1
:10443000ED32000855420008B00A0108A53900080D
:1044400055A500082DE9F04343F20803C4F2020326
:104450001C681646032E44F0010283B01A6004461D
:104460000D4649DD4FF44058043E01A92A46042375
:104470000769C4F20208C6F38009B847002835D19D
:104480000198043501BA032EC8F8001034DDB9F1E3
:10449000000F1DD02769204601A92A460423B847EA
:1044A00020BB019B043E1ABA0435032EC8F8002035
:1044B0000EDC21E00198276900BAC8F80000204608
:1044C000B84798B90199032E0BBAC8F8003013DD2C
:1044D0002F1D2A4601A9042325692046A847042345
:1044E00001A93A46083EFD180028E3D04FF0FF37F7
:1044F000384603B0BDE8F0834FF44052C4F20202E4
:10450000F307176806EB050854D44545F0D02A4652
:104510000123A669204601A9ED18B0470028E5D17E
:10452000019E97EA066271D45100002977DB4A00A8
:10453000002A7DDB51000029C0F284804A00002A55
:10454000C0F28A805600002EC0F290807200002ACD
:10455000C0F296805600002EC0F29C807700A669BB
:10456000204601A92A460123B0470028BED1019A5E
:1045700097EA026000F19F804700002FC0F2A580FB
:104580007A00002AC0F2AB8051000029C0F2B1804D
:1045900048000028C0F2B7804300002BC0F2BD8065
:1045A00058000028C0F2C3804200002A7ADB57007E
:1045B0000135AAE72A460123A669204601A9ED187C
:1045C000B047002892D1019897EA006700F1B780C0
:1045D00079000029C0F2BD8048000028C0F2C380E5
:1045E0004300002BC0F2C98058000028C0F2CF80E1
:1045F0004700002FC0F2D58078000028C0F2DB8091
:104600004200002AC0F2E18057007EE741F6B75031
:104610005700C0F2C14087EA0001002987DA41F65D
:10462000B7564B00C0F2C14683EA0602002A81DA7F
:1046300041F6B7505700C0F2C14087EA0001002997
:10464000BFF67CAF41F6B7564B00C0F2C14683EAD5
:104650000602002ABFF676AF41F6B7505700C0F207
:10466000C14087EA0006002EBFF670AF41F6B75191
:104670007300C0F2C14183EA0102002ABFF66AAFAB
:1046800041F6B7505700C0F2C14087EA0006002E3D
:10469000BFF664AF41F6B7517300C0F2C14183EA7F
:1046A00001075CE741F6B7515300C0F2C14183EA0C
:1046B0000107013529E741F6B7514300C0F2C14176
:1046C00083EA0107002FBFF65BAF41F6B7507F00CA
:1046D000C0F2C14087EA0002002ABFF655AF41F69A
:1046E000B7535200C0F2C14382EA03010029BFF66A
:1046F0004FAF41F6B7574900C0F2C14781EA070002
:104700000028BFF649AF41F6B7574200C0F2C14793
:1047100082EA0703002BBFF643AF41F6B7515B00B7
:10472000C0F2C14183EA01000028BFF63DAF41F667
:10473000B7574000C0F2C14780EA070235E741F6AB
:10474000B7537A00C0F2C14382EA03010029BFF6E1
:1047500043AF41F6B7574900C0F2C14781EA0700AD
:104760000028BFF63DAF41F6B7574200C0F2C1473F
:1047700082EA0703002BBFF637AF41F6B7515B0063
:10478000C0F2C14183EA01000028BFF631AF41F613
:10479000B7514200C0F2C14182EA0107002FBFF6C3
:1047A0002BAF41F6B7517B00C0F2C14183EA010053
:1047B0000028BFF625AF41F6B7574000C0F2C14709
:1047C00080EA0702002ABFF61FAF41F6B751530037
:1047D000C0F2C14183EA010797E600BF70B5114CF2
:1047E0002368E21801331071236011B9402B00D007
:1047F00070BD04F047F8012802D00021216070BD8F
:1048000004F046F80028F8D0074E064D3068012124
:104810002A1D238804F085FF0028F6D00020286098
:10482000E6E700BF3C0900200812002038B501214E
:104830000B4C0A46054604F08CFF04F1440228465E
:104840000121402304F073FF0246C4F8840000B144
:1048500038BD28460121BDE8384004F07ABF00BFCA
:104860003C0900202DE9F8431E4DDFF880904FF001
:1048700000082F46D5F8CC30D5F8C8201949934206
:1048800024D304F005F848B303F0FCFF01280446E4
:10489000FAD1D5F88460002EECD013483246A0F14E
:1048A000440106F0F7F800222146D9F80000C7F8C5
:1048B000C860C7F88480C7F8CC8004F04AFFD5F8F8
:1048C000CC30D5F8C82007499342DAD2C818013352
:1048D00090F88800C1F8CC30BDE8F8830420BDE82A
:1048E000F88300BF3C090020C40900200812002002
:1048F00048F21F53C5F2EB132DE9F04783FB002369
:10490000224DC017D5F8CC10D5F8C820204FC0EBE9
:10491000631391423B6003D2BDE8F047FFF7A2BFAB
:10492000DFF874A0A8464FF0000903F0B1FF18B3F8
:1049300003F0A8FF01280446FAD1D5F8846046B9EF
:104940003868D5F8CC10D0B1D5F8C8309942ECD23F
:10495000E2E710483246A0F1440106F09BF8DAF88D
:10496000000021460022C8F8C860C8F88490C8F842
:10497000CC9004F0EEFEE3E70420BDE8F087D5F824
:10498000C8209142C8D3FF20BDE8F0873C09002031
:10499000A4110020C409002008120020074B1A6847
:1049A000824207D05B68834200D07047034A0020F0
:1049B0005060704700211960F4E700BF0C0A002026
:1049C000F0B583B000AF3B1D04463A4608461C498B
:1049D00006F0F0F9022806D1204606F053FB3B68AA
:1049E000984208D827D01748032100F0BFFC07F1F0
:1049F0000C07BD46F0BD7D686E4605F1090222F048
:104A00000700ADEB000DE41868466D212A4600F85A
:104A1000011B214606F0F6FB204606F033FB034659
:104A20009D4288BF1D46684688BF7B60691C00F0B8
:104A30009DFCB546DBE70448012100F097FCD6E772
:104A40005C18010820170108241701082DE9F0431C
:104A50004C4C83B0064600AF4B4904F108000622D7
:104A600006F040FB054650B304F1080047490A220E
:104A700006F038FB002845D004F10800444917220D
:104A800006F030FB48B92068002871D0406E00283D
:104A90005DD04049FFF794FF39E004F108003E493A
:104AA0001F2206F01FFB00283BD12068002846D0BB
:104AB000406A00284BD03949FFF782FF27E0063EC5
:104AC00006EBD670461006F10F0323F00701ADEB9D
:104AD000010D6A464FEAD2094FEAC90804F10E01F6
:104AE0003246404600F08EFD06F8395020684146B7
:104AF000FEF786FB00281DDB0ED12948022100F0BD
:104B000035FC04E027484FF4806100F0E1FC07F138
:104B10000C07BD46BDE8F0832348012100F026FCC8
:104B2000F5E73B1D04F1080020493A4606F042F93A
:104B3000022811D01E48002100F018FCE7E7606849
:104B400028B11C4903F0B4FD20600028B0D11A48F8
:104B5000032100F00BFCDAE720680028F7D097E883
:104B60000600FFF76FFC0146144800F0B1FCCEE7E9
:104B700060680028EBD00F4903F09AFD2060002800
:104B800084D1E4E70C0A002028170108381701082F
:104B9000801701082B0A002098170108330A00200B
:104BA000301701084417010834170108B817010825
:104BB000CC0701089D49000820170108CC170108FF
:104BC0002DE9F04F954C8BB0002602AF4FF4416AAF
:104BD00040F61449FE60BE60C4F2010AC4F2010945
:104BE000A3464FF48061CAF800108D4800F06CFBBA
:104BF0004FF48062A9F800208A4D94F808E0064638
:104C000005F10108AEF10403762B00F2D680DFE84F
:104C100013F0F500D400D400D400D400D400D400A4
:104C2000D400D400D400D400D400D400D400D400E4
:104C3000D400D400D400D400D400D400D400D400D4
:104C4000D400D400D400D400D400D400CF00D400C9
:104C5000D400D400D400D400D400D400D400D400B4
:104C6000D400D400D400D400D400D400D400D400A4
:104C7000D400D400D400D400D400D400D400D40094
:104C8000D400D400D400D4008800D400D400D400D0
:104C9000D400F500D4002A027201D400D400D4005C
:104CA000D400D4003E01D400D400D400D400370195
:104CB000D400D400D400D400D4000402D400D20123
:104CC000D400D400D400D400D400D400D400D40044
:104CD0007900D400D400D4001901D400D400D40049
:104CE000BB01D4008C01D400D400D400CE01370124
:104CF0007700D400D400D900D400D400D400D2016D
:104D00000120B8602068002800F02382466CB96852
:104D100041F20425B047C2F20005012000232870AB
:104D2000BB602068002800F065829BF80860FE6088
:104D300007E0FFF7DDFD0338C5B2012D206840F222
:104D4000B781056CA847061EF3D041F204214FF04D
:104D50000003C2F200010B70FFF643AF2068826DC2
:104D60002AB107F11C019047002840F0B1812E487C
:104D7000314600F0ADFB34E729482C4907F1140215
:104D800007F11C0306F016F8022840F06682DBF8F3
:104D90000000002800F0B0819BF80814002900F002
:104DA0007682856E7969FA69A847002840F0A48167
:104DB0001F48022100F0DAFA13E71E48002100F034
:104DC000D5FA0EE716481C4907F1140205F0F2FF68
:104DD000012800F0D1811248184906F065F8002832
:104DE000CAD1DBF80060002E00F01F823046B26BA3
:104DF00090471348032100F0B9FAF2E62068002832
:104E000000F07F8181688847DBF800200025084892
:104E100002216260256000F0A9FAE2E60C0A002097
:104E2000140A0020150A00200C1801085018010867
:104E300030170108CC070108341801084818010888
:104E40004418010820686E46002800F03C81036A7F
:104E5000826AD91D21F00705ADEB050D02AD29468B
:104E60009047DBF8003029461A6AA74800F082FB19
:104E7000DBF80020116A490000F078FAB546B0E688
:104E80002068002800F05881826B9047A9E62068CE
:104E90006E46002800F0178107F1180300939B4924
:104EA00007F1140207F11C03974805F083FFFA6924
:104EB000954BD11D21F00705ADEB050DB96902AD8C
:104EC0005918284600F09EFB7969FB69880702D1D2
:104ED0009A0700F0948120682A46D0F81C80C047C9
:104EE0002068C2689047002840F0E8808848022186
:104EF00000F03CFAC2E720686E46002800F0E3802C
:104F0000026A8449D51D25F00703ADEB030D02AD00
:104F1000284600F077FBDBF800002946C26A90477C
:104F20007B48022100F022FAA8E725686E46002D92
:104F300000F0C980784907F1140207F11C03724898
:104F400005F038FFFB697A69D91D21F00700ADEB48
:104F5000000D900702AD02D1990700F05F81206833
:104F60002946D0F818C0E0472068C268904700285A
:104F700040F0A4802946FA69634800F0FBFAFB6917
:104F8000590000F0F3F979E72668002E3FF429AEC6
:104F90003046B16B8847DBF800008568A847DBF82E
:104FA00000000022CBF80400CBF8002019E63046C0
:104FB000FFF74CFD15E62268002A00F09D809BF863
:104FC00009505648303DBEF15A0EDEF100065449F4
:104FD00007F11C0207F1180356EB0E0605F0EAFE76
:104FE000012D00F0BB80FFF6E8AE042D3FF7E5AEE3
:104FF000DBF80000D0F850C0BCF1000F3FF4DDAE8C
:10500000002E00F01F81E9B2FA693B7EE04728BB21
:105010003F48022100F0AAF9E3E5216800296BD09E
:1050200007F1180000903F4907F11C03364807F1CB
:10503000140205F0BFFE7969FB69880702D19A075F
:1050400000F0E4802068BA692F4EC569B218A847FD
:105050002068C368984700283FF4AAAE324803216D
:1050600000F084F9BDE5607A07F11C0107F118032F
:1050700000912D2814BF284640462C4907F1100204
:1050800005F098FE637A84462D2B396900F0AF80D5
:105090002068BA69036FC7F804C09847D7F804C0FE
:1050A000BCF1030F00F09A80F86820728646A9E5EB
:1050B000C36B7326FE609847206842E61A480321B6
:1050C00000F054F9DAE61A48032100F04FF9D5E66A
:1050D00018483146FA6900F0FBF982E5BA69DBF855
:1050E0000000B31AFB6138B1074EC56E7969B2187A
:1050F000A84700283FF45CAE0D48032100F036F9C4
:105100006FE5024682E600BF140A0020E41701089A
:1051100030170108150A0020D4170108160A0020CC
:105120008C18010824180108201701081418010818
:105130007C050108F8170108DBF8040000283FF49B
:1051400050AD584903F0B4FA856BCBF80000A8477E
:1051500047E55548032100F009F942E5DBF8000076
:10516000836C002B3FF429AE06B9C36CF9699847EC
:1051700000287FF473AF4BE740F65070C2F2000096
:105180000068002800F08B807D69012D1AD0D0F8CE
:10519000800005F00106022100285CD0A94211D050
:1051A00026B1D0F88000032150B954E0D0F8802017
:1051B0004B1C002A4FD0D2F88000591C00284AD03E
:1051C000A942F3D1374903F073FA206000283FF475
:1051D00045AF3648032100F0C9F802E53A7F432A7B
:1051E0007FF462AF3248614600F0C0F8F9E449420A
:1051F00039614DE72F48032100F0B8F8F1E4DBF8FE
:1052000000002A46D0F814C0E04769E6DBF8000049
:10521000BA69294E4569B218A84719E7DBF80000BA
:105220002946D0F81080C0479EE6DBF8040000282D
:105230003FF414AF1B4903F03BFA836BCBF800003B
:105240009847C6E7466DE9B2FA693B7EB047002849
:105250007FF404AFDCE62068B8E71748174907F188
:10526000140207F1180305F0A5FD01283FF436AF3D
:105270001148134905F018FE064600287FF49DAD3D
:105280001048022100F072F88BF80864A9E4836BDF
:1052900098470122DBF800008BF8082481E5DBF851
:1052A000000093E79D4900087805010844180108AB
:1052B00020180108F4170108140A002068180108D2
:1052C00080180108301701082DE9F043054683B026
:1052D0000F464FF00008FFF7C5FA2428287006D0C3
:1052E0000428F8D10124204603B0BDE8F08300244F
:1052F0002646FFF7B7FA23280DD0BC420BD024284E
:10530000F5D07D281FD028553618FFF7ABFA0134A9
:105310002328F6B2F1D1FFF7A5FA8DF80400FFF7C4
:10532000A1FA4FF000098DF805001022494601A8A6
:105330008DF8068006F0BEF886420FD02D200121A0
:10534000FFF74CFAC7E7FFF78DFA7D36311880F08A
:105350002000285501F0FF060134CAE72B20012167
:10536000FFF73CFA05F80490BDE700BF2DE9F047D0
:10537000804682B08A464FF0040947182420002155
:10538000FFF72CFABAF1000F40F39E80444614F860
:10539000015B6FEA0806A5F12303F019012B00F069
:1053A000010675D97D2D73D028460021FFF716FA26
:1053B000EDB2BC4230D086B198F801600134A6F15C
:1053C0002301012971D97D2E6FD030460021FFF7CE
:1053D00005FA7219D5B2BC421ED014F8016B7D20BB
:1053E000A6F12303012B45D9864243D03046002144
:1053F000FFF7F4F97519EEB214F8015B0021A5F17D
:105400002302012A27D97D2D25D02846FFF7E6F96A
:10541000A819BC42C5B2E0D100212320FFF7DEF974
:105420002A462A4901A805F09DFC00219DF80400A8
:10543000FFF7D4F901219DF80500FFF7CFF94FF4EC
:10544000FA60FFF755FA2B2802D0B9F1010995D17E
:1054500002B0BDE8F08785F020057D200021FFF730
:10546000BDF97D3628460021FFF7B8F9731903F01E
:10547000FF05B0E786F020060021FFF7AFF97D3584
:1054800030460021FFF7AAF9A91901F0FF06B3E79A
:105490007D20002185F02005FFF7A0F92846002196
:1054A0007D35FFF79BF9EDB283E77D20002186F083
:1054B0002006FFF793F97D3530460021FFF78EF97E
:1054C000A81900F0FF0586E70025A5E79818010850
:1054D0000FB400B583B004AB53F8041B01A81A46FF
:1054E000009307F08DFF01460198FFF73FFF0198F9
:1054F00005F030F803B05DF804EB04B0704700BF6E
:105500002DE9F04100AF054605F0BCFD410001F179
:10551000100323F00700ADEB000D4F226C46284628
:1055200004F8012B01F1010805F0ACFD2946024603
:10553000204600F01FF8684641466E46FFF716FF0A
:10554000BD46BDE8F08100BF0FB400B583B004AB29
:1055500053F8041B01A81A46009307F051FF019865
:10556000FFF7CEFF019804F0F5FF03B05DF804EB00
:1055700004B07047F0B4002A3FD00B78204C1D09CE
:10558000665D00EB4202067011F8013B151A03F04C
:105590000F06A65D831C023D9A424670C5F3400586
:1055A00027D065B10D782D09655D1D7011F8015B7F
:1055B00005F00F05655D5D7002339A4219D00F78D2
:1055C0000D463E09A75D9E1C1F7015F8017B07F074
:1055D0000F07E75D5F704F7829463D09655D9D7057
:1055E00011F8015B043305F00F05655D9A42757093
:1055F000E5D100211170F0BC70470246F9E700BF09
:10560000A018010870B4002A7BD011F8024BC643E1
:10561000A4F130038218DBB29519092B05F00106BD
:1056200007D9A4F13703DBB2102B84BFA4F15703D1
:10563000DBB21C01E5B200F8015B11F8014CA4F1EA
:105640003003DBB2092B5ED82B430231904200F8C5
:10565000013C55D0FEB111F8025CA5F13004E4B272
:10566000092C44D82501ECB200F8014B11F8015C7B
:10567000A5F13003DBB2092B07D9A5F13703DBB263
:10568000102B84BFA5F15703DBB2234302319042B4
:1056900000F8013C34D011F8024CA4F13005EDB211
:1056A000092D07D9A4F13703DDB2102D84BFA4F171
:1056B0005705EDB22C01E4B200F8014B11F8015C82
:1056C000A5F13003DBB2092B07D9A5F13703DBB213
:1056D000102B84BFA5F15703DBB2234300F8013C34
:1056E00011F8025BA5F13004E4B2092CBAD9A5F196
:1056F0003703DCB2102C84BFA5F15704E4B2B1E744
:10570000104670BC7047A4F13703DBB2102B84BF86
:10571000A4F15703DBB297E72DE9F04FB64F83B002
:105720000025B64E044602F083FF2946782238460B
:10573000356005F05DFA00F023FA00F005FB002C5F
:1057400000F040810320042100F088FB3068052828
:1057500038DC00EB800207EB82018B78102B31D80C
:105760002378002B2ED00134B8461BE0336814F8A0
:10577000010C03EB830207EB8201CD7007F82230A6
:105780008870013314F8010C03EB8302052B08EB3E
:1057900082013360054415DC8878102812D814F88B
:1057A000013B7BB101A80021954A00F0AFFB0198B5
:1057B000C307DBD44FF0FF3003B0BDE8F08F052AFC
:1057C00000F3FC800120014600F018FB01200221BB
:1057D00000F044FB0120032100F040FB894D002430
:1057E00007E09C4200F3EA80581E011B05F8141CD8
:1057F00001340020012100F001FB1435336800283A
:10580000EFD09C4240F0DA80012001467B4C00F052
:10581000F5FA0120022100F021FB2468002C00F0A1
:105820002681012C30D004EB840207EB82027648FB
:1058300012F8103C12F8124C111AE418A2F11403D9
:105840001439834202F8244CC1F380011CD051B1B9
:1058500013F8124C13F8101C611803F8241CA2F161
:105860002803834210D013F8124C13F8101CA3F134
:105870001402611813F8264C03F8241C283B09195C
:10588000834202F8241CEED100F05EFA01200321CD
:1058900000F0E4FA306800283DDDDFF85C914FF05D
:1058A000000A4FF0010B0020012100F0A7FA58B3C5
:1058B00000200121C9F808B000F0A0FA28B1D9F8F9
:1058C000085045F00203C9F8083004251E240121C0
:1058D000002000F093FA012105FA01F8013C28B1FB
:1058E000D9F8082042EA0500C9F80800002000F0B5
:1058F00085FA28B1D9F8081041EA0805C9F8085016
:10590000013C4FEA4805E2D133680AF1010A5345E8
:1059100009F11409C7DC0120014600F06FFA0120EB
:10592000022100F09BFA3268002A25DD40F2774B15
:10593000DFF8C490324D4FF0000AC0F6A03B4FF0A4
:10594000FF38D9F808E02EF0F02058451ED02F4B34
:10595000002104E060690EEA0000824217D01A6953
:105960001C4601311033002AF4D131680AF1010AD2
:10597000514509F11409E4DC254B1A68002A7CD052
:105980000020014601F0C8FA306815E7002105EB58
:1059900001114B698A69C9F81080C9F80C30002AD6
:1059A000E3D00AEB8A0007EB8000904731680AF1E8
:1059B000010A514509F11409C3DCDDE74FF0FF305E
:1059C0003060F9E60421032000F048FA2046012166
:1059D00000F014FA0028F1D033680124052BBC70C4
:1059E000ECDC03EB830007EB80018A78102AE5D812
:1059F000A146B0463D462BE028110020241100208E
:105A0000B4180108291100203C110020C018010819
:105A1000500F0020326802EB820307EB8301887885
:105A2000531C01283FF4CBAE9A00D11805EB81003E
:105A3000C8F8003080F80290C47005F82130D21800
:105A40000134052B07EB8201B8DC8B78102BB5D81D
:105A50000121002000F0D2F90028DBD133689A0040
:105A6000D01807EB8001887801308870E7E7054897
:105A7000012101F051FA20469EE60248012101F081
:105A80004BFA81E79005010870B5036982B08B423B
:105A900004460E4601913AD01E48016800291ADDDD
:105AA0001D4D01EB810205EB8200411B05F1140342
:105AB00014394FF0FF3283422A61C1F380010AD0CA
:105AC00021B11A6105F12803834204D01A615A6298
:105AD00028338342FAD103200421266100F0BEF965
:105AE0000020E2780D4900F0B1FA207901A9D0F147
:105AF000010038BF0020A27800F0A8FA0120074971
:105B0000227900F0A3FA0120022100F0A7F902B0E7
:105B100070BD00BF2411002028110020B418010816
:105B2000F8B504460D460120032116461F4600F035
:105B300095F900201149227800F088FAA5B1617822
:105B40002846D1F1010138BF002132463B4600F022
:105B5000DDF901200949627800F078FA012002217C
:105B6000BDE8F84000F07AB960783146D0F1010024
:105B700038BF00203A4600F069FAEAE7B418010895
:105B80004FF400602DE9F84FC4F201000321002218
:105B9000102303F013FB4FF4016240F6140340F6A8
:105BA000080C3320C4F201024FF01009C4F20103C3
:105BB0004FF008082021C4F2010CC2F80090A3F8AD
:105BC00000801160DCF800401980C2F80090A3F852
:105BD00000801160DCF800401980C2F80090A3F842
:105BE00000801160DCF800604FF4016440F6140599
:105BF00040F6080720260338C4F2010419804FF04C
:105C0000100BC4F201054FF0080AC4F20107D4D109
:105C1000A5F800B0C4F800A026603B682E80A5F867
:105C200000B0C4F800A026603B682E80C4F800B025
:105C3000C4F800A026603B682E80C4F800B0C4F809
:105C400000A026603B682E80C4F800B0C4F800A015
:105C500026603B682E80C4F800B0C4F800A026601F
:105C60003B682E80A5F800B0C4F800A026603B6811
:105C70002E80A5F800B0C4F800A026603B682E80F6
:105C8000C4F800B0C4F800A026603B682E80C4F8B9
:105C900000B0C4F800A026603B682E80C4F800B0B5
:105CA000C4F800A026603B682E80A5F800B0C4F8B8
:105CB00000A026603B682E80A5F800B0C4F800A0C4
:105CC00026603B682E80C4F800B0C4F800A02660AF
:105CD0003B682E80C4F800B0C4F800A026603B6882
:105CE0002E80C4F800B0C4F800A026603B682E8067
:105CF000C4F800B0C4F800A026603B682E80C4F849
:105D000000B0C4F800A026603B682E80C4F800B044
:105D1000C4F800A026603B682E80C4F800B0C4F828
:105D200000A026603B682E80C4F800B0C4F800A034
:105D300026603B682E80A5F800B0C4F800A026605D
:105D40003B682E80BDE8F88FF0B440F6144382B073
:105D500002220020C4F201031A800190019942F24C
:105D60000F74A14206DC00BF019D6E1C0196019FCD
:105D7000A742F8DD4FF441664FF40163C4F201031A
:105D8000202210250824C4F2010640F6080040F63F
:105D9000140102273760C4F201011D60C4F2010042
:105DA0001C601A6006680A801D601C601A60066824
:105DB0000A801D601C601A6006680A801D601C60F5
:105DC0001A6006680A801D601C601A6006680A80F6
:105DD0000D801C601A6003680A8002B0F0BC704736
:105DE00010B5044601F014F834B142F2107000BF4F
:105DF000431E00BF581EFAD110BD00BFF8B14FF4CA
:105E00000160C4F201001023036001BB40F61401DD
:105E1000C4F2010108220A804FF401612022C4F279
:105E2000010140F608000A60C4F20100016840F672
:105E30001403C4F201031A80C1F38010704740F6C6
:105E40001403C4F2010310221A800029DED04FF49B
:105E50000160C4F2010008230360DDE72DE9F003CF
:105E600001F1FF3900294BD020254FF4016340F6A2
:105E7000140240F608041027C607C4F20103C4F256
:105E800001024FF00808C4F20104AC4609F0010118
:105E900039D41780C3F800801D6026684008A2F836
:105EA00000C009F1FF36B9F1000F29D0C1B1C10717
:105EB0004CBF1F601780C3F80080013E1D60216841
:105EC0004008711CA2F800C00AD119E01F60C3F895
:105ED00000801D6026684008A2F800C04E1E79B1FF
:105EE000C1074CBF1F601780C3F8008040081D60C9
:105EF0002168711EC607A2F800C0E7D41780E6E744
:105F0000BDE8F00370471F60C4E700BF2DE9F0074C
:105F100040F6080C40F614054FF40166894601244A
:105F20002027D907C4F201054FF01008C4F201067A
:105F30004FF0080AC4F2010C18D51178013B01F0AA
:105F4000010473D0A5F80080002C76D1A5F800A03C
:105F50003760DCF800102F8001F04004A1B2002966
:105F60006ED1047804F0FE0101700224591E002B4A
:105F70003FD01378234000294CD1B9F1000F49D00C
:105F8000C6F80080002B49D0C6F800A03760DCF8C6
:105F900000302F8003F040039BB2002B41D00378E8
:105FA00023430370640014F0FF0402D10132013076
:105FB00001244B1E117801EA04011DD0A5F80080D0
:105FC00009BBA5F800A03760DCF800102F8001F0B5
:105FD000400189B2D1B9017821EA0401017064005D
:105FE00014F0FF04C2D1013201300124591E002BEC
:105FF000BFD1BDE8F0077047B9F1000FDED0C6F899
:1060000000800029DDD0C6F800A0DCE7017821433C
:106010000170E4E7A5F80080002BB5D1A5F800A039
:10602000B4E7037823EA04030370BBE7B9F1000F78
:1060300088D0C6F80080002C88D0C6F800A087E77A
:10604000047844F00101017002248FE72DE9F00388
:1060500040F614034FF4016440F6080C8046012713
:1060600010202025D607C4F20103C4F201044FF02A
:106070000809C4F2010C0ED50E78013A06F00107AA
:1060800048D01880002F4BD1A3F800902560DCF891
:10609000006002271D80561E5AB30A783A40002E2F
:1060A00036D1B8F1000F33D02060002A2DD0C4F8CB
:1060B00000907F00256017F0FF07DCF800201D80AE
:1060C00001D101310127721E0E7806EA070613D0AE
:1060D0001880BEB9A3F800907F00256017F0FF0775
:1060E000DCF800601D80D6D101310127561E002A40
:1060F000D3D1BDE8F0037047B8F1000FE8D02060BD
:10610000002EE7D0C4F80090E6E7A3F80090D0E7AF
:106110001880CAE7B8F1000FB3D02060002FB3D0C9
:10612000C4F80090B2E700BF2DE9F04198464FEA6D
:10613000A3039C00123424F0070500AFADEB050D5E
:106140000446009102A811464246019304F0A2FCC5
:106150004FF000510F4A302366692046B047302186
:1061600008F10803C2F200016A4665692046A847A3
:106170004FF00051626B20469047636C204600212F
:106180009847216C204688470028FAD00020BD4659
:10619000BDE8F081100000202DE9F043D0F88450D4
:1061A00022F47F77522283B021F47F7828460021A1
:1061B000CAF20022FCF716F84FF450436868C4F2A4
:1061C0000F03009327F003078469012100220423B1
:1061D00028F00308A04737B34FF00209CAF242493A
:1061E0000026284610214246FBF7FCFF6868CDF8E0
:1061F00000900121002208238469A04768680121DA
:10620000009684690A460823A04768680121009621
:10621000082384690A46A0478307F6D4B7F5806748
:1062200008F58068DDD1002003B0BDE8F08300BF31
:106230004EF2040110B5C4F20F010446D0F88400F8
:10624000FCF77AFA41F24903B3EB104F01D000207A
:1062500010BD05480549064B00F1180260676266EB
:10626000A166E366012010BDC81B01089961000802
:1062700029610008026A2DE9F041002AB8BF033203
:106280000B4622F0030104460A31234821F007059A
:106290004FF000084FF43E4600AF0246ADEB050D4F
:1062A00006804FF08051A0F8028066692046B04712
:1062B0006946A36A2046984718264FF0040E4FF40B
:1062C000FC60012241F6F173C1F20002C1F2000E3E
:1062D000C1F20000C1F6FF73C1F2000669461190D9
:1062E0000E92CDF800E001960F93E56A2046A8478C
:1062F000626C204641469047216C20468847002822
:10630000FAD02569204604494FF080522823A84737
:10631000BD46BDE8F08100BF180E00202DE9F8430E
:10632000114C00234E1E254645F8103BB218120BA7
:106330000E0B2B606361A361E3612362636228211A
:1063400032236360A660E260FFF794FFA06904F166
:10635000140904F1180804F12407002814BF4FF0B1
:10636000FF300020BDE8F883180E00202DE9F04F23
:1063700001F1FF391F464B444FEA112B4FEA132915
:1063800085B0C9B2CB4580461646029173D8282005
:10639000C1F20000DFF8E8A04FEA0B255C4603904D
:1063A0002FE0314635484FF4807204F073FBA7F5B7
:1063B000807706F5807629464FF480724046FFF7D5
:1063C000ADFF01344FF4947100284FD1039A332369
:1063D0004046CAF80430CAF80C204FF4807342F6E5
:1063E000E062CAF80850CAF81030CAF81420FFF763
:1063F00041FFDAF8180005F58075002836D1A1456F
:1064000039D35C4501D04C45CBD1FF214FF480728C
:106410001A4804F0EDFB029A3146C2F5807310462B
:10642000BB42A8BF3B4628301A465044019304F0B3
:1064300031FB01997F1A7618ACB90AF128030ECB0B
:106440008818DAF83420C118DAF838308818DAF801
:106450003C20C118DAF840308818C2185142CAF8F6
:1064600044100294A7E700220292A4E74FF0FF3005
:1064700005B0BDE8F08F0020FAE700BF400E002015
:10648000180E0020F8B50B051B0D0D4606461746E5
:10649000EBB9FFF743FFD0B9681E0E4CC71928218E
:1064A000342242F6E0633F0B2D0B30466260A5605C
:1064B000E7602361FFF7DEFEA16941B9304635226E
:1064C00028216260FFF7D6FEA06900B9F8BD4FF041
:1064D000FF30F8BD180E002048F2F43110B5C4F2B8
:1064E00004010446D0F88400FCF726F941F22B039E
:1064F000C1F2314398421AD023D949F22B03C2F298
:106500002453984213D049F22B0136D9C2F23251AA
:1065100088420CD067D941F22B01C2F24051884227
:1065200005D049F22B02C2F24052904223D13848A2
:10653000384B3949394A60676366A166E2660120D3
:1065400010BD45F22B01C0F234418842EFD026D96C
:1065500049F22B02C0F640229042E8D041F22B03D0
:1065600031D8C0F244439842E1D045F22B01C0F249
:1065700044418842DBD0002010BDC1F64021884252
:10658000D5D03DD949F22B03C2F216539842CED052
:106590004DF22B01C2F216518842ECD1C7E745F209
:1065A0002B02C0F21E429042C1D045F22B0315D9F6
:1065B000C0F225439842BAD041F22B01C0F23441D7
:1065C0008842D8D1B3E7C1F221439842AFD041F21B
:1065D0002B02C1F230429042CDD1A8E7C0F216435F
:1065E0009842C8D1A3E74DF22B02C2F22452904246
:1065F0009DD041F22B03C2F232539842BBD196E7B1
:1066000041F22B02C1F240429042B4D18FE700BF69
:10661000981D0108B81C0108856400086D63000816
:106620004FF6FF7200F16643C0F20702934203D9AE
:1066300000F16543934209D8B3F5803F04D3A3F535
:106640008030000C08307047580B70474FF0FF3017
:10665000704700BF2DE9F04383B00446006A8846C6
:106660000028B8BF033020F003010A3100AF1646FE
:1066700021F007034FF48072ADEB030D391DC1F219
:106680004002042325692046A8474FF000094FF433
:106690003E404FF4404133464246C2F20001A8F862
:1066A00000006669A8F802902046B0476946A26AD1
:1066B000204690474CF21C00C2F2000001904CF2C0
:1066C000040678684A464CF20103C2F20102C2F2A3
:1066D0000003C2F20006694611920F9000960E93D5
:1066E000E56A2046A847626C204649469047216CDF
:1066F000204688470028FAD04FF4404225692046BA
:106700004146C2F200023023A84707F10C07BD46FC
:10671000BDE8F08300B5ADF5815D85B0312301930F
:106720006946002330220793FFF794FF079800285B
:1067300014BF4FF0FF3000200DB00DF5805D00BD9F
:106740002DE9F043ADF5815D85B005463226FFF7B2
:10675000E1FF0E2400232846694630220293049369
:10676000079301960394FFF775FF079B002B37D122
:106770004FF0340842F6E06728466946302202931B
:106780000593CDF8048003940497FFF763FF079BFC
:10679000002B25D14FF0010928466946302202938B
:1067A00001960394CDF81090FFF754FF079BBBB9F7
:1067B000284669463022CDF804800293039404975A
:1067C000CDF814900793FFF745FF079840B90548A7
:1067D000FEF7BAFE48460DB00DF5805DBDE8F083CA
:1067E0000020F8E77420010870B5ADF5815D84B034
:1067F0003223054608460C4616460193FFF710FF64
:1068000002903019FFF70CFF4FF6FF7104F166425A
:10681000C0F207018A42039018D904F165448C4202
:106820008CBF4FF0FF3301232846049369460023B1
:1068300030220793FFF70EFF0798002814BF4FF090
:10684000FF3000200CB00DF5805D70BD0023EBE73C
:106850002DE9F043CB04ADF5815D0C46D90C85B034
:106860000546164600295AD1FFF754FF002856D195
:10687000284621463246FFF7B7FF814600284ED111
:10688000342220460192FFF7CBFE074630190297CB
:10689000FFF7C6FE80464FF6FF7004F16646C0F271
:1068A000070042F6E0638642CDF80C80049332D9AB
:1068B00004F1654981458CBF4FF0FF33012330223D
:1068C00005932846002369460793FFF7C3FE079AFE
:1068D000002A24D14FF6FF70C0F20700352186420E
:1068E00001910297CDF80C8017D904F165448442D8
:1068F0008CBF4FF0FF3301232846049369460023E1
:1069000030220793FFF7A6FE079840B90DB00DF5AA
:10691000805DBDE8F0834B46D1E71346ECE74FF0CE
:10692000FF30F3E72DE9F04F9A46ADF5825D4B1E3F
:1069300085B003EB0A060F054FEA113B0691310BB8
:106940003F0D8B45039106469146049700F29280D5
:106950004CF230004FF6FF72C2F20000C0F20702A4
:106960004FEA0B385D4608AC0590079205E0039F9F
:106970000135AF4208F580587CD35D4562D0039F56
:10698000BD425FD0494614A84FF4805204F082F80B
:10699000AAF5805A09F58059304641464FF4805295
:1069A000FFF722FF8446002845D14CF23001C2F2A5
:1069B000000114AA4FF48053CDF804C07769304623
:1069C000B84733236360059F4FF48053236103F579
:1069D000F7536361C4F80880E760DDF804C030460F
:1069E000214641F23002C4F81CC0FFF733FEE369D0
:1069F0000BBB5D45BBD10699079F01F166403C2268
:106A0000B842626008D9069F07F16543079FBB4201
:106A10008CBF4FF0FF330123A36042F6E0632146B1
:106A2000E3603046002341F23002E361FFF712FEDB
:106A3000E16900299BD04FF0FF3015B00DF5805D66
:106A4000BDE8F08FFF214FF4805214A804F0D0F875
:106A5000049B4946C3F580575745A8BF5746303376
:106A60003A46E018C7EB0A0AB944002704F012F8C6
:106A7000049791E70020E0E74FF4485138B5C4F29D
:106A800004010446D0F88400FBF756FE4FF46D4134
:106A90000546CEF20001D4F88400FBF74DFE2B230F
:106AA000C5F606139D421FD02B21C6F606118D4256
:106AB0001AD02B22C4F60612954201D0002038BD10
:106AC00020F47F014FF4424321F00F02C4F200137F
:106AD0009A421ED04CF24021C4F200118A421FD0CB
:106AE0001B4B0120636738BD20F47F024FF4424105
:106AF00022F00F00C4F2001188420AD04CF2402369
:106B0000C4F2001398424FF0010006D0104A6267A9
:106B100038BD104B0120636738BD0F49616738BD30
:106B20004CF24121C4F20F110B4A8842626701D036
:106B3000012038BD094B0A490A486166A066E36630
:106B4000204601F52F71084A01F098FD012038BD5B
:106B5000B02001089C200108802001082569000858
:106B6000A01D0108516800089420010808B500F034
:106B700037F848B941F2A810C2F2000004F0E4F876
:106B8000FEF71EF8002008BD02482C21024A034BE4
:106B900003F05EFCF4200108EC200108FC20010851
:106BA00010B50E4C2068431C00D010BD4FF440605F
:106BB00000210222E023C4F2010002F0FFFA40F6B5
:106BC0001442C4F20102E02140F608431180C4F2ED
:106BD00001031868C0F34210206010BD400000207F
:106BE00038B502F0E7FB41F21C00C4F202004FF49A
:106BF000000102F081FB41F218000421C4F20200FE
:106C000002F07AFB41F218000821C4F2020002F0FF
:106C100073FB41F218000121C4F2020002F06CFB88
:106C200041F214004021C4F2020040F6140402F0C4
:106C300063FB4FF48075C4F201044FF4006000213F
:106C40000122C4F201002B46258002F0B7FA4FF46E
:106C50000060002238230321C4F2010002F0AEFAE2
:106C60004FF40060C4F201004FF4014102F0F7FB61
:106C70004FF44060C4F201004FF4005102F0EFFB0A
:106C80004FF40060C4F2010048F2801102F0E7FB0B
:106C90004FF44060C4F2010042F2020102F0DFFB57
:106CA0004FF4406002210022C4F2010040F6044388
:106CB00002F084FA4FF40060022100228023C4F223
:106CC000010002F07BFAFFF76BFF002840F39C8085
:106CD0004FF40160C4F20100042202604FF400602E
:106CE000032100220423C4F2010002F067FA00200D
:106CF00003F064FB4BF6A030C0F20D0003F056FB2E
:106D00004EF62351CEF200010B7803F00F0008700D
:106D10000A7842F0E0030B7003F05AFB03F060FBCB
:106D200001F0BEFFFFF73CFF00285EDD41F21800D6
:106D3000C4F202004FF4007102F0DEFA00214FF4B9
:106D400040600A460123C4F2010002F037FA4FF412
:106D50001050C4F2010002F02BF94FF41050C4F2AD
:106D6000010002F0FDF84FF41050C4F2010002F0EF
:106D70001AF94FF41050C4F2010002F0F6F84FF483
:106D80001050C4F2010002F0F5F84FF41050C4F2B4
:106D90000100032102F011F94FF41050C4F2010078
:106DA00002F0C8F84FF45452C0F20C0200BF501E5B
:106DB00000BF421EFAD14FF41050C4F2010002F09D
:106DC000DEF84FF41050C4F2010002F0E2F84EF683
:106DD0000853CEF200034FF40051196001F05EFD3C
:106DE0000020FEF799FC002038BD40F61441012335
:106DF000C4F201014FF440600B80C4F20100002195
:106E0000022202F0DBF9E2E70423238066E700BFF9
:106E100010B50446FFF7C4FE38B944B14FF4016021
:106E2000C4F201000421016010BD002CF6D040F630
:106E30001403C4F2010304221A8010BD024A106038
:106E40001368002BFCD17047A411002008B52D4B0E
:106E50001878002845D12C490A6812B10B68581ED1
:106E600008602A4B196800292CD01A79002A2AD1E7
:106E7000186810F8011B186049B9197A00293ED02A
:106E8000234A106818601A6812F8011B1A60413909
:106E9000C9B219292ED81F4A02EB810032F82120ED
:106EA000817802F00100DA80197188B14FF44161F4
:106EB000C4F201014FF40060086019795208481EBD
:106EC000DA80187108BDDA8802F001000028EDD1DF
:106ED00040F61442C4F201024FF400611180DA88D6
:106EE000EBE74FF44060C4F201004FF4806102F020
:106EF000B2FAB0E700200422D8801A71E8E71960DE
:106F000008BD00BF04120020A4110020400F002083
:106F1000A01100201421010840F6407341F2A01294
:106F200010B4C2F2000340F61444C2F2000218602A
:106F30001060C4F201044FF400601972208010BC8C
:106F4000704700BF10B582B0FFF72AFE60B940F667
:106F50000840C4F2010002682649274812F0010FD8
:106F600018BF084602B010BD02AA08234FF4105003
:106F7000C4F2010002F8013D012102F033F84FF4A0
:106F80001050C4F2010001F0DDFF4FF41050C4F2C4
:106F9000010001F0DFFF0028F7D04FF41050C4F2D9
:106FA000010001F0DBFF412100EB400000EB40104D
:106FB000C0F20801A1FB0024021B04EB52034CF6B3
:106FC000CD44CCF6CC441B0BA4FB034243F2673107
:106FD000CCF6D341A1FB0041D00800EB8004074A66
:106FE000090CA3EB44033031303311719371101D40
:106FF000B8E700BF301701087C21010840000020DD
:107000004FF4406008B500224FF48053C4F20100F1
:10701000022102F0D3F840F61443C4F201034FF406
:1070200080521A8008BD00BF08B540F60843C4F27C
:107030000103196801F4005081B24FF40060C4F2FA
:10704000010051B901224FF4807302F0B7F84FF4F8
:107050000050BDE8084002F02BB8012100224FF497
:10706000807302F0ABF8F2E770B5E021282003F05E
:10707000D5F9282003F0C4F94FF440654FF441607E
:107080004FF401614FF40054C4F20105C4F2010051
:10709000C4F201014FF480760222234604602846A0
:1070A0000E60002102F08AF82046294602F006F818
:1070B0002046022101F0D2FF204601F0EDFFFFF74C
:1070C000B3FF70BD70B5D0F8845042F0B4420E46A4
:1070D00004460431284642EA0322FBF7B7F8083693
:1070E00031462846FBF728FB10F0010F204606D159
:1070F000E36898470028F3D04FF0FF3070BD284672
:107100003146FBF719FB00F0060070BD70B505466F
:107110000E46406F1F49144603F0C6FEA0B92B6E01
:1071200003F47060B0F5106F17D0B0F5206F28D061
:10713000B0F5E06F1DD0FCB1A6F500264FF420603D
:107140002660C4F20E0070BDB4B1A6F580064FF4FF
:1071500020602660C4F20E0070BD4FF420218E42E4
:10716000E9D98CB1761A4FF460602660C4F20E0043
:1071700070BD4FF41021F2E74FF42060C4F20E000E
:1071800070BD4FF44021EAE74FF46060C4F20E0096
:1071900070BD00BFD8230108002170B50A4605461E
:1071A000D0F88460FFF7B2FF04460D220023214689
:1071B0002846FFF787FF04F10C013046FBF7BCFAC5
:1071C000014642F2E430C0F60100FEF7BDF90120AD
:1071D00070BD00BFF8B50C46002116460A460546AC
:1071E000FFF794FF032C074604D00D48FEF788F9FB
:1071F0000020F8BD706803F04FF90446B06803F052
:107200004BF9394600280CBF0C220B22A3B22846AA
:10721000FFF758FF2846FFF7BFFF0120F8BD00BF6A
:10722000F42301082DE9F043C3B0174601AA05462F
:107230008946FFF76BFF019CFF214FF48072804667
:1072400002A803F0D5FC6E692846494602AA4FF40D
:107250008073240AB047002F32D0A7F580772846E4
:1072600041460322A3B2C7F30026FFF72BFF20BB42
:1072700001342FB396B1284641460322A3B2FFF74B
:1072800021FFD0B90134B7F5807707D118E028463F
:10729000FFF718FF88B9B7F5807711D0A3B2414640
:1072A00003222846FFF70EFF661C41460322B3B2B5
:1072B000A7F5807702340028E9D04FF0FF3000E0D6
:1072C000002043B0BDE8F0832DE9F04FC5B017466C
:1072D00003AA99460D460446FFF718FF039B834611
:1072E0005E1E06EB0900DAB24FEA132A060AAD1A4F
:1072F000B2450392009500F2B080CAEB060505F096
:107300000103FF214FF4807204A8019303F070FC85
:10731000039804ADC0F58078C145B8BFC846424661
:107320003946281803F0B6FB002104AA4FF48073F5
:107330000391656900992046A847204659460122D5
:107340001FFA8AF3C8EB0909B844FFF7BBFE00280F
:1073500040F087800AF10105AE427ED3019FFFB164
:1073600055454AD0B54248D0414604A84FF48072F2
:1073700003F090FBA9F5807908F5807804AA4FF412
:107380008073009967692046B84720465946012214
:10739000ABB2FFF797FE002863D10135AE425CD354
:1073A000554542D0B54240D0414604A84FF48072C2
:1073B00003F070FBA9F5807908F5807804AA4FF4F2
:1073C0008073009967692046B847204659460122D4
:1073D000ABB2FFF777FE002843D1013555450CD0FD
:1073E000B5420AD0414604A84FF4807203F052FB24
:1073F000A9F5807908F58078C0E7FF214FF4807205
:1074000004A803F0F5FB039A04ABC2F58077B945F5
:10741000B8BF4F46414698183A4603F03BFB002060
:10742000C7EB0909B8440390A8E7FF214FF4807225
:1074300004A803F0DDFB039A04ABC2F58077B945DD
:10744000B8BF4F46414698183A4603F023FB002147
:10745000C7EB0909B8440391B0E7002045B0BDE887
:10746000F08F4FF0FF30F9E738B5D0F884504FF483
:1074700014610446C4F20E012846FBF75DF9E023CF
:107480006022C0F6F0730340C0F6500293422066BB
:1074900035D06020C0F66000834230D06021C0F655
:1074A00040018B422BD04FF4E8612846C4F20E0114
:1074B000FBF742F9E0236022C0F6F0730340C0F608
:1074C0004012934220660BD06020C0F650108342D9
:1074D00006D06021C0F630118B4201D0002038BDAB
:1074E0000F4B1049104A11486166A266E066636757
:1074F000204624390E4A01F0C1F8012038BD0D4B59
:107500000D49094A09486166A266E066636720463C
:1075100001F58C71094A01F0B1F8012038BD00BFB6
:1075200024240108C022010825720008C97200083D
:1075300030240108D8230108842101081C240108F3
:1075400038B542F20404C4F2020440F22312214688
:10755000C4F267520546FAF779FE48F6AB122846A0
:107560002146CCF6EF52BDE83840FAF76FBE00BFB7
:1075700038B5D0F8845004462846FFF7E1FF42F2C0
:1075800010012846C4F202010422FAF75FFE42F21B
:1075900010012846C4F202014422FAF757FE42F2D3
:1075A0000C01C4F202012846FBF7C6F810F0010FE7
:1075B000204605D0E26890470028F0D0002038BD72
:1075C00042F20C012846C4F20201FBF7B5F800F0C4
:1075D0003400B0F12003594251EB030038BD00BF25
:1075E0002DE9F843D0F88460C3F10005044605EAAC
:1075F00002073046984605EA0109FFF7A1FF77B375
:1076000042F210013046C4F202010222FAF71EFED5
:1076100042F2140130464A46C4F20201FAF716FE5D
:1076200042F210013046C4F202014222FAF70EFE85
:1076300042F20C01C4F202013046FBF77DF810F073
:10764000010F204607D0E568A8470028F0D04FF08A
:10765000FF30BDE8F883B7EB0807C144D0D142F250
:107660000C013046C4F20201FBF766F800F034006A
:107670002028ECD10020BDE8F88300BF4FF4006360
:10768000FFF7AEBF4FF48063FFF7AABFF8B5D0F89D
:1076900084500F4642F210011646C4F202014FF424
:1076A000047204462846FAF7D1FD28463946324688
:1076B000FAF7B2FD42F20C01C4F202012846FBF7D0
:1076C0003BF810F0010F204605D0E36898470028EA
:1076D000F0D00020F8BD0120F8BD00BF036E2DE9F9
:1076E000F0410546A3F222401E280E461746D5F863
:1076F000844009D8012202FA00F31146C4F20101C4
:107700001940002940F0888045F6A5282046FFF75B
:1077100017FF42F2080140F223122046C4F2020190
:10772000C4F26752FAF792FD42F2080148F6AB1232
:107730002046C4F20201CCF6EF52FAF787FD022E82
:107740007ED0032E6BD05848FDF7DAFE5748FDF780
:10775000D7FE4FF478412046C1F6FF71FAF7ECFFEF
:107760004FF47841054682B2C1F6FF715048FDF7EB
:10777000EBFE4FF602012A0CC1F6FF714C48FDF7F3
:10778000E3FE4FF604012046C1F6FF71FAF7D4FF7D
:107790004FF60401054682B2C1F6FF714448FDF779
:1077A000D3FE4FF606012A0CC1F6FF714048FDF7E3
:1077B000CBFE4FF608012046C1F6FF71FAF7BCFF79
:1077C0004FF60801054682B2C1F6FF713848FDF751
:1077D000BBFE4FF60A012A0CC1F6FF713448FDF7D3
:1077E000B3FE4FF60C012046C1F6FF71FAF7A4FF75
:1077F0004FF60C01044682B2C1F6FF712C48FDF72A
:10780000A3FE4FF60E012A48C1F6FF71220CFDF7C8
:107810009BFE0120BDE8F08145F2AA5876E70021E1
:107820000A46786803F046FE002106460A46B86814
:1078300003F040FE314682B22846FFF727FF88E773
:1078400078681C4903F030FB00287FF47CAFD5F842
:10785000846042F210013046C4F202014FF4087213
:10786000FAF7F4FC42F210013046C4F202014FF480
:107870001872FAF7EBFC42F20C01C4F20201304636
:10788000FAF75AFF10F0010F284603D0EA68904734
:107890000028F0D04FF478412846C1F6FF714246E7
:1078A000FFF7F4FE55E700BFB0260108D026010817
:1078B000A0260108982601082DE9F04701F00306EB
:1078C0009846F31C8E4603EB08018B089C0012348B
:1078D00024F0070500AFADEB050D0DF1080A0446D5
:1078E000C6EB0E0E4FF0FF3C11464FEA83094246AD
:1078F00001330AEB0600CDF800E0CDF808C0CDF862
:107900000490D4F884904DF823C003F0C3F84FF0EE
:107910000051184A2C2320466669B0472C2108F1F3
:1079200008036A46C2F2000165692046A8474FF085
:107930000051626B20469047E16820468847014627
:10794000A0B9636C20469847226C204690470028D7
:10795000FAD042F20C014846C4F20201FAF7ECFEFA
:1079600010F0140002D1BD46BDE8F0874FF0FF30A3
:10797000F9E700BF4C0000204FF4005110B5CEF2E3
:1079800004010446D0F88400FAF7D6FE0005010D84
:10799000A1F582632166222B44D8DFE803F033434C
:1079A0003343234343432343434343434343334307
:1079B00012434343434323434343434343434343E8
:1079C0001200294A294B2A49A2F1E0006267606649
:1079D000A1662046A2F58E71E366264A00F04EFEAF
:1079E000012010BD2449214B214801F11802616793
:1079F0006266A066E36620462439204A00F03EFE17
:107A0000012010BD1E49194B1E4801F11802616783
:107A10006266A066E3662046F4311B4A00F02EFE43
:107A2000012010BD4FF4B041C4F20101D4F884002C
:107A3000FAF782FE01050A0DB2F5886F226601D0C1
:107A4000002010BD11490F4B084AA1F50170616774
:107A50006066E2662046A366A1F594710C4A00F0C8
:107A60000DFE012010BD00BF80260108B978000876
:107A70007D760008102701088825010804270108E1
:107A80007024010885760008F82601088C26010874
:107A90001827010870B5D0F884500E4642F63B22F4
:107AA00043F60841C4F20201C0F619020446284612
:107AB000FAF7CCFB43F6084146F67F622846C4F24B
:107AC0000201C4F65D42FAF7C1FB43F60C41C4F271
:107AD00002012846FAF730FE10F4803F204605D018
