:020000040800F2
:1000000000500020E5150008E3150008E115000880
:10001000E1150008E1150008E115000800000000E6
:10002000000000000000000000000000E3150008D0
:10003000E315000800000000E3150008590100085E
:10004000E1150008E1150008E1150008E1150008B8
:10005000E1150008E1150008E1150008E1150008A8
:10006000E1150008E1150008E1150008E115000898
:10007000E1150008E1150008E1150008E115000888
:10008000E1150008E1150008E1150008E115000878
:10009000E1150008E1150008E1150008E115000868
:1000A000E1150008E1150008E1150008E115000858
:1000B000E1150008E1150008E1150008E115000848
:1000C000E1150008E1150008E1150008E115000838
:1000D000E1150008E1150008E1150008E115000828
:1000E000E1150008E1150008E1150008E115000818
:1000F000E1150008E1150008E1150008E115000808
:10010000E1150008E1150008E1150008E1150008F7
:10011000E1150008E1150008E1150008E1150008E7
:10012000E1150008E1150008E1150008E1150008D7
:10013000E1150008E1150008E1150008E1150008C7
:10014000E1150008E1150008E1150008E1150008B7
:1001500008B501F0A9FA00BF4FF44060C4F20100F5
:100160004FF4006100F0F9BB41F2180008B5C4F289
:100170000200082100F056FB4FF44060C4F2010079
:100180004FF4805100F0E6FB08B100F033FA00F0C4
:100190002FFA00F09BFB002001F06CFA4BF6A03028
:1001A000C0F20D0001F05EFA41F218000421C4F221
:1001B000020000F037FB41F21C00C4F202004FF4D1
:1001C000000100F02FFB00214FF400600A46C4F24A
:1001D00001004FF4807300F087FA01F055FA01F046
:1001E0005BFA4FF4406002210022C4F201004FF498
:1001F000006300F079FA4FF44060012240F20443BA
:100200000021C4F2010000F06FFA0C4800F000F980
:100210004FF40060C4F201004FF4807100F098FBCD
:100220004FF40060C4F20100022100224FF48073F9
:1002300000F05AFA00F098F9002008BD9019000863
:10024000F0B50878144600F07F02212A83B002D06E
:10025000002003B0F0BD4878421E052AF8D801A05E
:1002600050F822F0D5020008510200089902000857
:100270008D0200087D020008E50200083948216867
:1002800000780122087010461A80E2E7354B197891
:100290000A2948D00120DCE7324D26682A78032A53
:1002A00025D0062A57D000210F468C4600253570F0
:1002B000266886F801C02068877026680120F170E2
:1002C00021680A712268062155711980264A089B07
:1002D0001A60BEE70BB1188848BB22490620087097
:1002E0000120B6E71F4B02221A700120B1E71F4A16
:1002F000D07817790104507801EB076197780918D5
:1003000001EB072110780427B2F808242F7001931D
:1003100000F06CF92A785FFA80FCC0F30727C0F37D
:100320000741019BC2E702201870012091E78878FD
:10033000C9780E4A40EA0120A2F80804198810463C
:10034000A2F800141A88216801F0B6F9054B0322BF
:100350001A7001207DE7002107222A700F468C4683
:10036000A4E700BF00000020710300082000002067
:10037000F8B5254C06462378042B02D0072B25D050
:10038000F8BD224D00F060F9B5F8081400292AD113
:10039000EF78297938046B7800EB0167AA78F918AF
:1003A00041F6FF7001EB0227C0F60000874211D929
:1003B000D5F80C349F420DD22A78212A21D0412A27
:1003C0001CD000F053F905212170F8BDBDE8F840BC
:1003D000FFF7BEBE00F04AF9304600210122BDE819
:1003E000F84000F010BBD5F804048A1E00EB822010
:1003F0002946B5F8002400F0CFF8E2E7384600F0CF
:10040000BBF8C5F80474DCE70000002020000020E1
:100410004FF2E8734FF2EC72C1F6FF73C1F6FF7250
:100420004FF2F0712DE9F043C1F6FF711D681468B9
:100430004FF2E0760F686319C1F6FF763268DB1978
:1004400003F00F08C3F3031CC3F3032EC3F30337F6
:10045000C3F30346C3F30355C3F303611B0F3C4CC3
:100460004FEA822903F130023037303630353031EF
:1004700008F130080CF1300C0EF1300E392A85B03D
:10048000C4F80C9484F8178484F816C484F815E42E
:1004900084F8147484F8136484F8125484F81114E2
:1004A00084F8102402D9373384F8103494F81154A6
:1004B000392D03D9264BE91D83F8111494F8122421
:1004C000392A03D92249D51D81F8125494F81334DE
:1004D000392B03D91E4ADD1D82F8135494F81414E5
:1004E000392903D91A4DCB1D85F8143494F81524F5
:1004F000392A03D9164BD11D83F8151494F81654D4
:10050000392D03D9124AE91D82F8161494F81734CC
:10051000392B03D90E49DD1D81F8175404250095A8
:100520000C4D0D4901954FF480650295002501F1B0
:10053000140284F81854094B00F014FA084C094BC3
:1005400021217F22206005B0BDE8F04300F000BB10
:10055000200000203005002074180008040000204E
:100560002C0500204102000810B5024C206800F064
:100570001BFAFBE72C05002038B5064D20F47F70F0
:100580002B6820F003049C4203D0204600F092F830
:100590002C6038BD14000020002AF8B522DD571E5B
:1005A000841C27F00102A7180E1A391A8D1E315A21
:1005B00000F06CF8BC42C5F3400514D035B12046BC
:1005C000315B023400F062F8BC420DD0A51C20461D
:1005D000315B00F05BF804342846715B00F056F89C
:1005E000BC42F3D1F8BDF8BDF8BD00BF6420704730
:1005F000704700BF4FF40052C0F6000208B5116802
:100600000023C2F6FE730B40B3F1005F00D008BDBB
:100610004EF60850CEF200004FF40051016012680F
:1006200082F3088842F20403C0F60003186880478A
:1006300008BD00BF034B1A6822F007010843186089
:10064000704700BF00200240064B07491A6842F07D
:10065000800001F18832186043F80C1C43F80C2C20
:10066000704700BF1020024023016745024B1A6803
:1006700042F080001860704710200240024B18685A
:10068000C307FBD4704700BF0C20024070B5084C74
:100690000E460546FFF7F2FF236843F00100206095
:1006A0002E80FFF7EBFF216821F00102226070BD70
:1006B0001020024038B50A4C0546FFF7DFFF2368DB
:1006C000084943F0020020600D60226842F04003B8
:1006D0002360FFF7D3FF206820F00201216038BDBE
:1006E00010200240142002402DE9F04706684568BA
:1006F0004FF6E07C002443FA04F717F0010F21D0F5
:100700001FFA84F8B8F1070F04D84FEA8807BFB280
:10071000B14601E06746A9464FF00F0A0AFA07FA08
:1007200029EA0A0907F1020A02FA0AFA01FA07F7A6
:100730004AEA070747EA0907B8F1080F28BF3D460C
:1007400038BF3E4601340CF1040C102C1FFA8CFC0F
:10075000D1D106604560BDE8F0870000024B1A6801
:1007600042F080701860704700100240062827D8B9
:10077000DFE800F004090E13181D2200114B186861
:100780008101FBD570470F490A681201FBD57047FC
:100790000C4B18688300FBD570470A490A68900320
:1007A000FBD57047074B18688107FBD57047064992
:1007B0000A689207FBD57047044B18688307FBD57E
:1007C000704700BF00100240201002402410024079
:1007D00006281FD8DFE800F004060B1015171900D3
:1007E000FFF7BCBF0C4B186840F0806011E00A4B6B
:1007F0001A6842F080500CE0074B196841F48030D1
:1008000007E0054B02E0054B00E0054B1A6842F09B
:1008100001001860704700BF001002402010024025
:10082000241002400368194301607047034B1A68A3
:1008300022F0030108431860704700BF0410024013
:10084000034B1A6822F4701141EA80401860704727
:1008500004100240034B1A6822F4803141EA004040
:100860001860704704100240034B1A6822F40031EC
:1008700041EA40401860704704100240034B1A6878
:1008800022F4404141EA8030186070470410024071
:10089000034B1A6822F4605141EAC0201860704787
:1008A00004100240034B1A6822F4E06141EA002080
:1008B0001860704704100240034B1A6822F0F001E0
:1008C00041EA0010186070470410024008B5042087
:1008D000FFF77EFF0420FFF749FF0020FFF7A6FF88
:1008E0000320FFF775FF0320FFF740FF0120FFF70C
:1008F0009DFF0020FFF7E0FF0320FFF7BFFF04206C
:10090000FFF7D0FF0020FFF7C3FF0220FFF792FEA2
:100910000720FFF795FF0120FFF79CFF0020FFF75E
:10092000A3FFFFF71BFF0020FFF720FF0220FFF7C8
:100930007DFF034A034B044804491A60086008BD60
:10094000005125021800002000A24A041C000020CB
:1009500001617047806808407047C3685940C160B2
:10096000704700002DE9F041054600680E46174625
:1009700098468047069B0799BDF82020C360016117
:100980008282064B0649074A0446C0F8C85080E8F0
:10099000C001C36681664266BDE8F081790B00083C
:1009A000D50B00085B0C000808B5D0F8C830596AB0
:1009B000884708BD37B5069CD0F8C8500094AC688D
:1009C000A0473EBD37B5002405468475C475214651
:1009D000224640230094FFF7EDFFD5F8C8302846A3
:1009E0005A6821469047E86900B180473EBD10B57E
:1009F000D0F8C840E469A04710BD10B5D0F8C84091
:100A0000246AA04710BD08B5D0F8C8301B699847C4
:100A100008BD08B5D0F8C8309A69904708BD38B508
:100A200003680021DD79838F04469D42826B0FD2DB
:100A30002B46FFF7DCFF0222236884F82C20D879AC
:100A4000A16B0A18A263DB79A08FC11AA18738BDF8
:100A5000FFF7CDFF0021032084F82C00A187A163BC
:100A600038BD10B5002101220446FFF7CCFF00235A
:100A700084F82C3010BD70B50268838FC58ED17993
:100A8000ED1A8D42A8BF0D46826BAEB20021D2187E
:100A900033460446FFF7B1FFB04205D02046FFF7CA
:100AA000E0FF4FF0FF3070BDA38FC018A087A8B241
:100AB00070BDF7B504460E46002505F1080204EBAB
:100AC000C2004768031D57B92046314604F1380279
:100AD00004F13C0303B0BDE8F04000F0C5BA58791A
:100AE00031781A7900EA01039A4203D00135042DC6
:100AF000E3D1E9E704F1400000903146204604F1DB
:100B0000380204F13C03B8470128EFD803B0F0BD28
:100B100010B50269044682638A79CB7942EA0322DE
:100B20008287FFF7C6FF70B1A18F204619B1BDE8DB
:100B30001040FFF774BF0A460B46FFF758FF04202A
:100B400084F82C0010BD2046BDE81040FFF789BF97
:100B500030B5002400EBC4056D6C2DB10134042CBC
:100B6000F8D14FF0FF3030BD083400EBC4042172DF
:100B700062726360284630BD70B5002500F1300612
:100B800008230564294632460446FFF736FF082845
:100B900004D02046BDE87040FFF763BFE38E1BB171
:100BA00094F93020002A05DA20463146BDE870402D
:100BB000FFF7AEBFA08A9842EBD321692268A163F8
:100BC000A587D079984201D2052300E0062384F856
:100BD0002C3070BD90F82C3010B5062B044610D088
:100BE000072B24D0052B33D1FFF745FF002833DB3B
:100BF000E28EA08F2368111ADA7991422CDC06224A
:100C000010E0FFF738FF002826DB204604F1300112
:100C1000FFF74FFF48B100210A4620460B46FFF779
:100C2000E6FE042284F82C2010BD204610E00021AE
:100C30000B460A46FFF7E1FE236C002084F82C00E7
:100C40001BB1204604F1300198470021216410BDFA
:100C5000BDE81040FFF705BF10BD90F82C3010B56F
:100C6000032B044607D0042B07D0022B1CD1BDE870
:100C70001040FFF7D4BE072013E0026C12B100F160
:100C80003001904794F8300050B994F8311005299C
:100C900006D1D4F8C830628E5B682046D1B298473E
:100CA000002084F82C0010BDBDE81040FFF7D9BE2D
:100CB00038B54B88C27D04469A420D460FD0D0F815
:100CC000C810C375CB689847D4F8C4203AB1002047
:100CD0006064E0646065E0656988204690470120B3
:100CE00038BD1988012901D9012119801368C27DF5
:100CF00001201A7070474A8812B91A800120704783
:100D00000020704701201880136800221A70704775
:100D10001988022901D902201880116800230B705C
:100D200012680120537070471988022901D90220E6
:100D30001880116800230B701268012053707047EF
:100D400038B514461A88022A01D902251D808988DF
:100D50002568C9B2FFF75DFE003018BF012028707A
:100D6000236800225A70012038BD08B58988012205
:100D7000C9B2FFF748FE012008BD08B589880022E6
:100D8000C9B2FFF740FE012008BD2DE9F04F04462F
:100D900048881D46C3B2000A022889B017460FD002
:100DA000032800F0D180012840F00A8121681160F9
:100DB00023682A8819788A4238BF1146298000E1C1
:100DC00021694FF00D0808FB03F81160D4F8049076
:100DD0002E8819F8084009EB0807A64238BF3446A8
:100DE0000391084622463946049700F065FC0398B3
:100DF000321B19F80880071996B200230593049B4B
:100E000005991879884240F29A8005980C23584336
:100E100004990790D1F809201318D3F80490B9F178
:100E2000000F15D099F800A03846564538BFB24695
:100E30004946524600F040FC99F80000CAEB06060D
:100E4000544408EB000C5744B6B2A4B21FFA8CF815
:100E5000002004990690D1F80930079806991A18CD
:100E60001B58994267DA06994FF0150B0BFB01FBF3
:100E70009368384613F80BA003EB0B09564538BFAF
:100E8000B246524649460193CAEB060600F014FCEE
:100E9000D9F81120B6B201989642B8BF32465744ED
:100EA00054441FFA82FA10F80BB0D9F80D103846E6
:100EB0005246CDF804A000F0FFFBD9F81100A4B20F
:100EC00001998344CAEB06065444D8447F18B6B24D
:100ED000A4B21FFA88F84FF0000A99F8042052458E
:100EE00025D9072202FB0AF3D9F809E038461EF893
:100EF00003B00EEB03015E4538BFB3465A4601937B
:100F0000CDF808E000F0D8FB0199DDF808C0CBEB84
:100F100006061CF801005C4480440AF1010A5F44A3
:100F2000B6B2A4B21FFA88F81FFA8AFAD5E7069B70
:100F3000591C88B28DE70598421C93B25EE7039A6C
:100F4000A2F802802C8039E0266953B904200921D7
:100F5000B170F07030702A88042A28BF04222A80D9
:100F600029E0A06803F1FF3858B3E368984527DA11
:100F70008A8840F209418A4222D150F8280000F0C4
:100F800049FC01304300D9B231702A884FEA880900
:100F9000914228BF114629800023288841084A1E13
:100FA000934208DAA06806EB430250F80910C85CC7
:100FB00001335080F1E7032373703E60012000E0AD
:100FC000002009B0BDE8F08F10B50A7872B94C88DE
:100FD0007F2C0BD8D0F8C830847593F830201AB124
:100FE00049885B68C9B29847012010BD002010BD38
:100FF00038B54C78092C05D8044D55F824401CB15F
:10100000A04738BD002038BD204638BD6019000813
:1010100038B54C780B2C05D8044D55F824401CB13C
:10102000A04738BD002038BD204638BD3019000823
:1010300010B54C78012C03D009D3032C05D102E064
:101040004C8834B101E04C882CB1002010BD034C19
:1010500002E0034C00E0034CA04710BD410D000826
:101060007B0D00086B0D000810B50C7814F0600FB4
:1010700012D104F01F04012C0AD005D3022C0BD18D
:10108000BDE81040FFF7D4BFBDE81040FFF7B0BF88
:10109000BDE81040FFF7BCBF002010BD024B41F07F
:1010A00080011960704700BF4C5C00400A4B196812
:1010B00048F6BF720A401A6019684BF68F720A40F0
:1010C000064943F8042B8B42F1D10368DA792032C8
:1010D00051000183704700BF045C0040205C004069
:1010E00030B599B92C4B1024186848F6BF730340EB
:1010F0000120002A14BF10252025054218BF4340B7
:101100004000013C80B2F4D1234D2B600B061ED56C
:1011100001F07F04A10001F1804505F5B8410868A0
:1011200048F6BF73034010240120002A14BF102585
:101130002025054218BF43404000013C80B2F4D155
:101140000B6042BB0A6848F6CF73134022E04AB9ED
:101150008B0003F1804000F5B8452C684CF68F7386
:1011600023402B60890001F1804000F5B8410D68F3
:101170004BF68F732B4010240120002A0CBF4FF434
:1011800040554FF48055054218BF43404000013C94
:1011900080B2F2D10B6030BD005C00400A060DD574
:1011A00001F07F00820002F1804303F5B841086836
:1011B00000F03002102A0CD000207047890001F1A5
:1011C000804000F5B842136803F44051B1F5805FE8
:1011D000F1E701207047000001F07F01F0B58C00BD
:1011E00004F1804000F5B844206800F03000302859
:1011F00033D01B4DC9002E68B7B2C81900F1005595
:1012000005F54056770038885F1C450005F180469B
:1012100006F5C0457F08002086B2B74205D032F8F7
:101220001060013025F8046BF6E70D4A106882B2B1
:101230000C4889180A1851000B60206848F6BF72E4
:1012400002400121102011F0300F18BF4A40490020
:10125000013889B2F7D1226000E000231846F0BDC2
:10126000505C00400230002088002DE9F04300F17E
:10127000804404F5B840046804F44054B4F5405F79
:1012800050D02A4ECC003768BDB26719284D7F195F
:101290007D002F68BD05B3EB955F08DD3368244DF5
:1012A0009EB2A7197B195E003768BD05AB0D1F4EB6
:1012B00003F001083768BDB266191E4C37197D006E
:1012C0002E88740004F1804707F5C0475C08164675
:1012D000BC462546023635B13CF8049B013D26F854
:1012E000029CADB2F6E7B8F1000F03D017F8245016
:1012F00002F81450046840F68F72224002600E4AD1
:10130000515C81B904684BF68F7222400121102490
:1013100011F4405F18BF4A404900013C89B2F7D13F
:10132000026000E000231846BDE8F083505C0040F6
:1013300006300020043000202405002070B52A4E1D
:1013400005463468610507D540230383FFF73AFB60
:101350004FF6FF32326070BD220429D504F00F0130
:101360004FEA810202F1804314F0100003F5B84205
:1013700005D01268C2F3C023581CC0B204E016683E
:1013800048F60F7333401360032202FB010305EBA1
:101390008300426E12B12846904709E0890001F1AE
:1013A000804303F5B840026840F68F711140016038
:1013B000230506D50C4B2A6A4FF2FF70186002B164
:1013C0009047E00406D508486B6A4EF6FF7101604D
:1013D00003B19847A10506D5AA6A02B19047024811
:1013E0004FF6FF51016070BD445C004008B50848ED
:1013F0004FF40001FFF716FA064A074900234FF49D
:101400001C4013600B6041F80C3C1060034808BDA1
:101410001C100240405C0040505C00403C04002036
:101420002DE9F7430F4653490546086849686C465D
:1014300003C407F07F01880027F07F0C00F180478C
:1014400007F5B844276848F68070384008432060A4
:10145000276848F68F10384002AF07EB420232F897
:10146000087C0A9E384320600CF0FF08BCF1000F96
:1014700023D111B3DFF808C1C800DCF800202F8B9E
:101480001FFA82F83C4A8044424452003E2B1760C7
:101490001A4644D9DCF800C013F01F0F1FFA8CFC69
:1014A00018BFA3F12002844434486FEA825260449A
:1014B0006FEA5242400092B23EE03148B5F818C09F
:1014C000026897B207EBC10000F1005202F54057E5
:1014D0007800C0F800C01EB10C2202FB01577E66E6
:1014E000206848F6CF7202402260276848F6BF7233
:1014F0003A400120102700F020091FFA89F9B9F1BC
:10150000000F00D042404000013F80B2F3D19C4424
:101510002260A5F818C0B8F1000F29D1AAE7DCF8BD
:1015200000C013F0010F1FFA8CFC8444134818BF4D
:101530005A1C60444000920202601EB10C2000FB65
:1015400001518E6620684CF68F720240226021683D
:101550004BF68F720A401020012111F4405F18BF32
:101560004A404900013889B2F7D1DB1922602B8348
:10157000BDE8FE83881900080430002006300020F2
:10158000505C00400B0610B526D4144B5A54890009
:1015900001F1804000F5B8417AB10C684BF68F73C9
:1015A00023401020012202F40054A4B204B153409D
:1015B0005200013892B2F6D10DE00A684BF68F73F3
:1015C00013401020012212F4405F18BF5340520014
:1015D000013892B2F7D10B6010BD00BF2405002086
:1015E000FEE770470023154915485A18824204D275
:1015F000144C1A595A500433F5E7134B9A4203D24C
:10160000002042F8040BF8E7104C114A944203D230
:1016100054F8041B8847F8E70E4C0F498C4203D25C
:1016200054F8042B9047F8E7FEF79EFD0B4C0C484E
:10163000844203D254F8043B9847F8E700000020A6
:1016400020000020C419000830090020C419000837
:10165000C4190008C4190008C4190008C4190008F6
:10166000C4190008024B20F07F401860704700BF8B
:1016700014E000E0012804D8024B1A6842EA800016
:101680001860704710E000E0024B1A6842F0020058
:101690001860704710E000E0024B1A6842F0010049
:1016A0001860704710E000E0014A024B1A60FEE744
:1016B0000400FA050CED00E00F2A2DE9F00340F2DA
:1016C000A18041EA00039B0740F09E800C68A2F1D4
:1016D000100504604B68AC4643608C68BCF10F0F8A
:1016E0008460CC68C5F30015C46000F1100301F1FB
:1016F00010042BD975B12568ACF1100C1D6065681C
:101700005D60A5689D60E5681034DD601033BCF154
:101710000F0F1BD9276804F110061F60676803F1DB
:1017200010055F60A768ACF1200C9F60E768DF6080
:1017300024691C61776806F110046F60B768203374
:10174000AF60F668BCF10F0FEE60E3D8A2F11008AD
:1017500028F00F0302F00F0403F1100C032C00EB30
:101760000C0301EB0C0851D9211F4FEA91094446A3
:1017700008EB890C54F8046BC8EB0C010CF1040C59
:101780001D46644545F8046BC1F3800112D029B1B0
:1017900054F8041B644545F8041B0BD0274657F842
:1017A000041B2E4646F8041B64686C603C1D351D06
:1017B0006445F3D109F1010C4FEA8C0902F00302F0
:1017C00008EB09014B44D2B10D789A18DC4303F8B9
:1017D000015B1419934204F0010410D02CB111F8EC
:1017E000014F03F8014B934209D04D781C4604F891
:1017F000015B8D7802315D70631C9342F5D1BDE8C9
:10180000F00370470346DEE70346DDE74146224624
:10181000D9E700BF20F0030110F00300C0F1000081
:1018200051F8043B00F1040C4FEACC0C6FF00002BD
:101830001CBF22FA0CF213434FF0010C4CEA0C2CA3
:101840004CEA0C4CA3EB0C0222EA030212EACC1283
:1018500004BF51F8043B0430F4D013F0FF0F1FBF56
:10186000013013F47F4F013013F47F0F18BF0130A4
:10187000704700BF1201000200000040501D1760B9
:10188000000101020301000009020000010100C083
:10189000329818000800000001000000000000005D
:1018A000A41800080904000000FE01020400000062
:1018B00000BC18000809000000000000092109FF11
:1018C0000000041A01000000426C61636B20537039
:1018D0006865726520546563686E6F6C6F676965D3
:1018E00073000000426C61636B204D616769632087
:1018F00050726F62652028557067726164652900B7
:1019000040496E7465726E616C20466C617368202C
:1019100020202F307830383030303030302F382A97
:101920003030314B612C3132302A3030314B67004E
:10193000290D000800000000000000000000000069
:101940000000000000000000000000000000000097
:101950000000000000000000050D0008F70C000862
:10196000110D000800000000000000000000000051
:1019700000000000C90F00088B0D000800000000E7
:10198000E30C0008B10C000800020004000000068F
:10199000ED1300089D10000821140008AD10000888
:1019A000E1100008851500089D110008D9110008F4
:1019B000691200083D13000800000000000000004C
:0419C0000000000023
:1019C40002000000C8180008E418000830040020D1
:1019D40000190008FFFFFFFF00127A0000127A00CE
:04000005080015E5F5
:00000001FF
