:020000040800F2
:10200000005000203D9A00083B9A0008399A0008C9
:10201000399A0008399A0008399A0008000000002F
:102020000000000000000000000000003B9A0008D3
:102030003B9A0008000000003B9A00083D6E000833
:10204000399A0008399A0008399A0008399A000824
:10205000399A0008399A0008399A0008399A000814
:10206000399A0008399A0008399A0008399A000804
:10207000399A0008399A0008399A0008399A0008F4
:10208000399A0008399A0008399A0008399A0008E4
:1020900025880008399A0008399A0008399A0008FA
:1020A000399A0008399A0008399A0008399A0008C4
:1020B000399A0008399A0008399A0008399A0008B4
:1020C000399A0008399A0008399A0008399A0008A4
:1020D000399A0008399A0008218A0008399A0008BC
:1020E000399A0008399A0008399A0008399A000884
:1020F000399A0008399A0008399A0008399A000874
:10210000399A0008399A0008399A0008399A000863
:10211000399A0008399A0008399A0008399A000853
:10212000399A0008399A0008399A0008399A000843
:10213000399A0008399A0008399A0008399A000833
:10214000399A0008399A0008399A0008399A000823
:1021500008B5D0F8843058684169884708BD00BF89
:102160000368591C016070470368591C016070477F
:102170000368591E016001B1704707F047BD00BFF9
:10218000036810B50446581E206000B110BD606899
:10219000FFF7EEFFE06908B1216A88472046BDE8F5
:1021A000104007F033BD00BF10B582B000920B465F
:1021B000846901210022A04702B010BD70B500243F
:1021C00082B00B46009401210A4686690546B04755
:1021D0000094AE692846214601220C23B04702B084
:1021E00070BD00BFF0B5436890F808E001F0F0075B
:1021F00083B004460D4616461846082147EA0E628B
:10220000DB689847606800968469012100222B46AC
:10221000A04703B0F0BD00BF8B0770B5154648BF9F
:102220001504826904460E4642F011020021FFF7B0
:10223000D9FF204604213246FFF7D4FF20460C2167
:102240002A46BDE87040FFF7CDBF00BF836970B577
:1022500004460E461546002143F01202FFF7C2FF66
:10226000204604213246FFF7BDFF20460C212A46B6
:10227000BDE87040FFF7B6BF2DE9F041D0F88460AB
:102280000C46B56982B000211746304645F0100271
:102290009846FFF7A7FF70680094042301210022ED
:1022A000D0F818C0A044E047C4EB0803DA0725467D
:1022B000C4EB070709D504F003003A5DC10002FA38
:1022C00001F4706800946C1C21E004F00301CB0061
:1022D000444537D03A5D706802FA03F1009100225C
:1022E0000C230134D0F818C00121E04784EA05002E
:1022F00020F47F7323F00302002A27D1395D04F014
:102300000300C30001FA03F2706801340092002256
:102310000C23D0F818C00121E04784EA050323F418
:102320007F7222F003000028CFD070680094012152
:10233000042385690022A84704F00301CB0044452B
:102340002546C7D1002002B0BDE8F0817068009436
:102350008569012100220423A8472546CEE700BF56
:102360002DE9F04FD0F884501646AA6985B0039144
:102370002846002142F010029B46FFF733FF6868B1
:1023800000960121002204238469A0470027686881
:102390000121009706F1FF390C2384690A46D944CC
:1023A000A047C6EB09030398D9073446C6EB0008DB
:1023B00016D56868012100970A4684690C23A04756
:1023C00006F00301CA0020FA02F0741C84EA060336
:1023D00023F47F7121F0030208F80600002A6BD174
:1023E00001210C234C450A46686841D00097D0F87B
:1023F00018C0E04704F00301CA0020FA02F004F11B
:10240000010A8AEA060323F47F7121F0030208F827
:102410000400002A3FD16868012100970A468469B8
:102420000C23A0470AF00303D90020FA01F00AF1B7
:10243000010484EA060222F47F7323F0030108F802
:102440000A000029CCD068680121009400220423EE
:102450008669B0476868012100970A460C2386699F
:10246000B04701210C234C4526460A466868BDD179
:102470000025009586692946B04704F00304E4006E
:1024800020FA04F0039B0BF1FF3B03F80B002846F6
:1024900005B0BDE8F08F6868CDF800A001210022EA
:1024A00004238669B04768680121009784690A4659
:1024B0000C23A0475646AEE76868012100943A46CF
:1024C000C5E700BF2DE9F043D0F884800F46D8F867
:1024D000184083B000219146404644F012021E4647
:1024E000FFF780FED8F804000097012100220423A2
:1024F0008569B610A847F0073C46C7EB090912D515
:1025000059F80730D8F804000093012100228569AA
:102510000C233C1DA84784EA070020F47F7121F0BA
:1025200003024ABB013E251D012100220C23002E7F
:1025300036D059F80440D8F804000094D0F818C0F8
:10254000E04785EA070323F47F7020F003012C1D88
:10255000E1B959F80550D8F80400009500220C2381
:1025600085690121A84784EA070222F47F7323F0DA
:102570000300013E0028D5D0D8F8040000948769F4
:10258000012100220423B8472746CBE7D8F80400EE
:1025900000958769012100220423B8472F46D8E718
:1025A000304603B0BDE8F0832DE9F04FD0F88450F9
:1025B0001646AA6985B003912846002142F012020E
:1025C0004FEAA30AFFF70EFE686800960121002279
:1025D00004238469A04700276868012100970C2321
:1025E00084690A46A0470AF1FF3E039B1EF0010FD3
:1025F000D0463446C6EB030912D068680121009723
:102600000A4684690C23F046A047341D84EA06017B
:1026100021F47F7222F0030349F80600002B59D100
:1026200001210C23B8F101080A46686844D00097DC
:10263000D0F818C0E04704F1040B8BEA060222F43C
:102640007F7323F0030149F8040021BB686801216E
:1026500000970A4684690C23A0470BF1040484EA1E
:10266000060222F47F7323F0030149F80B0008F1FE
:10267000FF380029D4D06868012100940022042387
:102680008669B04768680121009786690A460C236D
:10269000B0472646C4E76868CDF800B001210022A3
:1026A00004238469A04768680121009786690A4667
:1026B0000C23B0475E46C9E7CDF8008041468469E7
:1026C000A04703990AF1FF3A41F82A00404605B0B5
:1026D000BDE8F08F6868012100943A46CFE700BF5B
:1026E00070B54368067A01F0F00204460D461846BC
:1026F0000821DB6842EA0662984760682946BDE81F
:102700007040FFF75BBD00BF826938B542F011022F
:1027100004460D460021FFF765FD042120462A46A8
:10272000FFF760FD0C212046FFF7DAFFAB0701D46D
:1027300080B238BD000C38BD826938B542F0120253
:1027400004460D460021FFF74DFD204604212A4690
:10275000FFF748FD20460C21BDE83840FFF7C0BF19
:102760002DE9F04F036804215A1C026003698DB003
:1027700007469847FB6840F0A04204213846984736
:1027800004213A693846904700F02040B0F1204FCC
:10279000F6D1DFF8DCB0DFF8DCA0DFF8DC904FF03A
:1027A0000008019743E007F029FA03AD0446064606
:1027B0000FCD0FC40FCD0FC401982A680368F42110
:1027C0000133036022603046FFF78AFFF821306151
:1027D0003046FFF785FF394670613046FFF780FFCE
:1027E00020F037078C20B76105F056FE326842F2C0
:1027F000A957531CC0F60007336042F2C542076177
:1028000042F26133194FC0F60002C0F60003C0F86F
:102810008460C0F888B0C0F874A0C0F80C90426121
:102820008361C76101F046FDB8F5807F17D0019B39
:102830000027FC2103A8059703978DF814800697BD
:102840000797089709970A970B970493FFF748FF94
:10285000014608F10108242006910029A3D1019F17
:102860003846FFF785FC0DB0BDE8F08F79220008EF
:10287000812100088CB90008512100082DE9F041A0
:1028800084B0DDF828E05B0803F006040025521B45
:102890004FEACE06E4B218BF01224FEA5E77344316
:1028A0001443804600290CBF0A210B21C0693D4317
:1028B000CDE9004503F0CCF802A96A462323D8F8F5
:1028C0001C0003F011F9029A039902F0070340F289
:1028D000E73426E0232302A96A46D8F81C0003F057
:1028E00003F9029A039902F00703012B1BD123235A
:1028F00002A96A46D8F81C0003F0F6F8029A039978
:1029000002F00703012B0ED1232302A96A46D8F84F
:102910001C0003F0E9F8029A033C039902F0070354
:1029200009D0012BD6D0022B0DD1D20842EA41703A
:1029300004B0BDE8F08198F808000028F3D0012B1E
:10294000F1D12046F4E70A4D2E785EB10948032103
:1029500002F0F0FC00272F7005F0ACFD06480121C5
:1029600007F0CEF90548032102F0E4FCF2E700BFCE
:1029700060090020A0B9000804090020A4B90008DB
:1029800030B5002483B0214601220423009405467B
:10299000FFF774FF3223CFF200030093214628464D
:1029A00022460423FFF76AFF00F0320003B030BD77
:1029B00030B5002483B00B46054621460122009421
:1029C000FFF75CFF00942846214601220C23FFF705
:1029D00055FF03B030BD00BF00B50B4683B00021EA
:1029E00000920A46FFF74AFF03B000BD10B5202150
:1029F0000446012007F0D8F8A26842F6D9114260D7
:102A000042F6B112C0F60001C0F60002C1600261D8
:102A100042F6811142F67D02C0F60001C0F60002C6
:102A2000C46141618261BDE81040FFF799BE00BFFB
:102A3000F0B5064683B01746002949D0027F002A28
:102A40004FD1A324002F4ED103F00C03042B44EAF2
:102A5000430050D0082B4ED0C4B20821204605F0C8
:102A600031FC032005F044FB40F2E735C1B21DE024
:102A70000821204605F026FC032005F039FBC1B2F1
:102A8000022915D10821204605F01CFC032005F081
:102A90002FFBC1B202290BD10821204605F012FC00
:102AA000032005F025FB033DC1B215D00229DFD07C
:102AB000042938D0012927D107BB0898202105F027
:102AC0006FFC0020082105F0FDFB019803B0F0BD6C
:102AD0008124002FB8D006E0327A002AE8D00229FB
:102AE000E6D10020F2E703F00C0384F02404042B69
:102AF00044EA4300AED180F02000ADE701A82021D8
:102B000005F04EFB0028DCD00B4D2E787EB10B4833
:102B1000032102F00FFC00272F7005F0CBFC0848C2
:102B2000012107F0EDF8012333770020CEE70548B7
:102B3000032102F0FFFBEEE760090020A0B90008C6
:102B400004090020A4B9000800B50B4683B0002199
:102B500000910122FFF76CFF03B000BD00B50B46EA
:102B600083B0002100920A46FFF762FF03B000BD68
:102B700038B504210446FFF7E7FF10F0020F0CBF41
:102B800000221022C30648BF42F00202810648BF5D
:102B900042F00402030648BF42F0080200F0B2050A
:102BA00000212046FFF7DAFF00232377284638BDAF
:102BB000F8B505F07FFC2021012006F0F5FF044662
:102BC00005F0DEFB204B1878002829D1A52008212C
:102BD00005F078FB032005F08BFAC7B2012F23D153
:102BE000201D202105F0DCFA0546E8B91749184AEE
:102BF000184BE16018492046184E22616361A161BB
:102C0000FFF7B6FF2046FFF7ABFD3068B0B12846AE
:102C1000294604F02DF93268101C18BF0120F8BDB8
:102C2000012003F0E7F8D1E701210D4804F020F975
:102C3000204606F0EBFF4FF0FF30F8BD084839465C
:102C400004F016F9E7E700BF610900205D2B0008DA
:102C5000492B0008712B0008312A00083807002092
:102C6000A8B90008704700BF30B583B002AD044674
:102C700005F8011DD0F88C00022102F0E9FED4F81D
:102C80008C0000212A46042302F02EFFD4F88C0089
:102C90000C2102F0DDFE03B030BD00BF2DE9F04392
:102CA000074683B00E46002501211C469146FFF7DA
:102CB000DBFFD7F88C0029466A4621230096019550
:102CC00002F012FF002C43D0D9F80060A84621235F
:102CD000D7F88C0069466A46651E8DE8400102F00F
:102CE00003FF009B4C462E4644F8043B05F00105CB
:102CF00076B375B12568D7F88C00212369466A46FA
:102D00008DE8200102F0F0FE0098013E44F8040B2B
:102D10001ED025682123D7F88C0069466A468DE8C5
:102D2000200102F0E1FE0099254645F8041B646885
:102D30006A462123D7F88C0069468DE81001013ED0
:102D400002F0D2FE009A2C46013E44F8042BE0D15A
:102D500003B0BDE8F08300BF08B503461A6A00F16E
:102D6000900006F0A5FF002008BD00BF08B503468F
:102D7000026A084603F1900106F09AFF002008BDA0
:102D800038B5C36B04460025984703E00220013D97
:102D900004F036F8216C204688470028F6D0281C1D
:102DA00018BF012038BD00BFF0B583B00024012555
:102DB0000746022102AE66E90245FFF755FF0021F2
:102DC0002623D7F88C006A4602F08EFE01242623C3
:102DD00069466A460025D7F88C0002F085FEDDE9D9
:102DE000002322402B4052EA030102D1104603B0D7
:102DF000F0BD4FF6FF713846CEF6800107F1900224
:102E00001023FFF74BFF0120F1E700BFF0B54FF6AD
:102E1000FF7183B0064600F190021023CEF69001B8
:102E2000FFF73CFF002420253046022102AF67E96E
:102E30000245FFF719FF00216A462623D6F88C00C9
:102E400002F052FE0022114613463046CEF2A01187
:102E5000FFF724FF002430460121FFF705FFCEF2E3
:102E6000A01400216A462123D6F88C000125CDE963
:102E7000004502F039FE00224FF6F8713046CEF6DA
:102E8000FF211346FFF70AFFD6F88C00042102F059
:102E9000DFFD03B0F0BD00BF70B582B0022402AE0A
:102EA000202566E9024502210446FFF7DDFED4F83D
:102EB0008C0000216A46262302F016FE02B070BD87
:102EC00010B50446D02005F0E7FA4BF6B411C0F671
:102ED000000142F68153C0F600034167402142F6EB
:102EE00065424360016242F66D5342F65951C0F6A5
:102EF0000002C0F60003C0F600018260C2600261F9
:102F000042618261C2618362C1624263826342F64E
:102F1000A95342F6996242F60D61C0F60002C0F66E
:102F20000003C0F60001C0F88C40C2630364416432
:102F300010BD00BF08B5044B196811B1034802F079
:102F4000E7FA012008BD00BFF808002078BB0008A0
:102F500070B5114C06462568C5B1104802F0B4FAA8
:102F60000F4802F0B1FA246874B101252946B44231
:102F700014BF20222A22636F0A4802F0C9FAD4F84B
:102F800080400135002CF1D1012070BD064802F0CF
:102F90009BFA284670BD00BF380700203CBA0008E5
:102FA00050BA000860BA000820BA000838B50546D3
:102FB000114802F089FA114C1149A268114802F037
:102FC000A7FA54F80C1F0029F7D19DB1AD6F8DB150
:102FD00029680D4802F09CFA6C68216839B1A26832
:102FE000084802F095FA54F80C1F0029F7D1AD6893
:102FF000002DEDD1012038BD78BA0008C0B9000815
:1030000070BA00088CBA000898BA00084BF6B020D5
:1030100008B5C0F6000002F057FA4BF6E420C0F6FF
:10302000000002F051FA4BF61830C0F6000002F032
:103030004BFA012008BD00BF08B503F01FFF014691
:10304000084802F065FAFFF7B3FD002804DB002012
:10305000FFF77EFF012008BD034802F035FA00208B
:1030600008BD00BF68BB00087CBB00082DE9F04725
:1030700082B002AF8946144603F000FF014636488D
:1030800002F046FAB9F1010F5ADD09F10E0323F0FF
:103090000700ADEB000D02AEA9F1020154F8040FD8
:1030A00006EB010801F0010A06F076FD46453546BB
:1030B000307019D0BAF1000F08D054F8040F06F0A0
:1030C0006BFD354605F8010F45450DD054F8040F4A
:1030D00006F062FD687054F8040F06F05DFD6A1C8E
:1030E000023545455070F1D1B144002409F8014C36
:1030F000304602F0F5FA041E29DB23D0174E18489B
:1031000002F006FA3368002B10DD164C0025D4F8C7
:103110000A002278D4F8063029460090124802F0BE
:10312000F7F9316801351434A942F0DC0F4802F098
:10313000CBF90020FFF70CFF0120BD46BDE8F0876A
:103140000026D5E70A4802F0BFF92046F5E709480E
:1031500002F0BAF90020F0E768BB00087C08002004
:10316000CCBB000882080020F8BB0008A8BB000800
:10317000ACBB000890BB0008012908B50BD0506813
:103180000B4906F05AFE0B4BD0F1010038BF00206E
:103190001870012008BD0749074B084A09780848FC
:1031A00000290CBF1146194602F0B2F9012008BDF2
:1031B00040BC0008610900200CBC000814BC0008D9
:1031C00020BC00082DE9F84F0B7800AF06467BB114
:1031D0000A46002404E0092B04D012F8013F33B161
:1031E000202BF8D112F8013F0134002BF8D1A300B5
:1031F0000E3323F00700ADEB000D0846294906F019
:103200005BFEE8460090002849D06C46002500206F
:10321000244906F051FE013544F8040F0028F6D188
:10322000D8F80040204606F013FEDFF880A0814663
:103230001D4902E05AF80C1F89B120464A4606F0A3
:103240000FFE0028F6D1DAF804302946304642460F
:10325000984780F00101C8B2BD46BDE8F88FDEB1E5
:10326000D6F878A0BAF1000F16D0DAF80420116869
:1032700069B1934602E05BF80C1F41B120464A4613
:1032800006F0EEFD0028F6D1DBF80430DDE7DAF8D1
:1032900008A0BAF1000FE8D14FF0FF30DCE7044698
:1032A0000546BFE748BC000870BA0008C0B900086E
:1032B00010B4D0F88400032243684EF6F051002485
:1032C000CEF20001CAF25F021C7210BCFEF7BEBF54
:1032D00010B5D0F884400A464EF6F8512046CEF29A
:1032E0000001FEF7B3FF0F224EF6F4512046CEF256
:1032F0000001C0F20102FEF7A9FF002010BD00BFCF
:10330000F8B5D0F88460F7693B6C73B142F20804F9
:10331000CEF200040025214630460022FEF796FF3B
:10332000386C01350434A842F5D8796A71B141F29C
:103330002804CEF200040025002221463046FEF784
:1033400085FF7A6A01351034AA42F5D800224EF67C
:10335000F0513046CEF20001CAF25F02BDE8F840FB
:10336000FEF774BFD0F88400022B2DE9F843C5693D
:1033700060D0042B57D0012B03D04FF0FF30BDE8B5
:10338000F8834FF00008032951D0042955D00229B1
:10339000F3D14FF0060C6F6A002F40D069687C1E95
:1033A0000023914204F001044AD001230821BB42CA
:1033B00035D09CB16E187468944259D001330831ED
:1033C000BB420BD12BE0D9F80410013391421E46C9
:1033D00018D0731CBB4204F1080120D001F108048D
:1033E00069184E6805EB04099642ECD10E7A6645E1
:1033F000E9D1497A414529D0D9F8041001339142E5
:103400001E46E6D199F808106145E2D199F80910F5
:1034100041451BD0731CBB4204F10801DED16FF0A3
:103420000100BDE8F88303294FF00308ADD14FF048
:10343000050CB0E74FF00108A5E74FF0070CAAE72D
:10344000297A6145B1D1697A4145AED1BB42E6D016
:1034500041F22802002405EBC305CEF200021B0155
:1034600099182C722246FEF7F1FE2046BDE8F8833B
:10347000347A6445A2D1747A44459FD1E6E700BF0F
:10348000D0F88400F8B5C7693E6C76B3BB6A23F008
:1034900001028A422CD00023F4073A4620D4FC6A69
:1034A000012324F001043A1D8C4219D103F160512B
:1034B00001F60202910000240A3347F82340224615
:1034C000FEF7C4FE2046F8BDD56A221D25F0010591
:1034D0008D42EBD0E46A013324F001048C42E5D044
:1034E0000133B34202F10404EED14FF0FF30F8BDD6
:1034F00042F20801CEF200010023DCE7D0F884009C
:1035000021F06042D0F81CC0F8B522F0030211F09F
:10351000020FDCF840700CBF4FF080434FF00043C7
:1035200042F001021A4367B3DCF8284014F00103AB
:103530002AD00023FD0764461ED4DCF82C5001235A
:10354000ED070CF1040417D403F1605404F60205EE
:10355000AD000A3341F001044CF823402946FEF740
:1035600075FE0020F8BDE66A2C1D16F0010FEBD0A9
:10357000ED6A0133ED07E7D50133BB4204F10405E1
:10358000F1D14FF0FF30F8BD42F20805CEF2000550
:10359000DFE700BF2DE9F04FD0F8840097B0444E2C
:1035A0000BAC06908B4615460FCE0FC40FCE0FC442
:1035B00096E80700069BBBF1020FDF6984E807006D
:1035C00005DD69680A780892643A012A7AD939488F
:1035D00001F07AFF384801F077FF0B9911B17A6C4E
:1035E000D20738D40C9911B1786C83075BD40D994C
:1035F00011B17B6C580752D40E9911B17A6C120735
:1036000049D40F9911B1786CC30640D4109911B107
:103610007B6C980637D4119911B17A6C52062ED46E
:10362000129911B1786C030625D4139911B17B6CF2
:10363000D8051CD4149911B17A6C920513D415993C
:1036400011B1786C43050AD41C4801F03DFF0120FC
:1036500017B0BDE8F08F1A4801F05AFFC2E71848CA
:1036600001F056FFF0E7164801F052FFE7E7144873
:1036700001F04EFFDEE7124801F04AFFD5E710489F
:1036800001F046FFCCE70E4801F042FFC3E70C48CB
:1036900001F03EFFBAE70A4801F03AFFB1E70848F7
:1036A00001F036FFA8E7064801F032FF9FE700BFB0
:1036B00074BD000880C90008D4C90008A8BB000870
:1036C000E8C900080E9E0F9800960190139E109B6B
:1036D0001199129A1498DDF854C04FEA8B0B00240C
:1036E000DDF82CA0DDF83090DDF83480CDF81CB08A
:1036F00005960997029303910492264667468346EE
:10370000BAF1000F06D05046295906F096FB08B9C9
:1037100046F00106B9F1000F06D04846295906F0D7
:103720008CFB08B946F00206B8F1000F06D04046FF
:10373000295906F082FB08B946F00406009B33B114
:103740001846295906F079FB08B946F00806019990
:1037500031B10846295906F070FB08B946F0100649
:10376000029A32B11046295906F067FB08B946F0B3
:103770002006039828B1295906F05FFB08B946F0E6
:103780004006049B33B11846295906F056FB08B988
:1037900046F08006059931B10846295906F04DFBDF
:1037A00008B946F48076BBF1000F06D05846295977
:1037B00006F043FB08B946F4007637B1384629597C
:1037C00006F03BFB08B946F48066079A043494423D
:1037D00096D10898099F65280BD07A6C22EA0602D8
:1037E0007A644EF6FC510698CEF20001FEF72EFDEB
:1037F000F0E67B6C46EA03027A64F2E72DE9F041D9
:10380000D0F884708846FE69736A43B341F2280594
:10381000CEF20005002404E001341035A34219461D
:1038200010D906EBC402107A0028F5D02946384694
:10383000FEF782FFC1010FD4736A01341035A34231
:103840001946EED8A1420AD006EBC40462680120F2
:10385000C8F80020BDE8F081716AA142F4D10020CF
:10386000BDE8F0812DE9F84FD0F88460022B0746BF
:103870009046D6F81CB063D0042B68D0012B03D03F
:103880004FF0FF30BDE8F88F4FF0000903295BD0FF
:1038900004295FD00229F3D14FF0060ADBF8243067
:1038A000002B5DD041F22805CEF20005002404E093
:1038B00001341035A342194611D90BEBC402107A1A
:1038C0000028F5D130462946FEF736FF000744D0E0
:1038D000DBF8243001341035A3421946EDD88C4270
:1038E0003ED004F160620BEBC40B02F58173190149
:1038F000304642468BF808A0CBF804808BF809903C
:10390000FEF7A4FC41F224012401CEF2000130466E
:1039100061184A46FEF79AFCF86D41F2280310F050
:10392000010F0CBF4FF400620022CEF200033046BC
:10393000E11842EA0A02FEF789FC0020BDE8F88F90
:1039400003294FF00109A3D14FF0050AA6E74FF074
:1039500003099BE74FF0070AA0E7DBF82410BEE756
:103960006FF00100BDE8F88F2DE9F843056AD0F843
:103970008430AE000A3626F0070500AFDE69ADEBF5
:10398000050D8846836A6946914604469847B06C9F
:103990006D46421F012A07D901280BD1B8F1FF3F1C
:1039A00008D008F1010306E0B8F1000F02DD316D27
:1039B000C8EB010843462B60E26A2046294690473F
:1039C000C6F84C90BD46BDE8F88300BF2DE9F04F26
:1039D00091B0D0F884404EF6F05102AF0546CEF2D9
:1039E00000012046D4F81C80FEF7A6FE10F400303B
:1039F00004D107F13C07BD46BDE8F08F63680022A3
:103A00004EF630511A72CEF200012046FEF794FEB7
:103A10004EF630510646CEF2000120463246FEF701
:103A200015FC330712D4C6F3400088F801000028C3
:103A30006ED116F0060F01D00520DAE7F307FBD5AB
:103A400098F800100029F7D10220D2E7D5F8849029
:103A50004EF62C51CEF200014846FEF76DFE4EF6B2
:103A600028510446CEF200014846FEF765FE4EF6A8
:103A70002C518246CEF2000148462246FEF7E6FB74
:103A80004EF628514846CEF200015246FEF7DEFBC4
:103A9000600002D4BAF1000FC5D02C6AE846002CB1
:103AA000B8BF033424F003060A3626F00703ADEB53
:103AB000030D02AC2146AA6A284690472023D4F879
:103AC00038A007F11801626B28462E69B047396BA0
:103AD000F86A7A6B1AF0100FE1630CBF2023682399
:103AE000A0639105606B48BF0433C3184EF60C51B8
:103AF00002224846CEF20001C0F2FA526363FEF79A
:103B0000A5FBEA6A2846214690470B20C54670E788
:103B1000D5F884404EF6F4510F222046CEF2000133
:103B2000FEF794FB4EF6F8512046CEF20001FEF768
:103B300003FEB91C02230246AC692846A0477988D7
:103B40004BF6AB6399427FF474AF2A6AE946900062
:103B50000A3020F00704ADEB040D0DF1080AD5F88A
:103B600084205146AB6A2846D2F81CB0984707F12A
:103B700008012846DAF8042010232C69A047DAF857
:103B80000010481ECBF84810122800F28A80DFE8A7
:103B900000F05F5988884F4588883F3788338831DF
:103BA0002588881A0A00DBF84C20EB6A2846CAF8F8
:103BB0000020514698472846CD466A6C98F8001078
:103BC0009047002015E74248BA68FB68511E5A1C0E
:103BD00001F062FC4FF0FF30CD460AE7786907F14B
:103BE000080101300EC9009001393A48013201F054
:103BF00053FCEFE73848E7E70021CBF84C10DAE751
:103C0000BA683648511E0023FA6801F045FCE1E726
:103C1000BB683348591E01F03FFCDBE73B69B968DC
:103C2000CBF850302F480139FA6801F035FCD1E764
:103C3000BA683B69511ECBF850302B48FA6801F046
:103C40002BFCC7E7BB682948591E01F025FCC1E7DA
:103C5000274E07F118040FCE0FC496E8030084E83E
:103C60000300F86807F13802410802EB8106AC69ED
:103C7000391D2846BA68042356F8206CA047381D21
:103C80001C4906F0DAF8C0B96EB9CAF80060DAF873
:103C90000020EB6A501CCAF800005146284698479D
:103CA00089E7CD46C5E6720503D50121CAF80010A3
:103CB000EDE70220CAF80000E9E73A694FF4D27351
:103CC00000930D48B9680132334601F0E5FB81E706
:103CD00094CA00086CCA000884CA000854CA0008C4
:103CE00044CA000814CA00082CCA000808CA000800
:103CF000A0BD0008ECC90008F0C9000810B5D0F854
:103D00008440012002F076F8002002F073F84EF6AD
:103D1000F051CEF200012046FEF70EFD4EF60C519A
:103D200004222046CEF20001C0F2FA52FEF78EFACB
:103D30004EF6F0512046CEF20001FEF7FDFC820166
:103D4000F6D44EF630512046CEF200011F22BDE8D7
:103D50001040FEF77BBA00BF2DE9F043D0F8844055
:103D600083B0A269884642F01202002181462046B3
:103D7000FEF738FA4EF6F0536068CEF20003009377
:103D800001210423002285694746A84720461821BF
:103D900057F84C2BFEF726FA60684FF480310091FB
:103DA00000220121142386694546B04755F8042FA7
:103DB0006068484E0092012100221823D0F818C0F4
:103DC000E04756F8043F606843F480310091D0F832
:103DD00018C0012100221423E04755F8042F606821
:103DE0000092012100221823D0F818C0E04756F8AD
:103DF000043F606843F480310091002201211423C4
:103E0000D0F818C0E04755F8042F606800920121EF
:103E100000221823D0F818C0E04756F8043F606825
:103E200043F480310091002201211423D0F818C0FE
:103E3000E047BD42D1D1D9F85C0008F150058107B7
:103E400044D5254E08F1D4082F4657F8042B606856
:103E50000092012100221823D0F81890C8477368F7
:103E6000606843F480310091002201211423D0F8CE
:103E700018C0E0476A686068009201210022182398
:103E8000D0F818C0E047B368606843F4803100910F
:103E9000002201211423D0F818C0E0477F68606831
:103EA00000970121002218238769B84706F1040909
:103EB00056F80C2F606842F48033009301210022F1
:103EC00014230C358769B8474545BDD1002003B0A0
:103ED000BDE8F083B8BD000804BE00082DE9F0433A
:103EE000D0F8844083B0A2690F4642F0120200214C
:103EF00081462046FEF776F94EF6F0536068CEF222
:103F0000000300930121042300228569A8470022B1
:103F100020461421FEF766F918216068FEF74EF975
:103F2000394E3860354655F8041F6068009100220C
:103F300001211423D0F818C0E04760681821FEF76B
:103F40003DF906F14C083E4646F8040F55F8042F9B
:103F500060680092142300220121D0F818C0E047C5
:103F600018216068FEF72AF946F8040F55F8043F57
:103F700060680093012100221423D0F818C0E047A4
:103F800018216068FEF71AF9454546F8040FDDD19F
:103F9000D9F85C0007F15005800731D51B4E07F1B9
:103FA000D40877686068009700221423012187698C
:103FB000B84718216068FEF701F92F4647F8040B4F
:103FC000B16860680091002214230121D0F818C064
:103FD000E04718216068FEF7F1F8686056F80C2F8A
:103FE00060680092012100221423D0F818C0E04735
:103FF00018216068FEF7E2F80C3545457860D0D1AD
:10400000002003B0BDE8F083B8BD000804BE00087E
:104010002DE9F84FD0F884700446C368DFF8F491B6
:10402000FD6998472046E16B884799F80000002811
:104030006BD1226C20469047002866D1022002F006
:10404000DFFE99F80030002B5FD1216C20468847B5
:1040500000285AD1022002F0D3FE99F8000000286F
:1040600053D1226C2046904700284ED1022002F006
:10407000C7FE99F80030002B47D1216C20468847B5
:10408000002842D1022002F0BBFE99F8000000286F
:104090003BD1226C20469047002836D1022002F006
:1040A000AFFE99F800304E46002B2ED1216C2046F1
:1040B000884750BB022002F0A3FE99F8000020BB05
:1040C000226C2046904700BB022002F099FE99F82E
:1040D0000030D3B9216C20468847B0B9022002F0E5
:1040E0008FFE99F8000080B9226C2046904760B995
:1040F000022002F085FE99F8003033B9216C204689
:10410000884710B90020BDE8F88F4EF6FC51CEF27A
:1041100000016A6C3846FEF799F84EF630511F22BE
:104120003846CEF20001FEF791F806204FF4005118
:104130002864CEF200013846FEF7FEFA2A6CC0F37E
:104140000313934259D304204FF480516862CEF296
:1041500000013846FEF7F0FA696A020F2B6C8A42BA
:1041600088BF6A62BBB142F2080A4FF00008CEF283
:10417000000A2E46C5EB0A0AC3460AEB060138467A
:104180000022FEF763F8C6F828B0286C08F1010891
:1041900004364045F1D8696AA1B141F228080026E9
:1041A000CEF20008B246002241463846FEF74EF8ED
:1041B00005EBC60282F808A06B6A0136B34208F12B
:1041C0001008F0D84FF400513846CEF20001032217
:1041D000FEF73CF80A490B4AA164E2640A4B0B491A
:1041E0000B4A99F8000023656165A26510B10020B3
:1041F00001F000FE0120BDE8F88F2B64A3E700BFAB
:10420000FD34000881340008653800086533000873
:10421000FD370008610900202DE9F041D0F8844005
:104220000D22E569012380462878CAF25F02CAF2AE
:104230005F03002914BF17461F4688420E4609D067
:104240004EF6F0512046CEF2000147F00202FDF793
:10425000FDFF2E70697861B94EF6F0512046CEF21E
:1042600000013A46FDF7F2FF636801201872BDE8CD
:10427000F081D8F884504EF6F4510F222846CEF241
:104280000001FDF7E3FF4EF6F8512846CEF200019B
:10429000FEF752FA054629462046FEF735FA00F4A5
:1042A0007F42B2F53E4FD7D14046A91CFFF710F828
:1042B000D2E700BFF8B5474B474F484D1A46436712
:1042C0008760474B474F4560474D83624763474B85
:1042D000474FC562474D83630764474B474E484F7E
:1042E000C5635025436404460562076706F574718B
:1042F000466204F005F9D4F884504EF68851CEF2A7
:1043000000012846FEF718FA4EF6885140F470076F
:10431000CEF2000128463A46FDF798FF4EF6885146
:104320002846CEF20001FEF707FAB84246D0012037
:10433000542105F039FC40F201420346E86131485E
:10434000C0F20012286220465A6403F03DFA08B118
:104350000120F8BDE16820468847204603F0D6FCDE
:104360000028F5D1E36820469847204603F044FE34
:104370000028EDD1E26820469047204602F0F4F88C
:104380000028E5D1E16820468847204602F0BCFBC2
:104390000028DDD1E36820469847204602F08CFFD4
:1043A0000028D5D1E26820469047204601F088FFDA
:1043B0000028CDD1E16820468847C9E7E26D206A30
:1043C00042F00201843006F57A76E1652062666289
:1043D000ADE700BF000000200133000811400008D5
:1043E000DD3E0008D1320008593D0008FD3C0008C0
:1043F000CD390008B1320008194200088CBE00080F
:10440000693900080D9C00082DE9F04343F20803C8
:10441000C4F202031C681646032E44F0010283B066
:104420001A6004460D4649DD4FF44058043E01A988
:104430002A4604230769C4F20208C6F38009B84774
:10444000002835D10198043501BA032EC8F80010B0
:1044500034DDB9F1000F1DD02769204601A92A4695
:104460000423B84720BB019B043E1ABA0435032E2F
:10447000C8F800200EDC21E00198276900BAC8F8CE
:1044800000002046B84798B90199032E0BBAC8F826
:10449000003013DD2F1D2A4601A90423256920467B
:1044A000A847042301A93A46083EFD180028E3D096
:1044B0004FF0FF37384603B0BDE8F0834FF4405269
:1044C000C4F20202F307176806EB050854D4454509
:1044D000F0D02A460123A669204601A9ED18B0476D
:1044E0000028E5D1019E97EA066271D451000029A7
:1044F00077DB4A00002A7DDB51000029C0F284806E
:104500004A00002AC0F28A805600002EC0F2908035
:104510007200002AC0F296805600002EC0F29C80E5
:104520007700A669204601A92A460123B047002842
:10453000BED1019A97EA026000F19F804700002FE8
:10454000C0F2A5807A00002AC0F2AB805100002999
:10455000C0F2B18048000028C0F2B7804300002BB1
:10456000C0F2BD8058000028C0F2C3804200002A7B
:104570007ADB57000135AAE72A460123A6692046BF
:1045800001A9ED18B047002892D1019897EA006779
:1045900000F1B78079000029C0F2BD8048000028F2
:1045A000C0F2C3804300002BC0F2C980580000282D
:1045B000C0F2CF804700002FC0F2D58078000028DD
:1045C000C0F2DB804200002AC0F2E18057007EE7A3
:1045D00041F6B7505700C0F2C14087EA00010029F8
:1045E00087DA41F6B7564B00C0F2C14683EA0602AD
:1045F000002A81DA41F6B7505700C0F2C14087EA7D
:1046000000010029BFF67CAF41F6B7564B00C0F25F
:10461000C14683EA0602002ABFF676AF41F6B750DC
:104620005700C0F2C14087EA0006002EBFF670AF07
:1046300041F6B7517300C0F2C14183EA0102002A7A
:10464000BFF66AAF41F6B7505700C0F2C14087EAE3
:104650000006002EBFF664AF41F6B7517300C0F2FA
:10466000C14183EA01075CE741F6B7515300C0F24C
:10467000C14183EA0107013529E741F6B7514300FB
:10468000C0F2C14183EA0107002FBFF65BAF41F6DC
:10469000B7507F00C0F2C14087EA0002002ABFF68F
:1046A00055AF41F6B7535200C0F2C14382EA03014D
:1046B0000029BFF64FAF41F6B7574900C0F2C147D6
:1046C00081EA07000028BFF649AF41F6B75742001C
:1046D000C0F2C14782EA0703002BBFF643AF41F6A1
:1046E000B7515B00C0F2C14183EA01000028BFF668
:1046F0003DAF41F6B7574000C0F2C14780EA07021C
:1047000035E741F6B7537A00C0F2C14382EA0301AC
:104710000029BFF643AF41F6B7574900C0F2C14781
:1047200081EA07000028BFF63DAF41F6B7574200C7
:10473000C0F2C14782EA0703002BBFF637AF41F64C
:10474000B7515B00C0F2C14183EA01000028BFF607
:1047500031AF41F6B7514200C0F2C14182EA0107D0
:10476000002FBFF62BAF41F6B7517B00C0F2C1411D
:1047700083EA01000028BFF625AF41F6B757400095
:10478000C0F2C14780EA0702002ABFF61FAF41F618
:10479000B7515300C0F2C14183EA010797E600BF59
:1047A00070B5114C2368E21801331071236011B900
:1047B000402B00D070BD03F093FF012802D00021F0
:1047C000216070BD03F092FF0028F8D0074E064D1F
:1047D000306801212A1D238804F02BFB0028F6D025
:1047E00000202860E6E700BF3001002064090020B7
:1047F00038B501210B4C0A46054604F032FB04F1A2
:10480000440228460121402304F019FB0246C4F863
:10481000840000B138BD28460121BDE8384004F0CD
:1048200020BB00BF300100202DE9F8431E4DDFF80A
:1048300080904FF000082F46D5F8CC30D5F8C8202E
:104840001949934224D303F051FF48B303F048FFC2
:1048500001280446FAD1D5F88460002EECD0134824
:104860003246A0F1440105F023FA00222146D9F88E
:104870000000C7F8C860C7F88480C7F8CC8004F08F
:10488000F0FAD5F8CC30D5F8C82007499342DAD2EF
:10489000C818013390F88800C1F8CC30BDE8F8831F
:1048A0000420BDE8F88300BF30010020B8010020DB
:1048B0006409002048F21F53C5F2EB132DE9F047BD
:1048C00083FB0023224DC017D5F8CC10D5F8C820A3
:1048D000204FC0EB631391423B6003D2BDE8F04729
:1048E000FFF7A2BFDFF874A0A8464FF0000903F05D
:1048F000FDFE18B303F0F4FE01280446FAD1D5F802
:10490000846046B93868D5F8CC10D0B1D5F8C83035
:104910009942ECD2E2E710483246A0F1440105F09A
:10492000C7F9DAF8000021460022C8F8C860C8F8C4
:104930008490C8F8CC9004F094FAE3E70420BDE832
:10494000F087D5F8C8209142C8D3FF20BDE8F08792
:104950003001002000090020B80100206409002077
:10496000074B1A68824207D05B68834200D07047C9
:10497000034A00205060704700211960F4E700BF2F
:1049800000020020F0B583B000AF3B1D04463A465C
:1049900008461C4905F0E0F9022806D1204605F03A
:1049A00057FA3B68984208D827D01748032100F0EF
:1049B000C1FC07F10C07BD46F0BD7D686E4605F1F0
:1049C000090222F00700ADEB000DE41868466D21E6
:1049D0002A4600F8011B214605F059FA204605F049
:1049E00037FA03469D4288BF1D46684688BF7B60F4
:1049F000691C00F09FFCB546DBE70448012100F08C
:104A000099FCD6E738CC0008FCCA000800CB0008A7
:104A10002DE9F0434C4C83B0064600AF4B4904F1FE
:104A20000800062205F01CFA054650B304F1080000
:104A300047490A2205F014FA002845D004F108007D
:104A40004449172205F00CFA48B92068002871D0B3
:104A5000406E00285DD04049FFF794FF39E004F133
:104A600008003E491F2205F0FBF900283BD12068D1
:104A7000002846D0406A00284BD03949FFF782FF12
:104A800027E0063E06EBD670461006F10F0323F032
:104A90000701ADEB010D6A464FEAD2094FEAC9089A
:104AA00004F10E013246404600F090FD06F8395000
:104AB00020684146FEF786FB00281DDB0ED1294801
:104AC000022100F037FC04E027484FF4806100F039
:104AD000E3FC07F10C07BD46BDE8F0832348012144
:104AE00000F028FCF5E73B1D04F1080020493A4698
:104AF00005F032F9022811D01E48002100F01AFCFE
:104B0000E7E7606828B11C4903F014FD2060002825
:104B1000B0D11A48032100F00DFCDAE72068002824
:104B2000F7D097E80600FFF76FFC0146144800F045
:104B3000B3FCCEE760680028EBD00F4903F0FAFC25
:104B40002060002884D1E4E70002002004CB0008A4
:104B500014CB00085CCB00081F02002074CB0008B7
:104B6000270200200CCB000820CB000810CB000847
:104B700094CB0008C8BB000861490008FCCA0008C3
:104B8000A8CB00082DE9F04F964C8BB0002102AF66
:104B90004FF4016A40F61409934DF960B960C4F20C
:104BA000010AC4F20109A3462B889048CAF80030D4
:104BB0004FF4806100F06CFB06462888DFF84C82D9
:104BC000A9F8000094F808E0AEF10401762900F29B
:104BD000D780DFE811F0F600D500D500D500D5006C
:104BE000D500D500D500D500D500D500D500D5001D
:104BF000D500D500D500D500D500D500D500D5000D
:104C0000D500D500D500D500D500D500D500D500FC
:104C1000D000D500D500D500D500D500D500D500F1
:104C2000D500D500D500D500D500D500D500D500DC
:104C3000D500D500D500D500D500D500D500D500CC
:104C4000D500D500D500D500D500D5008800D50009
:104C5000D500D500D500F600D50033027801D50087
:104C6000D500D500D500D5004201D500D500D5002E
:104C7000D5003B01D500D500D500D500D5000C02EC
:104C8000D500D801D500D500D500D500D500D50078
:104C9000D500D5007900D500D500D5001D01D5007F
:104CA000D500D500C101D5009201D500D500D500B1
:104CB000D4013B017700D500D500DA00D500D5003E
:104CC000D500D8010120B8602068002800F00582D6
:104CD000B968466CB04740F660120120C2F200028B
:104CE00000211070B9602068002800F070829BF8E5
:104CF0000880C7F80C8007E0FFF7DCFD0338C6B278
:104D0000012E206840F2BF81066CB047061EF3D02A
:104D100040F660134FF00001C2F200031970FFF675
:104D200043AF2068826D2AB107F11C01904700282B
:104D300040F0B9812E48314600F0AEFB34E72B48F5
:104D40002C4907F1140207F11C0305F005F80228AD
:104D500040F06882DBF80000002800F0B9819BF881
:104D60000834002B00F07882866E7969FA69B047C2
:104D7000002840F0AD812048022100F0DBFA13E763
:104D80001E48002100F0D6FA0EE718481C4907F12A
:104D9000140204F0E1FF012800F0E88113481949EA
:104DA00005F04BF80028CAD1DBF80030002B00F0EA
:104DB0002A8218469E6BB0471348032100F0BAFAC6
:104DC000F2E62068002800F0B4818668B047DBF87E
:104DD00000200023084802216260236000F0AAFA44
:104DE000E2E600BF00020020FC08002008020020CC
:104DF000E8CB00082CCC00080CCB0008C8BB00088E
:104E000010CC000824CC000820CC00080A020020A6
:104E10002068E846002800F04181016A826ACE1DC0
:104E200026F00703ADEB030D02AE31469047DBF8E9
:104E300000203146AB48126A00F080FBDBF800101E
:104E40000B6A590000F076FAC546ADE620680028E6
:104E500000F06281826B9047A6E62068E846002851
:104E600000F01C8107F1180300939F4907F1140219
:104E700007F11C039B4804F06FFFFA69BB69D11D61
:104E800021F00706ADEB060DDFF858C202AE0CEBC1
:104E90000301304600F09AFB7969FB69880702D16B
:104EA0009A0700F0A28120683246D0F81CC0E04783
:104EB0002068C2689047002840F0EB808B480221B0
:104EC00000F038FAC0E72068E846002800F0E680E5
:104ED000026A8749D61D26F00703ADEB030D02AE2B
:104EE000304600F073FBDBF800003146C26A9047A1
:104EF0007E48022100F01EFAA6E72168E846002954
:104F000000F0CC8007F1140207F11C0375487949C1
:104F100004F022FFFB697A69DE1D26F00700ADEB85
:104F2000000D900702AE02D1990700F0658120685C
:104F30003146D0F818C0E0472068C3689847002879
:104F400040F0A7803146FA69664800F0F7FAFA693E
:104F5000510000F0EFF977E7216800293FF424AE13
:104F600008468E6BB047DBF8000083689847DBF893
:104F700000000022CBF80400CBF8002014E63046F5
:104F8000FFF746FD10E62368002B00F0A1809BF898
:104F900009605948303EBEF15A0EDEF1000857490B
:104FA00007F11C0207F1180358EB0E0804F0D4FEB9
:104FB000012E00F0C080FFF6E3AE042E3FF7E0AE16
:104FC000DBF80000D0F850C0BCF1000F3FF4D8AEC1
:104FD000B8F1000F01D1D0F854C0F1B2FA693B7EAC
:104FE000E04730BB4148022100F0A4F9DCE520682D
:104FF00000286DD007F11801009107F11C0340490A
:10500000384807F1140204F0A7FE7969FB698807A4
:1050100002D19A0700F0E0802068BA69DFF8C4E0A6
:10502000C6697244B0472068C368984700283FF4B7
:10503000A2AE3448032100F07DF9B5E5607ADFF8CF
:10504000B0E007F11C012D2808BFC64607F1180380
:10505000009107F110022C49704604F07DFE637A3E
:1050600084462D2B39697ED02068BA69036FC7F852
:1050700004C09847D7F804C0BCF1030F6BD0F868A0
:1050800020728646A0E57321C36BF96098472068BB
:105090003AE61C48032100F04DF9D5E61B480321F0
:1050A00000F048F9D0E61A483146FA6900F0F4F900
:1050B0007AE5BA69DBF80000B31AFB6140B1DFF8AA
:1050C00024E0C66E79697244B04700283FF453AEBD
:1050D0000E48032100F02EF966E50E48032100F08A
:1050E00029F961E508020020C0CB00080CCB0008BC
:1050F00009020020B0CB00080A02002068CC00089A
:1051000000CC0008FCCA0008F0CB0008A4B90008D5
:10511000D4CB0008A0B90008DBF8040000283FF455
:1051200043AD534903F006FA866BCBF80000B04755
:105130003AE502464DE6DBF80000826C002A3FF4B7
:105140001FAEB8F1000F00D1C26CF969904700287A
:105150007FF46FAF46E73A7F432A90D145486146D6
:1051600000F0E8F820E5494239617DE740F2387007
:10517000C2F200000068002876D0796901291AD0AF
:10518000D0F8800001F001020223002848D08B42B1
:1051900011D022B1D0F88000032350B940E0D0F8FC
:1051A00080605A1C002E3BD0D6F88000531C00288B
:1051B00036D08B42F3D12E4903F0BCF92060002891
:1051C0003FF437AF2C48032100F0B4F8ECE42B484F
:1051D000032100F0AFF8E7E4DBF80000BA69DFF87C
:1051E000A08046694244B0471DE7DBF80000324624
:1051F000D0F814C0E0475BE6DBF800003146D0F899
:1052000010C0E04798E6DBF8040000283FF411AF37
:10521000174903F08FF9826BCBF800009047D1E774
:105220002068CCE71648174907F1140207F1180364
:1052300004F092FD01283FF43CAF1148124904F0FC
:10524000FCFD064600287FF49BAD1048022100F0CB
:1052500071F88BF80864A7E4816B88470122DBF8BA
:1052600000008BF808247FE5DBF80000A7E700BF0B
:1052700061490008FCCB000820CC0008D0CB000816
:105280000802002044CC00085CCC00080CCB0008CD
:105290002DE9F043054683B00F464FF00008FFF7B5
:1052A000C3FA2428287006D00428F8D10124204607
:1052B00003B0BDE8F08300242646FFF7B5FA2328A3
:1052C0000DD0BC420BD02428F5D07D281FD0285506
:1052D0003618FFF7A9FA01342328F6B2F1D1FFF707
:1052E000A3FA8DF80400FFF79FFA4FF000098DF83C
:1052F00005001022494601A88DF8068004F0C8FE7A
:1053000086420FD02D200121FFF74AFAC7E7FFF7A9
:105310008BFA7D36311880F02000285501F0FF0609
:105320000134CAE72B200121FFF73AFA05F804906F
:10533000BDE700BF2DE9F047804682B08A464FF0B6
:105340000409471824200021FFF72AFABAF1000FB8
:1053500040F39E80444614F8015B6FEA0806A5F10D
:105360002303F019012B00F0010675D97D2D73D0B0
:1053700028460021FFF714FAEDB2BC4230D086B1C6
:1053800098F801600134A6F12301012971D97D2E1D
:105390006FD030460021FFF703FA7219D5B2BC4234
:1053A0001ED014F8016B7D20A6F12303012B45D9F3
:1053B000864243D030460021FFF7F2F97519EEB26C
:1053C00014F8015B0021A5F12302012A27D97D2DC4
:1053D00025D02846FFF7E4F9A819BC42C5B2E0D1B0
:1053E00000212320FFF7DCF92A462A4901A804F00E
:1053F0008FFC00219DF80400FFF7D2F901219DF8F0
:105400000500FFF7CDF94FF4FA60FFF753FA2B28A8
:1054100002D0B9F1010995D102B0BDE8F08785F05D
:1054200020057D200021FFF7BBF97D3628460021AD
:10543000FFF7B6F9731903F0FF05B0E786F0200611
:105440000021FFF7ADF97D3530460021FFF7A8F9BF
:10545000A91901F0FF06B3E77D20002185F02005A2
:10546000FFF79EF9284600217D35FFF799F9EDB247
:1054700083E77D20002186F02006FFF791F97D3536
:1054800030460021FFF78CF9A81900F0FF0586E7E8
:105490000025A5E774CC00080FB400B583B004ABB9
:1054A00053F8041B01A81A46009305F0F5F90146CC
:1054B0000198FFF73FFF019804F0A8FB03B05DF8E7
:1054C00004EB04B0704700BF2DE9F04100AF054682
:1054D00004F0BEFC410001F1100323F00700ADEB26
:1054E000000D4F226C46284604F8012B01F10108FB
:1054F00004F0AEFC29460246204600F01FF868463C
:1055000041466E46FFF716FFBD46BDE8F08100BF7D
:105510000FB400B583B004AB53F8041B01A81A46BE
:10552000009305F0B9F90198FFF7CEFF019804F058
:105530006DFB03B05DF804EB04B07047F0B4002AD3
:105540003FD00B78204C1D09665D00EB42020670CF
:1055500011F8013B151A03F00F06A65D831C023DEE
:105560009A424670C5F3400527D065B10D782D09E4
:10557000655D1D7011F8015B05F00F05655D5D70DF
:1055800002339A4219D00F780D463E09A75D9E1C42
:105590001F7015F8017B07F00F07E75D5F704F780C
:1055A00029463D09655D9D7011F8015B043305F0E6
:1055B0000F05655D9A427570E5D100211170F0BC50
:1055C00070470246F9E700BF7CCC000870B4002A9F
:1055D0007BD011F8024BC643A4F130038218DBB232
:1055E0009519092B05F0010607D9A4F13703DBB2A1
:1055F000102B84BFA4F15703DBB21C01E5B200F805
:10560000015B11F8014CA4F13003DBB2092B5ED829
:105610002B430231904200F8013C55D0FEB111F805
:10562000025CA5F13004E4B2092C44D82501ECB2A7
:1056300000F8014B11F8015CA5F13003DBB2092B36
:1056400007D9A5F13703DBB2102B84BFA5F15703AF
:10565000DBB223430231904200F8013C34D011F810
:10566000024CA4F13005EDB2092D07D9A4F137039E
:10567000DDB2102D84BFA4F15705EDB22C01E4B2C8
:1056800000F8014B11F8015CA5F13003DBB2092BE6
:1056900007D9A5F13703DBB2102B84BFA5F157035F
:1056A000DBB2234300F8013C11F8025BA5F13004A2
:1056B000E4B2092CBAD9A5F13703DCB2102C84BFAF
:1056C000A5F15704E4B2B1E7104670BC7047A4F1ED
:1056D0003703DBB2102B84BFA4F15703DBB297E78B
:1056E0002DE9F04FB64F83B00025B64E044602F0C8
:1056F000E1FE294678223846356004F0E2FA00F0EF
:1057000023FA00F03DFB002C00F04081032004212F
:1057100000F0B0FB3068052838DC00EB800207EBB6
:1057200082018B78102B31D82378002B2ED00134B6
:10573000B8461BE0336814F8010C03EB830207EB57
:105740008201CD7007F822308870013314F8010C03
:1057500003EB8302052B08EB82013360054415DC63
:105760008878102812D814F8013B7BB101A80021D9
:10577000954A00F0E5FB0198C307DBD44FF0FF30FA
:1057800003B0BDE8F08F052A00F3FC80012001463C
:1057900000F03EFB0120022100F06CFB0120032100
:1057A00000F068FB894D002407E09C4200F3EA808A
:1057B000581E011B05F8141C01340020012100F0C3
:1057C00027FB143533680028EFD09C4240F0DA8084
:1057D000012001467B4C00F01BFB0120022100F060
:1057E00049FB2468002C00F02681012C30D004EB0A
:1057F000840207EB8202764812F8103C12F8124C31
:10580000111AE418A2F114031439834202F8244C4B
:10581000C1F380011CD051B113F8124C13F8101CC5
:10582000611803F8241CA2F12803834210D013F856
:10583000124C13F8101CA3F11402611813F8264C33
:1058400003F8241C283B0919834202F8241CEED1DA
:1058500000F096FA0120032100F00CFB30680028CC
:105860003DDDDFF85C914FF0000A4FF0010B0020A6
:10587000012100F0CDFA58B300200121C9F808B089
:1058800000F0C6FA28B1D9F8085045F00203C9F86B
:10589000083004251E240121002000F0B9FA01215E
:1058A00005FA01F8013C28B1D9F8082042EA0500C0
:1058B000C9F80800002000F0ABFA28B1D9F80810A8
:1058C00041EA0805C9F80850013C4FEA4805E2D111
:1058D00033680AF1010A534509F11409C7DC0120B4
:1058E000014600F095FA0120022100F0C3FA326867
:1058F000002A25DD40F2774BDFF8C490324D4FF09F
:10590000000AC0F6A03B4FF0FF38D9F808E02EF0AF
:10591000F02058451ED02F4B002104E060690EEAAC
:105920000000824217D01A691C4601311033002A48
:10593000F4D131680AF1010A514509F11409E4DC96
:10594000254B1A68002A7CD00020014601F090FA0D
:10595000306815E7002105EB01114B698A69C9F828
:105960001080C9F80C30002AE3D00AEB8A0007EB5C
:105970008000904731680AF1010A514509F1140984
:10598000C3DCDDE74FF0FF303060F9E6042103208F
:1059900000F070FA2046012100F03AFA0028F1D018
:1059A00033680124052BBC70ECDC03EB830007EBB0
:1059B00080018A78102AE5D8A146B0463D462BE002
:1059C000800800207C08002090CC0008810800207E
:1059D000940800209CCC000838070020326802EBB5
:1059E000820307EB83018878531C01283FF4CBAE78
:1059F0009A00D11805EB8100C8F8003080F80290B9
:105A0000C47005F82130D2180134052B07EB820150
:105A1000B8DC8B78102BB5D80121002000F0F8F904
:105A20000028DBD133689A00D01807EB8001887812
:105A300001308870E7E70548012101F019FA204696
:105A40009EE60248012101F013FA81E7A8B9000897
:105A500070B5036982B08B4204460E4601913AD07C
:105A60001E48016800291ADD1D4D01EB810205EB7E
:105A70008200411B05F1140314394FF0FF328342B9
:105A80002A61C1F380010AD021B11A6105F128030E
:105A9000834204D01A615A6228338342FAD1032028
:105AA0000421266100F0E6F90020E2780D4900F0BB
:105AB00007FB207901A9D0F1010038BF0020A278AE
:105AC00000F0FEFA01200749227900F0F9FA0120DE
:105AD000022100F0CFF902B070BD00BF7C080020A9
:105AE0008008002090CC0008F8B504460D4601203F
:105AF000032116461F4600F0BDF900201149227807
:105B000000F0DEFAA5B161782846D1F1010138BF75
:105B1000002132463B4600F013FA01200949627821
:105B200000F0CEFA01200221BDE8F84000F0A2B951
:105B300060783146D0F1010038BF00203A4600F0CD
:105B4000BFFAEAE790CC00082DE9F04F4FF440602F
:105B500083B003214FF48043C4F20100002240F6D9
:105B6000080502F08DFF4FF401674FF4416C40F6D9
:105B7000140320263321C4F201050191C4F2010C63
:105B80004FF48049C4F201034FF08008C4F20107CA
:105B9000B3460095009DCCF80090A3F80080C7F8AC
:105BA00000B02A681E80CCF80090A3F80080C7F8E7
:105BB00000B02A681E80CCF80090A3F80080C7F8D7
:105BC00000B02968019D4FF4416A40F614044FF477
:105BD000016240F608002021033D1E80C4F2010A44
:105BE000C4F20104C4F20102C4F201000195D1D152
:105BF00040F61443C4F201034FF480451D80802514
:105C00001560116005684FF4804521801D80802556
:105C10001560116005684FF480452180CAF8005076
:105C200080251560116005684FF480452180CAF811
:105C3000005080251560116005684FF48045218073
:105C4000CAF8005080251560116005684FF4804542
:105C50002180CAF8005080251560116005684FF456
:105C6000804521801D8080251560116005684FF4F6
:105C7000804521801D8080251560116005684FF4E6
:105C800080452180CAF800508025156011600568A4
:105C90004FF480452180CAF80050802515601160BE
:105CA00005684FF480452180CAF8005080251560B2
:105CB000116005684FF4804521801D8080251560A6
:105CC000116005684FF4804521801D808025156096
:105CD000116005684FF480452180CAF80050802586
:105CE0001560116005684FF480452180CAF80050A6
:105CF00080251560116005684FF480452180CAF841
:105D0000005080251560116005684FF480452180A2
:105D1000CAF8005080251560116005684FF4804571
:105D20002180CAF8005080251560116005684FF485
:105D300080452180CAF800508025156011600568F3
:105D40004FF480452180CAF800508025156011600D
:105D500005684FF480452180CAF800508025156001
:105D6000116005684FF4804521801D8080231360F9
:105D7000116003680198218003B0BDE8F08F00BF77
:105D8000F0B44FF401634FF44166C4F201032022E2
:105D90004FF480458024C4F2010640F6080040F626
:105DA00014013560C4F201001C60C4F201011A60E4
:105DB00007680A8035601C601A6007680A803560D1
:105DC0001C601A6007680A8040F6144735601C6042
:105DD0001A60D0F800C0C4F201070A8035601C6068
:105DE0001A6006680A803D801C601A6003680A8099
:105DF000F0BC704710B5044601F00AF834B142F225
:105E0000107000BF431E00BF581EFAD110BD00BF66
:105E100000B34FF44160C4F201004FF480430360CB
:105E200009BB40F61401C4F2010180220A804FF43C
:105E300001612022C4F2010140F608000A60C4F2A8
:105E40000100016840F61403C4F201031A80C1F393
:105E50008010704740F61443C4F201034FF48042AF
:105E60001A800029DDD04FF40160C4F201008023C4
:105E70000360DCE72DE9F00F4A1E00295AD02025E7
:105E80004FF4416940F6144A4FF4016340F60804A8
:105E900040F61401C607C4F201094FF48047C4F26A
:105EA000010AC4F201034FF08008C4F20104C4F2F5
:105EB0000101AC4602F0010B3FD4AAF80070C3F810
:105EC00000801D6026684008A1F800C0561E8AB3F5
:105ED000BBF1000F1BD0C2074CBFC9F80070AAF875
:105EE0000070C3F80080013E1D6022684008721CEB
:105EF000A1F800C00BD11DE0C9F80070C3F8008004
:105F00001D6026684008A1F800C0561E92B1C20765
:105F10004CBFC9F80070AAF80070C3F800804008B0
:105F20001D602268721EC607A1F800C0E4D4AAF85A
:105F30000070E3E7BDE8F00F7047C9F80070BEE7F6
:105F40002DE9F00F82B040F6144C4FF4416840F652
:105F500014054FF4016640F6080701912024012141
:105F600013F0010FC4F2010C4FF4804AC4F201088F
:105F7000C4F201054FF0800BC4F20106C4F2010720
:105F800073D1009703F1FF39002B4DD0137801EA4C
:105F90000307B9F1000F65D1019B002B62D0C8F84F
:105FA00000A0002F5BD0C6F800B0009F34603B68B3
:105FB0002C8003F04007BBB2002B4BD0037841EAA2
:105FC00003070770490011F0FF0102D101320130CF
:105FD0000121B9F1010392F8009001EA090927D0E3
:105FE000ACF800A0B9F1000F2AD1A5F800B0009FCD
:105FF0003460D7F800902C8009F040091FFA89F925
:10600000B9F1000F1FD190F8009029EA010980F83A
:106010000090490011F0FF01B4D10132013001219B
:1060200003F1FF39002BB1D102B0BDE8F00F70478A
:10603000019F002FD4D0C8F800A0B9F1000FD4D030
:10604000C6F800B0D3E790F8009041EA090980F85B
:106050000090DEE7077827EA01070770B2E7A5F8A6
:1060600000B0A2E7ACF800A09BE71178013B01F07B
:10607000010914D0ACF800A0B9F1000F17D1A5F8B0
:1060800000B0346039682C8001F0400189B289B9D0
:10609000017801F0FE0101700221009772E7019979
:1060A0000029E7D0C8F800A0B9F1000FE7D0C6F882
:1060B00000B0E6E7017841F001010170ECE700BFB4
:1060C0002DE9F00F40F6080C40F614484FF44169F2
:1060D00040F614064FF4016701252023D4078246B9
:1060E000C4F201084FF48040C4F20109C4F2010671
:1060F0004FF0800BC4F20107C4F2010C0FD50C78ED
:10610000013A04F001054DD0A8F80000002D50D14F
:10611000A6F800B03B60DCF8004002253380541E36
:106120006AB30A782A40002C39D1BAF1000F36D070
:10613000C9F80000002A2FD0C7F800B06D003B60FE
:1061400015F0FF05DCF80020338001D10131012575
:10615000621E0C7804EA050414D0A8F80000C4B943
:10616000A6F800B06D003B6015F0FF05DCF80040BC
:106170003380D4D101310125541E002AD1D1BDE88C
:10618000F00F7047BAF1000FE7D0C9F80000002CFB
:10619000E6D0C7F800B0E5E7A6F800B0CEE7A8F86B
:1061A0000000C7E7BAF1000FAED0C9F80000002D1B
:1061B000AED0C7F800B0ADE72DE9F04198464FEA00
:1061C000A3039C00123424F0070500AFADEB050DCE
:1061D0000446009102A811464246019303F068FD6F
:1061E0004FF000510F4A302366692046B0473021F6
:1061F00008F10803C2F200016A4665692046A84713
:106200004FF00051626B20469047636C204600219E
:106210009847216C204688470028FAD00020BD46C8
:10622000BDE8F081100000202DE9F043D0F8845043
:1062300022F47F77522283B021F47F782846002110
:10624000CAF20022FBF7CEFF4FF450436868C4F255
:106250000F03009327F00307846901210022042320
:1062600028F00308A04737B34FF00209CAF24249A9
:106270000026284610214246FBF7B4FF6868CDF897
:1062800000900121002208238469A0476868012149
:10629000009684690A460823A04768680121009691
:1062A000082384690A46A0478307F6D4B7F58067B8
:1062B00008F58068DDD1002003B0BDE8F08300BFA1
:1062C0004EF2040110B5C4F20F010446D0F8840068
:1062D000FCF732FA41F24903B3EB104F01D0002032
:1062E00010BD05480549064B00F11802606762665B
:1062F000A166E366012010BDA4CF00082962000852
:10630000B9610008026A2DE9F041002AB8BF0332E2
:106310000B4622F0030104460A31234821F0070509
:106320004FF000084FF43E4600AF0246ADEB050DBE
:1063300006804FF08051A0F8028066692046B04781
:106340006946A36A2046984718264FF0040E4FF47A
:10635000FC60012241F6F173C1F20002C1F2000EAD
:10636000C1F20000C1F6FF73C1F200066946119048
:106370000E92CDF800E001960F93E56A2046A847FB
:10638000626C204641469047216C20468847002891
:10639000FAD02569204604494FF080522823A847A7
:1063A000BD46BDE8F08100BF0C0600202DE9F84392
:1063B000114C00234E1E254645F8103BB218120B17
:1063C0000E0B2B606361A361E3612362636228218A
:1063D00032236360A660E260FFF794FFA06904F1D6
:1063E000140904F1180804F12407002814BF4FF021
:1063F000FF300020BDE8F8830C0600202DE9F04FA7
:1064000001F1FF391F464B444FEA112B4FEA132984
:1064100085B0C9B2CB4580461646029173D8282074
:10642000C1F20000DFF8E8A04FEA0B255C460390BC
:106430002FE0314635484FF4807203F039FCA7F560
:10644000807706F5807629464FF480724046FFF744
:10645000ADFF01344FF4947100284FD1039A3323D8
:106460004046CAF80430CAF80C204FF4807342F654
:10647000E062CAF80850CAF81030CAF81420FFF7D2
:1064800041FFDAF8180005F58075002836D1A145DE
:1064900039D35C4501D04C45CBD1FF214FF48072FC
:1064A0001A4803F00EFC029A3146C2F5807310467A
:1064B000BB42A8BF3B4628301A465044019303F024
:1064C000F7FB01997F1A7618ACB90AF128030ECBB5
:1064D0008818DAF83420C118DAF838308818DAF871
:1064E0003C20C118DAF840308818C2185142CAF866
:1064F00044100294A7E700220292A4E74FF0FF3075
:1065000005B0BDE8F08F0020FAE700BF3406002098
:106510000C060020F8B50B051B0D0D460646174668
:10652000EBB9FFF743FFD0B9681E0E4CC7192821FD
:10653000342242F6E0633F0B2D0B30466260A560CB
:10654000E7602361FFF7DEFEA16941B930463522DD
:1065500028216260FFF7D6FEA06900B9F8BD4FF0B0
:10656000FF30F8BD0C06002048F2F43110B5C4F23B
:1065700004010446D0F88400FCF7DEF841F22B0356
:10658000C1F2314398421AD023D949F22B03C2F207
:106590002453984213D049F22B0136D9C2F232511A
:1065A00088420CD067D941F22B01C2F24051884297
:1065B00005D049F22B02C2F24052904223D1384812
:1065C000384B3949394A60676366A166E266012043
:1065D00010BD45F22B01C0F234418842EFD026D9DC
:1065E00049F22B02C0F640229042E8D041F22B0340
:1065F00031D8C0F244439842E1D045F22B01C0F2B9
:1066000044418842DBD0002010BDC1F640218842C1
:10661000D5D03DD949F22B03C2F216539842CED0C1
:106620004DF22B01C2F216518842ECD1C7E745F278
:106630002B02C0F21E429042C1D045F22B0315D965
:10664000C0F225439842BAD041F22B01C0F2344146
:106650008842D8D1B3E7C1F221439842AFD041F28A
:106660002B02C1F230429042CDD1A8E7C0F21643CE
:106670009842C8D1A3E74DF22B02C2F224529042B5
:106680009DD041F22B03C2F232539842BBD196E720
:1066900041F22B02C1F240429042B4D18FE700BFD9
:1066A00074D1000894D0000815650008FD63000847
:1066B0004FF6FF7200F16643C0F20702934203D91E
:1066C00000F16543934209D8B3F5803F04D3A3F5A5
:1066D0008030000C08307047580B70474FF0FF3087
:1066E000704700BF2DE9F04383B00446006A884636
:1066F0000028B8BF033020F003010A3100AF16466E
:1067000021F007034FF48072ADEB030D391DC1F288
:106710004002042325692046A8474FF000094FF4A2
:106720003E404FF4404133464246C2F20001A8F8D1
:1067300000006669A8F802902046B0476946A26A40
:10674000204690474CF21C00C2F2000001904CF22F
:10675000040678684A464CF20103C2F20102C2F212
:106760000003C2F20006694611920F9000960E9344
:10677000E56A2046A847626C204649469047216C4E
:10678000204688470028FAD04FF440422569204629
:106790004146C2F200023023A84707F10C07BD466C
:1067A000BDE8F08300B5ADF5815D85B0312301937F
:1067B0006946002330220793FFF794FF07980028CB
:1067C00014BF4FF0FF3000200DB00DF5805D00BD0F
:1067D0002DE9F043ADF5815D85B005463226FFF722
:1067E000E1FF0E24002328466946302202930493D9
:1067F000079301960394FFF775FF079B002B37D192
:106800004FF0340842F6E06728466946302202938A
:106810000593CDF8048003940497FFF763FF079B6B
:10682000002B25D14FF001092846694630220293FA
:1068300001960394CDF81090FFF754FF079BBBB966
:10684000284669463022CDF80480029303940497C9
:10685000CDF814900793FFF745FF079840B9054816
:10686000FEF756FE48460DB00DF5805DBDE8F0839D
:106870000020F8E750D4000870B5ADF5815D84B014
:106880003223054608460C4616460193FFF710FFD3
:1068900002903019FFF70CFF4FF6FF7104F16642CA
:1068A000C0F207018A42039018D904F165448C4272
:1068B0008CBF4FF0FF330123284604936946002321
:1068C00030220793FFF70EFF0798002814BF4FF000
:1068D000FF3000200CB00DF5805D70BD0023EBE7AC
:1068E0002DE9F043CB04ADF5815D0C46D90C85B0A4
:1068F0000546164600295AD1FFF754FF002856D105
:10690000284621463246FFF7B7FF814600284ED180
:10691000342220460192FFF7CBFE0746301902973A
:10692000FFF7C6FE80464FF6FF7004F16646C0F2E0
:10693000070042F6E0638642CDF80C80049332D91A
:1069400004F1654981458CBF4FF0FF3301233022AC
:1069500005932846002369460793FFF7C3FE079A6D
:10696000002A24D14FF6FF70C0F20700352186427D
:1069700001910297CDF80C8017D904F16544844247
:106980008CBF4FF0FF330123284604936946002350
:1069900030220793FFF7A6FE079840B90DB00DF51A
:1069A000805DBDE8F0834B46D1E71346ECE74FF03E
:1069B000FF30F3E72DE9F04F9A46ADF5825D4B1EAF
:1069C00085B003EB0A060F054FEA113B0691310B28
:1069D0003F0D8B45039106469146049700F2928045
:1069E0004CF230004FF6FF72C2F20000C0F2070214
:1069F0004FEA0B385D4608AC0590079205E0039F0F
:106A00000135AF4208F580587CD35D4562D0039FC5
:106A1000BD425FD0494614A84FF4805203F048F9B4
:106A2000AAF5805A09F58059304641464FF4805204
:106A3000FFF722FF8446002845D14CF23001C2F214
:106A4000000114AA4FF48053CDF804C07769304692
:106A5000B84733236360059F4FF48053236103F5E8
:106A6000F7536361C4F80880E760DDF804C030467E
:106A7000214641F23002C4F81CC0FFF733FEE3693F
:106A80000BBB5D45BBD10699079F01F166403C22D7
:106A9000B842626008D9069F07F16543079FBB4271
:106AA0008CBF4FF0FF330123A36042F6E063214621
:106AB000E3603046002341F23002E361FFF712FE4B
:106AC000E16900299BD04FF0FF3015B00DF5805DD6
:106AD000BDE8F08FFF214FF4805214A803F0F1F8C5
:106AE000049B4946C3F580575745A8BF57463033E6
:106AF0003A46E018C7EB0A0AB944002703F0D8F871
:106B0000049791E70020E0E74FF4485138B5C4F20C
:106B100004010446D0F88400FBF70EFE4FF46D41EB
:106B20000546CEF20001D4F88400FBF705FE2B23C6
:106B3000C5F606139D421FD02B21C6F606118D42C5
:106B40001AD02B22C4F60612954201D0002038BD7F
:106B500020F47F014FF4424321F00F02C4F20013EE
:106B60009A421ED04CF24021C4F200118A421FD03A
:106B70001B4B0120636738BD20F47F024FF4424174
:106B800022F00F00C4F2001188420AD04CF24023D8
:106B9000C4F2001398424FF0010006D0104A626719
:106BA00038BD104B0120636738BD0F49616738BDA0
:106BB0004CF24121C4F20F110B4A8842626701D0A6
:106BC000012038BD094B0A490A486166A066E366A0
:106BD000204601F52F71084A01F092FC012038BDD2
:106BE0008CD4000878D400085CD40008B56900088B
:106BF0007CD10008E168000870D4000808B500F0F6
:106C00004FF848B940F60410C2F2000003F072F8E1
:106C1000FDF7B8FF002008BD02482C21024A034BB3
:106C200002F09EFFD0D40008C8D40008D8D40008D1
:106C300010B5194C2068431C00D010BD4FF4805093
:106C4000C4F20100002102224FF4C04301F018FFFA
:106C500041F21002C4F201024FF4C04141F20803B4
:106C60001160C4F201031A681A681A681A681A686F
:106C70001A681A681A681A6818684840C0F34130E0
:106C8000206020B9054A4FF48071118010BD034B7C
:106C90004FF400721A8010BD40000020FC08002054
:106CA00038B501F0E9FF41F21C00C4F202004FF4D4
:106CB000000101F083FF41F218000421C4F2020038
:106CC00001F07CFF41F218000821C4F2020001F03B
:106CD00075FF41F218001021C4F2020001F06EFFAE
:106CE00041F218000121C4F2020001F067FF41F2F5
:106CF00014004021C4F2020001F060FFFFF798FF8A
:106D0000012864D04FF44060C4F201000321002246
:106D10004FF4804301F0B4FE4FF40060C4F2010070
:106D200003210022202301F0ABFE4FF40060C4F2E7
:106D3000010003210022802301F0A2FEFFF778FF6B
:106D4000002841D001252B464FF44164C4F20104D0
:106D50004FF4406003210122C4F20100256001F0DC
:106D60008FFE264B4FF40060022100221B88C4F2E4
:106D7000010001F085FE002002F0A8FE4BF6A030D5
:106D8000C0F20D0002F09AFE4EF62350CEF2000043
:106D9000027802F00F010170037843F0E002027004
:106DA00002F09EFE02F0A4FE01F044FD4EF60850F3
:106DB0004FF40051CEF20000016001F09DFC002074
:106DC000FEF78EFC002038BD02252B46BCE741F2C1
:106DD0000403C4F202031A684FF4006022F07061E9
:106DE00019601C68C4F2010044F0C0651D600321F5
:106DF00002224FF4807301F043FE83E7FC08002079
:106E0000024A10601368002BFCD170470009002073
:106E100010B50446FFF70CFF002814BF0120022024
:106E20002CB94FF44163C4F20103186010BD40F661
:106E30001441C4F20101088010BD00BF08B5094B20
:106E4000187830B9084B1A6812B11868411E1960D9
:106E500008BD06494FF40060C4F20100098801F042
:106E60004DFFEFE76009002000090020FC0800202A
:106E700040F6F803C2F20003186070474DF2F0408C
:106E8000C0F60000704700BF10B541F21004C4F214
:106E9000020420464FF4000101F094FE20464FF416
:106EA000000101F093FE41F21C00C4F202004FF415
:106EB000000101F083FE41F218000421C4F2020037
:106EC00001F07CFE40F614024FF48053C4F201023C
:106ED0004FF400601380C4F2010002210122BDE8DA
:106EE000104001F0CDBD00BF38B54FF40064C4F2CE
:106EF0000104256841F21800C4F20200042101F0E7
:106F00005DFE25F0F00040F08005256038BD00BF33
:106F1000704700BF70B5D0F8845042F0B4420E46BE
:106F200004460431284642EA0322FBF78FF908366B
:106F300031462846FBF700FC10F0010F204606D131
:106F4000E36898470028F3D04FF0FF3070BD284623
:106F50003146FBF7F1FB00F0060070BD70B5054649
:106F60000E46406F1F49144602F067FFA0B92B6E12
:106F700003F47060B0F5106F17D0B0F5206F28D013
:106F8000B0F5E06F1DD0FCB1A6F500264FF42060EF
:106F90002660C4F20E0070BDB4B1A6F580064FF4B1
:106FA00020602660C4F20E0070BD4FF420218E4296
:106FB000E9D98CB1761A4FF460602660C4F20E00F5
:106FC00070BD4FF41021F2E74FF42060C4F20E00C0
:106FD00070BD4FF44021EAE74FF46060C4F20E0048
:106FE00070BD00BF4CD70008002170B50A460546A9
:106FF000D0F88460FFF7B2FF04460D22002321463B
:107000002846FFF787FF04F10C013046FBF794FB9D
:1070100001464DF25870C0F60000FEF779FA0120E3
:1070200070BD00BFF8B50C46002116460A4605465D
:10703000FFF794FF032C074604D00D48FEF744FAEF
:107040000020F8BD706802F0ABFD0446B06802F0A5
:10705000A7FD394600280CBF0C220B22A3B22846FC
:10706000FFF758FF2846FFF7BFFF0120F8BD00BF1C
:1070700068D700082DE9F043C3B0174601AA0546BA
:107080008946FFF76BFF019CFF214FF48072804619
:1070900002A802F016FE6E692846494602AA4FF47D
:1070A0008073240AB047002F32D0A7F58077284696
:1070B00041460322A3B2C7F30026FFF72BFF20BBF4
:1070C00001342FB396B1284641460322A3B2FFF7FD
:1070D00021FFD0B90134B7F5807707D118E02846F1
:1070E000FFF718FF88B9B7F5807711D0A3B24146F2
:1070F00003222846FFF70EFF661C41460322B3B267
:10710000A7F5807702340028E9D04FF0FF3000E087
:10711000002043B0BDE8F0832DE9F04FC5B017461D
:1071200003AA99460D460446FFF718FF039B8346C2
:107130005E1E06EB0900DAB24FEA132A060AAD1A00
:10714000B2450392009500F2B080CAEB060505F047
:107150000103FF214FF4807204A8019302F0B1FDF6
:10716000039804ADC0F58078C145B8BFC846424613
:107170003946281802F09CFD002104AA4FF48073C0
:107180000391656900992046A84720465946012287
:107190001FFA8AF3C8EB0909B844FFF7BBFE0028C1
:1071A00040F087800AF10105AE427ED3019FFFB116
:1071B00055454AD0B54248D0414604A84FF48072A4
:1071C00002F076FDA9F5807908F5807804AA4FF4DD
:1071D0008073009967692046B847204659460122C6
:1071E000ABB2FFF797FE002863D10135AE425CD306
:1071F000554542D0B54240D0414604A84FF4807274
:1072000002F056FDA9F5807908F5807804AA4FF4BC
:107210008073009967692046B84720465946012285
:10722000ABB2FFF777FE002843D1013555450CD0AE
:10723000B5420AD0414604A84FF4807202F038FDEE
:10724000A9F5807908F58078C0E7FF214FF48072B6
:1072500004A802F036FD039A04ABC2F58077B94565
:10726000B8BF4F46414698183A4602F021FD00202B
:10727000C7EB0909B8440390A8E7FF214FF48072D7
:1072800004A802F01EFD039A04ABC2F58077B9454D
:10729000B8BF4F46414698183A4602F009FD002112
:1072A000C7EB0909B8440391B0E7002045B0BDE839
:1072B000F08F4FF0FF30F9E738B5D0F884504FF435
:1072C00014610446C4F20E012846FBF735FAE023A8
:1072D0006022C0F6F0730340C0F65002934220666D
:1072E00035D06020C0F66000834230D06021C0F607
:1072F00040018B422BD04FF4E8612846C4F20E01C6
:10730000FBF71AFAE0236022C0F6F0730340C0F6E0
:107310004012934220660BD06020C0F6501083428A
:1073200006D06021C0F630118B4201D0002038BD5C
:107330000F4B1049104A11486166A266E066636708
:10734000204624390E4A01F0DBF8012038BD0D4BF0
:107350000D49094A09486166A266E06663672046EE
:1073600001F58C71094A01F0CBF8012038BD00BF4E
:1073700098D7000834D60008757000081971000805
:10738000A4D700084CD70008F8D4000890D700080C
:1073900038B542F20404C4F2020440F2231221463A
:1073A000C4F267520546FAF751FF48F6AB12284679
:1073B0002146CCF6EF52BDE83840FAF747BF00BF90
:1073C00038B5D0F8845004462846FFF7E1FF42F272
:1073D00010012846C4F202010422FAF737FF42F2F4
:1073E00010012846C4F202014422FAF72FFF42F2AC
:1073F0000C01C4F202012846FBF79EF910F0010FC0
:10740000204605D0E26890470028F0D0002038BD23
:1074100042F20C012846C4F20201FBF78DF900F09C
:107420003400B0F12003594251EB030038BD00BFD6
:107430002DE9F843D0F88460C3F10005044605EA5D
:1074400002073046984605EA0109FFF7A1FF77B326
:1074500042F210013046C4F202010222FAF7F6FEAF
:1074600042F2140130464A46C4F20201FAF7EEFE37
:1074700042F210013046C4F202014222FAF7E6FE5F
:1074800042F20C01C4F202013046FBF755F910F04C
:10749000010F204607D0E568A8470028F0D04FF03C
:1074A000FF30BDE8F883B7EB0807C144D0D142F202
:1074B0000C013046C4F20201FBF73EF900F0340043
:1074C0002028ECD10020BDE8F88300BF4FF4006312
:1074D000FFF7AEBF4FF48063FFF7AABFF8B5D0F84F
:1074E00084500F4642F210011646C4F202014FF4D6
:1074F000047204462846FAF7A9FE28463946324661
:10750000FAF78AFE42F20C01C4F202012846FBF7A8
:1075100013F910F0010F204605D0E36898470028C2
:10752000F0D00020F8BD0120F8BD00BF036E2DE9AA
:10753000F0410546A3F222401E280E461746D5F814
:10754000844009D8012202FA00F31146C4F2010175
:107550001940002940F0888045F6A5282046FFF70D
:1075600017FF42F2080140F223122046C4F2020142
:10757000C4F26752FAF76AFE42F2080148F6AB120B
:107580002046C4F20201CCF6EF52FAF75FFE022E5B
:107590007ED0032E6BD05848FDF796FF5748FDF775
:1075A00093FF4FF478412046C1F6FF71FBF7C4F812
:1075B0004FF47841054682B2C1F6FF715048FDF79D
:1075C000A7FF4FF602012A0CC1F6FF714C48FDF7E8
:1075D0009FFF4FF604012046C1F6FF71FBF7ACF8A0
:1075E0004FF60401054682B2C1F6FF714448FDF72B
:1075F0008FFF4FF606012A0CC1F6FF714048FDF7D8
:1076000087FF4FF608012046C1F6FF71FBF794F89B
:107610004FF60801054682B2C1F6FF713848FDF702
:1076200077FF4FF60A012A0CC1F6FF713448FDF7C7
:107630006FFF4FF60C012046C1F6FF71FBF77CF897
:107640004FF60C01044682B2C1F6FF712C48FDF7DB
:107650005FFF4FF60E012A48C1F6FF71220CFDF7BD
:1076600057FF0120BDE8F08145F2AA5876E70021D6
:107670000A46786802F00CFD002106460A46B86802
:1076800002F006FD314682B22846FFF727FF88E761
:1076900078681C4902F0D1FB00287FF47CAFD5F854
:1076A000846042F210013046C4F202014FF40872C5
:1076B000FAF7CCFD42F210013046C4F202014FF459
:1076C0001872FAF7C3FD42F20C01C4F2020130460F
:1076D000FBF732F810F0010F284603D0EA68904714
:1076E0000028F0D04FF478412846C1F6FF71424699
:1076F000FFF7F4FE55E700BF24DA000844DA00087B
:1077000014DA00080CDA00082DE9F04701F003064E
:107710009846F31C8E4603EB08018B089C0012343C
:1077200024F0070500AFADEB050D0DF1080A044686
:10773000C6EB0E0E4FF0FF3C11464FEA830942465E
:1077400001330AEB0600CDF800E0CDF808C0CDF813
:107750000490D4F884904DF823C002F0A9FA4FF0B9
:107760000051184A2C2320466669B0472C2108F1A5
:1077700008036A46C2F2000165692046A8474FF037
:107780000051626B20469047E168204688470146D9
:10779000A0B9636C20469847226C20469047002889
:1077A000FAD042F20C014846C4F20201FAF7C4FFD3
:1077B00010F0140002D1BD46BDE8F0874FF0FF3055
:1077C000F9E700BF440000204FF4005110B5CEF29D
:1077D00004010446D0F88400FAF7AEFF0005010D5D
:1077E000A1F582632166222B44D8DFE803F03343FE
:1077F00033432343434323434343434343433343B9
:107800001243434343432343434343434343434399
:107810001200294A294B2A49A2F1E00062676066FA
:10782000A1662046A2F58E71E366264A00F068FE46
:10783000012010BD2449214B214801F11802616744
:107840006266A066E36620462439204A00F058FEAE
:10785000012010BD1E49194B1E4801F11802616735
:107860006266A066E3662046F4311B4A00F048FEDB
:10787000012010BD4FF4B041C4F20101D4F88400DE
:10788000FAF75AFF01050A0DB2F5886F226601D09A
:10789000002010BD11490F4B084AA1F50170616726
:1078A0006066E2662046A366A1F594710C4A00F07A
:1078B00027FE012010BD00BFF4D900080977000899
:1078C000CD74000884DA0008FCD8000878DA0008D3
:1078D000E4D70008D57400086CDA000800DA000864
:1078E0008CDA000870B5D0F884500E4642F63B2280
:1078F00043F60841C4F20201C0F6190204462846C4
:10790000FAF7A4FC43F6084146F67F622846C4F223
:107910000201C4F65D42FAF799FC43F60C41C4F249
:1079200002012846FAF708FF10F4803F204605D0F0
:10793000E16888470028F0D0012070BD26F070462D
:1079400026F0130643F6144132462846C4F20201DB
:10795000FAF77CFC43F614412846C4F2020146F0D3
:107960000202FAF773FC43F60C41C4F20201284606
:10797000FAF7E2FE10F4803F204605D0E36898470E
:107980000028F0D0002070BD43F614412846C4F210
:10799000020146F00102FAF759FC012070BD00BF58
:1079A000022970B505461646D0F884402DD003292B
:1079B00005D15068214902F040FA002833D0204810
:1079C000FDF782FD1F48FDF77FFD4FF44041C1F6F2
:1079D000FF712046FAF7B0FE4FF4404182B2C1F683
:1079E000FF711948FDF794FD4CF208012046C1F6DD
:1079F000FF71FAF7A1FE4CF2080182B2C1F6FF71E5
:107A00001148FDF785FD012070BD50680F4902F057
:107A100014FA0028D3D14AF6ED212846C0F6FF71AA
:107A2000FFF760FFD1E701460A46B06802F0BCFBF1
:107A300001462846FFF756FFC7E700BF4CDE0008A7
:107A400024DA000854DE000814DA00080CDA000812
:107A50002DE9F84F01F0030606F1030C8A460CEB02
:107A600003014FEA910C0CF102084FEA88089E4688
:107A700008F10A0323F0070400AFADEB040D0DF18C
:107A8000080B04464FF0FF3311464FEA8C0972464B
:107A90000CF1010CC6EB0A0A0BEB0600CDF80490C2
:107AA0000293CDF800A0D4F884904DF82C3002F069
:107AB000FFF84FF00051174A302320466669B0475F
:107AC000302143466A46C2F2000165692046A84754
:107AD0004FF00051626B20469047E168204688478E
